:020000040C00EE
:100000000008001001020008B1020008B102000857
:10001000B1020008B1020008B102000800000000AF
:10002000000000000000000000000000B102000815
:10003000B102000800000000B1020008B10200088F
:10004000B1020008B1020008B1020008B1020008C4
:10005000B1020008B1020008B1020008B1020008B4
:10006000B1020008000000000000000000000000D5
:10007000B102000800000000B1020008B10200084F
:10008000B1020008B1020008B1020008B102000884
:10009000B1020008B1020008B1020008B102000874
:1000A000B1020008B1020008B1020008B102000864
:1000B000B1020008B1020008B1020008B102000854
:1000C000B1020008B1020008B1020008B102000844
:1000D000B1020008B1020008B1020008B102000834
:1000E000B1020008B1020008B1020008B102000824
:1000F000B1020008B1020008B1020008B102000814
:10010000B1020008B1020008B1020008B102000803
:10011000B1020008B1020008B1020008B1020008F3
:10012000B1020008B1020008B1020008B1020008E3
:10013000B1020008B1020008B10200084130000815
:10014000B1020008B1020008B1020008B1020008C3
:10015000B1020008B1020008B1020008B1020008B3
:10016000000000000000000000000000000000008F
:10017000B1020008B1020008B1020008B102000893
:10018000B1020008B1020008B1020008B102000883
:10019000B1020008B1020008B1020008B102000873
:1001A000B1020008B1020008B1020008B102000863
:1001B000B1020008B1020008B1020008B102000853
:1001C000B1020008B1020008B1020008B102000843
:1001D000B1020008B1020008B102000800000000EE
:1001E000B1020008B1020008B1020008B102000823
:1001F000B102000800000000B10200080000000089
:10020000DFF88CD023488047234C244DAC4209DAD8
:1002100021686268A368043BA2BFC858D050FAE7BF
:100220000C34F3E71E4B1F4CA34208DA19685A68D6
:100230000020043AA4BF8850FBE70833F4E71A48CB
:1002400080471A4880470000C451000C000000207D
:10025000BC0100008053000C0000003000000000D2
:10026000C451000C0008001000000000C451000C34
:100270000008001000000000BC010020507F0000BA
:100280000000003000000000000800100000000026
:1002900000080010B50200084802000878020008B3
:1002A00078020008900200083546000899370008D7
:1002B000FEE7000098B500AF054A4FF00053144622
:1002C0000FCB84E80F0002F067F802F0CFF998BD79
:1002D000C4FF002080B584B000AF2F4BDB6803F46F
:1002E0008033002B3ED02D4BDB6803F00103002B45
:1002F00002D02B4BFB6002E002F0AEF9F860274B16
:100300001B6803F00403002B20D0244B9B6803F0F0
:1003100070631B0E0133BB60204B9B6803F4FE43EC
:100320001B0A01337B601D4B9B6803F4FE031B0C0F
:1003300001333B60BB683A6802FB03F3FA68B2FB27
:10034000F3F37A6802FB03F3FB600DE0134B9B6849
:1003500003F07F0301333B60FA683B68B2FBF3F3C1
:10036000FB6001E00E4BFB600B4BDB68DBB2013343
:10037000FA68B2FBF3F3FB60074B1B6903F0010360
:100380000133FA68B2FBF3F3FB60064AFB681360C3
:100390001037BD4680BD00BF0046005010470050DA
:1003A00000366E01C0FF002080B485B000AFF86059
:1003B0000B467A60FB72FB7A9B08DBB21846FB7A2D
:1003C0009B08DBB21A46FB68043253F82220FB7A02
:1003D00003F00303DB001946F8238B40DB4302EAFA
:1003E0000301FB68021D43F82210FB685A6FFB7A79
:1003F0005B00194603238B40DB431A40FB685A67B6
:10040000FB68374A934203D0FB68364A93420AD1CD
:10041000FB681A6EFB7A012101FA03F3DB431A40F1
:10042000FB681A663CE07B685A68FB7A9A40FB6876
:100430005A60FB7ADB08DBB21846FB7ADB08DBB2DA
:100440001A46FB68103253F82220FB7A03F00703A8
:100450009B00194607238B40DB4302EA0301FB683C
:1004600000F1100243F82210FB7ADB08DBB21846D9
:10047000FB7ADB08DBB21A46FB68103253F8222005
:100480007B681B7A1946FB7A03F007039B0001FA8D
:1004900003F342EA0301FB6800F1100243F8221063
:1004A000FB7A9B08DBB21846FB7A9B08DBB21A4644
:1004B000FB68043253F822207B681B781946FB7ACC
:1004C00003F00303DB0001FA03F342EA0301FB68D4
:1004D000021D43F822101437BD465DF8047B7047B7
:1004E000008E0248008F024880B400AF034B1B68A7
:1004F0001846BD465DF8047B704700BFC0FF002072
:1005000080B584B000AF7860FFF7E4FE0B4B1B684A
:100510000B4AA2FB03239A0C7B6802FB03F37B606C
:100520000023FB6003E000BFFB680133FB60FA6857
:100530007B689A42F7D31037BD4680BDC0FF0020CC
:1005400083DE1B43B0B584B002AF7860002000F0BA
:10055000B9F800F04BFA7B68DB79002B0AD000F089
:1005600083FA00BF00F06EFA034683F00103DBB2AA
:10057000002BF7D17B685B7A184600F01DF97B6889
:100580001B7A184600F00CFA7B681B7C184600F0BA
:1005900031F97B685B7C184600F054F97B689B7CE2
:1005A000184600F03BF97B68DB7C184600F05EF9EA
:1005B0007B689B79002B0AD000F088FA00BF00F01E
:1005C000ADFA034683F00103DBB2002BF7D17B6861
:1005D000DB78002B02D100F0C5FA14E000F0B2FA8B
:1005E0007B6899887B68DA787B685B781D467B68D6
:1005F0001B781C467B689B780093084611462A4668
:10060000234600F0BFFA7B68DB68B3F5803F03D177
:100610004FF4803000F056F8FFF75CFE0837BD4617
:10062000B0BD00BF80B485B000AF78607B681B0FA1
:10063000FB607B6823F07043BB60FA6813465B0085
:1006400013449B001A46044B1344BA681A601437CB
:10065000BD465DF8047B70471444005080B485B0FB
:1006600000AF78607B681B0FFB607B6823F07043F2
:10067000BB60FA6813465B0013449B001A46084BA4
:1006800013441A68BB681340002B14BF01230023D6
:10069000DBB218461437BD465DF8047B704700BFD7
:1006A0000C44005080B500AFFFF71EFF0246044B1C
:1006B0005B6903F0010322FA03F3184680BD00BF13
:1006C0000046005080B483B000AF78600649064B06
:1006D000DB6823F480327B681343CB600C37BD4664
:1006E0005DF8047B704700BF0046005080B483B0C3
:1006F00000AF78600649064B9B6923F480327B6823
:1007000013438B610C37BD465DF8047B704700BF17
:100710000046005080B483B000AF78600649064BB5
:100720005B6A23F440327B6813434B620C37BD464F
:100730005DF8047B704700BF0046005080B483B072
:1007400000AF0346FB80FB88002B08D10A4A0A4B06
:10075000DB6823F4807323F00103D36007E0064ACB
:10076000054BDB6843F4807343F00103D3600C371F
:10077000BD465DF8047B70471047005080B483B0DD
:1007800000AF0346FB7100BF094BD3F8C43003F040
:100790000803002BF8D10749064BDB6823F0400221
:1007A000FB791343CB600C37BD465DF8047B704783
:1007B000004000500043005080B483B000AF0346B7
:1007C000FB7100BF094BD3F8C43003F00803002BC2
:1007D000F8D10749064BDB6823F08002FB7913430D
:1007E000CB600C37BD465DF8047B7047004000507D
:1007F0000043005080B483B000AF78600649064BD8
:10080000DB6823F0FF027B68013B1343CB600C37AE
:10081000BD465DF8047B70470046005080B483B04D
:1008200000AF78600649064B1B6A23F001027B6823
:10083000013B13430B620C37BD465DF8047B7047E8
:100840000046005080B483B000AF78600649064B84
:100850001B6923F001027B68013B13430B610C37DA
:10086000BD465DF8047B70470046005080B483B0FD
:1008700000AF78600649064B5B6923F001027B6894
:10088000013B13434B610C37BD465DF8047B704759
:100890000046005080B483B000AF78600649064B34
:1008A0009B6923F007027B68013B13438B610C3784
:1008B000BD465DF8047B70470046005080B483B0AD
:1008C00000AF78600649064BDB6923F03F027B6886
:1008D000013B1343CB610C37BD465DF8047B704789
:1008E0000046005080B483B000AF78600649064BE4
:1008F0005B6A23F0FF027B68013B13434B620C37BA
:10090000BD465DF8047B70470046005080B483B05C
:1009100000AF0346FB71044AFB7953600C37BD46B8
:100920005DF8047B704700BF0046005080B483B080
:1009300000AF78603960194A184B5B6943F00103D6
:100940005361164A154B5B6943F010035361134919
:100950003B68013B1A027B68013B1B0613434B615A
:100960000E4A0E4B5B6943F0400353610B4A0B4B3D
:100970005B6923F010035361084A084B5B6943F439
:100980008023536100BF054B1B6903F00403002B58
:10099000F9D00C37BD465DF8047B70471047005016
:1009A00080B582B000AF0346FB710F4A0E4B5B6807
:1009B00043F480135360FB79012B0ED10A4A0A4B92
:1009C0005B6823F4801353606420FFF799FD064AA7
:1009D000054B5B6843F4002353606420FFF790FDF0
:1009E0000837BD4680BD00BF1047005080B400AF3F
:1009F000124B1B6803F00103002B09D10F4B01229E
:100A00005A6000BF0D4B1B6803F00103002BF9D0A7
:100A10000B4B1B6803F40073002B0AD0084B4FF4F8
:100A200000729A6000BF064B1B6803F40073002B32
:100A3000F9D1BD465DF8047B704700BF004200500D
:100A40000044005080B400AF064B1B6803F008035D
:100A5000002B0CBF01230023DBB21846BD465DF816
:100A6000047B70470043005080B400AF00BF154BBB
:100A7000D3F8C43003F08003002BF8D1124A124B94
:100A8000DB6923F03003D36100BF0E4BD3F8C430D1
:100A900003F00803002BF8D10B4A0B4BDB6843F043
:100AA0000803D36000BF074BD3F8C43003F004033E
:100AB000002BF8D1044B08229A60BD465DF8047BF8
:100AC000704700BF0040005000430050B0B500AF79
:100AD0000F4A0F4B5B6823F4803353600D4D0D4B71
:100AE0005B6823F4702424F0300401F0B5FD024665
:100AF000094BA3FB02231B0D013B1B0423436B602B
:100B0000034A034B5B6823F400335360B0BD00BF5E
:100B100010470050004700506BCA5F6B80B400AFB5
:100B2000074B1B6803F46073B3F5607F0CBF0123B0
:100B30000023DBB21846BD465DF8047B704700BF5A
:100B40001047005080B400AF054A054B5B6823F4A2
:100B5000803323F002035360BD465DF8047B704789
:100B60001047005080B400AF054A054B5B6843F462
:100B7000803343F002035360BD465DF8047B704749
:100B80001047005080B586B000AFBA607B60034666
:100B9000FB810B467B73FB891846FFF7CFFD7B7B00
:100BA000012B40F08480FB89002B09D101F054FD1A
:100BB00002464B4BA3FB02239B0C9B057B6102E08F
:100BC0004FF0C0637B617B697A6802FB03F2BB680C
:100BD000B2FBF3F37B617B69424AA2FB03231B094F
:100BE0009B0D3B61404A404B5B6843F001035360FF
:100BF0003D4A3D4B5B6843F0100353603A493A4B22
:100C00009A683A4B13407A68013A12021A433B69D8
:100C1000013B1B041A43BB68013B1B0613438B605B
:100C2000314A314B5B6843F0400353602E4A2E4BF0
:100C30005B6823F0100353602B4A2B4B5B6843F433
:100C40008023536000BF284B1B6803F00403002B74
:100C5000F9D0254A244B5B6823F00103536000BFA1
:100C6000214B1B6803F00103002BF9D17B69204A5B
:100C7000A2FB03235B099B0D3B613A6A3B699A42E5
:100C800002D2386900F038F87B695B08194AA2FB88
:100C900003235B099B0D3B613A6A3B699A4202D28E
:100CA000386900F029F8386A00F026F815E00E4996
:100CB0000D4B9B6823F07F023B6A013B13438B6023
:100CC000094A094B5B6843F00103536000BF064BC0
:100CD0001B6803F00103002BF9D01837BD4680BD17
:100CE00083DE1B43ABAAAAAA10470050FF8080F006
:100CF00089888888B7600BB680B582B000AF78600D
:100D00000749074B9B6823F4FE027B68013B1B04E9
:100D100013438B603220FFF7F3FB0837BD4680BDDD
:100D20001047005080B483B000AF78607B68DB6808
:100D300043F480727B68DA600C37BD465DF8047B53
:100D4000704700BF80B483B000AF78607B68012239
:100D50001A610C37BD465DF8047B704780B582B0E0
:100D600000AF78607B68094A934203D18020FFF787
:100D700059FC07E07B68064A934203D14FF4807028
:100D8000FFF750FC0837BD4680BD00BF00000240A1
:100D90000040024080B582B000AF78601020FFF7BD
:100DA000B5FD7868FFF7DAFF0837BD4680BD00BFA4
:100DB00080B584B000AF78600B46FB707868FFF7B1
:100DC000E9FF7868FFF7AEFF7B681B68FB60FB6894
:100DD00023F44043FB60FB789B03FA681343FB60FA
:100DE0007B68FA681A601037BD4680BD80B582B056
:100DF00000AF786039607868FFF7A4FF3B681A6835
:100E00007B685A613B685B7BC3F30013DBB21A0556
:100E10007B685A603B681B7BC3F30303DBB21A4653
:100E20007B685A623B681B7BC3F30313DBB21A4631
:100E30007B68DA623B685B7BC3F30303DBB21A4671
:100E40007B681A623B685A687B689A613B689B685A
:100E500083F014027B689A640837BD4680BD00BFEA
:100E600080B483B000AF78600B467B807A887B6863
:100E70005A630C37BD465DF8047B704780B483B07D
:100E800000AF78600B46FB7013463B80FB78002B6D
:100E900003D13A887B68DA6302E03A887B685A6457
:100EA0000C37BD465DF8047B704700BF80B487B047
:100EB00000AF78600B46FB701346BB707B68D3F8BD
:100EC000A830FB60FB78092B31D801A252F823F03F
:100ED000F90E0008F90E0008030F0008030F0008C0
:100EE0000D0F00080D0F00082F0F00082F0F00082E
:100EF000170F0008230F000803237B6100233B61C9
:100F00001BE00C237B6102233B6116E030237B61F5
:100F100004233B6111E04FF440737B6108233B6184
:100F20000BE04FF440637B610A233B6105E04FF423
:100F300040537B610C233B6100BF7B69DB43FA6854
:100F40001340FB60BA783B6902FA03F3FA68134373
:100F5000FB607B68FA68C3F8A8201C37BD465DF8C3
:100F6000047B704780B483B000AF78600B46FB70A1
:100F7000F878FB787A68DB0013449B6843F0807252
:100F80007968C3000B449A600C37BD465DF8047B5A
:100F9000704700BF80B483B000AF78600B46FB7031
:100FA000F878FB787A68DB0013445B6843F0005202
:100FB0007968C3000B445A600C37BD465DF8047B6A
:100FC000704700BF80B483B000AF78600B46FB7001
:100FD000F878FB787A68DB0013445B6823F00052F2
:100FE0007968C3000B445A600C37BD465DF8047B3A
:100FF000704700BF80B483B000AF78600B46FB70D1
:1010000013463B80FB783A88796804339B000B4495
:101010005A600C37BD465DF8047B704780B483B0DE
:1010200000AF78600B46FB7013463B807B68DA6943
:10103000FB781B01194640F6FF738B40DB431340DE
:101040003A88F97809018A401A437B68DA610C37DB
:10105000BD465DF8047B704780B485B000AFF86092
:101060000B467A60FB72F87AFB7AFA68DB0013446D
:101070009B6823F4CE227B681A43F968C3000B44B3
:101080009A601437BD465DF8047B704780B485B024
:1010900000AFF8600B467A60FB72F87AFB7AFA6868
:1010A000DB0013445B6823F4E0027B681A43F968B1
:1010B000C3000B445A601437BD465DF8047B70478B
:1010C00080B582B000AF78600248FFF7ABFA08370E
:1010D000BD4680BD2000001080B584B000AFF86030
:1010E0000B467A60FB72F868FFF7EAFFFB7A7A68D2
:1010F0001268F968DB000B445A60FB7A7A68526820
:10110000F968DB000B449A60FB7A012B04D8FB7A68
:10111000F8681946FFF726FF1037BD4680BD00BFAF
:1011200080B586B000AFF8600B467A60FB72FFF7BF
:10113000B9FA02467B68B2FBF3F33B613B690F2BC4
:1011400002D80423FB7516E03B69B3F5801F02D378
:101150000323FB750FE0F87AFB7AFA68DB0013448F
:101160005B681B0D1B053A691A43F968C3000B4401
:101170005A600023FB75FB7D18461837BD4680BDBD
:1011800080B586B000AFF8600B467A60FB72FB7AE0
:10119000FA6804339B0013445B687B61FB68DB697E
:1011A000FA7A1201D340C3F30B033B613A697B69BE
:1011B000D31A01337A6802FB03F3FA7AF86811460E
:1011C0001A46FFF7ADFF034618461837BD4680BDE7
:1011D00080B582B000AF78600B46FB70FB78786812
:1011E00019464FF48012FFF751FF002318460837C5
:1011F000BD4680BD80B586B000AFF8607A603B60C8
:101200000B46FB720023FB75FB7AF8681946002237
:10121000FFF73CFF7B68002B07D1FB7AF868194683
:101220003A68FFF77DFF0346FB75FB7D002B0CD171
:10123000FB7AF86819467A68FFF70EFFFB7AF868C0
:1012400019464FF40012FFF721FFFB7D18461837AF
:10125000BD4680BD80B586B000AFF8600846114637
:101260001A460346FB720B463B811346FB80002364
:10127000FB75FB7AF86819460022FFF707FFFA7A38
:101280003B89F86811461A46FFF7B4FEFA7AFB88E4
:10129000F86811461A46FFF7C1FEFB7AF86819464E
:1012A0003A6AFFF7D9FE3B6A002B07D1FB7AF86850
:1012B00019467A6AFFF764FF0346FB75FB7D002B36
:1012C00006D1FB7AF86819464FF4A002FFF7DEFE5C
:1012D000FB7D18461837BD4680BD00BF80B586B07F
:1012E00000AFF8607A601A460B46FB721346BB7279
:1012F0000023FB75FB7AF86819460022FFF7C6FE4B
:101300003B6A002B09D17B6A5B01FA7AF8681146C7
:101310001A46FFF705FF0346FB75FB7D002B20D126
:10132000FB7AF86819467A6800F050F8BB7A012B0E
:1013300005D1FB7AF8681946FFF72CFE04E0FB7A2A
:10134000F8681946FFF73EFEFB7AF86819463A6AD4
:10135000FFF782FEFB7AF86819464FF44012FFF758
:1013600095FEFB7D18461837BD4680BD80B586B01A
:1013700000AFF8607A603B600B46FB720023FB75A0
:10138000FB7AF86819460022FFF780FE7B68002B85
:1013900007D1FB7AF86819463A68FFF7C1FE0346A1
:1013A000FB75FB7D002B0CD1FB7AF86819467A6837
:1013B000FFF752FEFB7AF86819464FF48002FFF7F8
:1013C00065FEFB7D18461837BD4680BD80B487B0EA
:1013D00000AFF8600B467A60FB727B681B783B615C
:1013E00001237B6110E07A687B6913441B781946FE
:1013F0007A6913469B00134401FA03F33A691343D5
:101400003B617B6901337B617B69052BEBD9FA7A00
:10141000FB680432396943F832107B6806331B7865
:101420003B6101237B6111E07B6906337A681344D9
:101430001B7819467A6913469B00134401FA03F39B
:101440003A6913433B617B6901337B617B69052BFF
:10145000EAD9FB7AFA680433DB0013443A695A602C
:101460001C37BD465DF8047B704700BF80B483B075
:1014700000AF78600B46FB701346BB707B685A6FF9
:10148000FB785B00194603238B40DB431A407B68E3
:101490005A677B685A6FBB78F97849008B401A43CA
:1014A0007B685A670C37BD465DF8047B704700BF08
:1014B00080B485B000AF786039603B78C3F3020335
:1014C000DBB21A46BB78C3F30403DBB21B0413433D
:1014D000FB607B68FA68C3F8F021FB78C3F3001364
:1014E000DBB21A07FB78C3F38103DBB29B061A4316
:1014F000FB78C3F34013DBB25B071343FB607B68ED
:10150000D3F8F021FB68134343F000427B68C3F833
:10151000F0211437BD465DF8047B704780B483B07A
:1015200000AF78607B68D3F8843043F080727B68CA
:10153000C3F884200C37BD465DF8047B704700BFBC
:1015400080B483B000AF78607B68D3F8843023F038
:1015500080727B68C3F884200C37BD465DF8047B3D
:10156000704700BF80B500AF0120FFF75BF880BD7A
:1015700080B582B000AF78603960FFF7F3FF3B6859
:101580005A697B681A603B685B6843F400427B6879
:10159000C3F880203B689A687B68C3F8A0203B684A
:1015A000DA687B68C3F8A4203B681A697B68C3F8D3
:1015B00080223B681A687B68C3F8B8200837BD46AC
:1015C00080BD00BF80B485B000AF78607B68D3F881
:1015D000803043F000427B68C3F880200023FB7317
:1015E00016E0FB7B0E4A52F82330BB60BB68D3F891
:1015F000803003F44033002B07D000BFBB68D3F822
:10160000803003F08053002BF8D1FB7B0133FB7358
:10161000FB7B032BE5D91437BD465DF8047B70478F
:101620008046000880B582B000AF786039603B68C2
:10163000786859680022002300F028F83B68786831
:1016400059680122002300F021F83B687868996806
:101650000022012300F01AF83B687868996801229B
:10166000012300F013F83B681A697B68C3F88020F7
:101670003B68DA687B68C3F8B8203B68786819680B
:10168000FFF716FF0837BD4680BD00BF80B48DB0A0
:1016900000AFF860B9603B601346FB71FB79002B2B
:1016A00013D10823FB624FF4E0637B620023BB622B
:1016B0001F233B623B7AC3F30403DBB2FB617B7AFB
:1016C000C3F30203DBB2FB7613E01823FB624FF097
:1016D000E0637B621023BB624FF4F8133B62BB7A7A
:1016E000C3F30403DBB2FB61FB7AC3F30203DBB297
:1016F000FB76FB683A68283253F822307B617B6ABC
:10170000DB437A6913407B61FA7EFB6A02FA03F3DA
:101710007A6913437B613B6ADB437A6913407B61DF
:10172000BB6AFA6902FA03F37A6913437B61FB68C7
:101730003A682832796943F822103437BD465DF89B
:10174000047B704780B485B000AF78600B46FB70B7
:101750007B68D3F88030FB60FB6823F00303FB60F9
:10176000FB78FA681343FB607B68FA68C3F8802053
:101770001437BD465DF8047B704700BF80B487B066
:1017800000AFF860B9607A607A68BB689A4202D9A3
:10179000BB680133BB60FB68D3F8C0307B617B69F9
:1017A00023F003037B617A69BB6813437B61FB68A9
:1017B0007A69C3F8C0201C37BD465DF8047B7047CA
:1017C00080B485B000AF78607B68D3F8C030FB6030
:1017D000FB6823F00303FB607B68FA68C3F8C02052
:1017E0001437BD465DF8047B704700BF80B485B0F8
:1017F00000AF786039600023BB600023FB600BE022
:10180000134AFB6852F823207B689A4201D1FB6897
:10181000BB60FB680133FB60FB68032BF0D93A68BF
:10182000BB689A4202D23B6801333B607B68D3F8C5
:10183000C0203B680333194601238B401A437B6861
:10184000C3F8C0201437BD465DF8047B704700BF65
:101850008046000880B584B000AF78603960786851
:10186000FFF76EFE7B68D3F88430FB60FB6823F0E3
:101870000303FB603B681B78C3F38103DBB21A46AA
:10188000FB681343FB603B681B7803F00303DBB288
:10189000002B03D0FB6843F00803FB607B68FA6809
:1018A000C3F884203B685B6843F0802343F4000363
:1018B0007A68C2F800313B689B6843F001027B689C
:1018C000C3F804213B681B7803F00303DBB2022B4F
:1018D00007D17B68D3F8043143F480327B68C3F8C6
:1018E00004217868FFF71AFE1037BD4680BD00BF9F
:1018F00080B485B000AF78600B46FB707B68D3F88E
:10190000C031FB60FB6823F00F03FB60FB78FA68D3
:101910001343FB607B68FA68C3F8C0211437BD46E7
:101920005DF8047B704700BF80B489B000AFF860F9
:10193000B9607A607B681B7ABB61FB68D3F888303A
:101940007B61BB68012202FA03F3DB437A6913402F
:101950007B61BB68BA6902FA03F37A6913437B615E
:10196000FB687A69C3F888207B685B7A5BB2002BDE
:1019700029DB0023FB61BB68012B0AD10823FB6133
:10198000FB68D3F8B03023F4F852FB68C3F8B020FA
:101990000CE0BB68002B09D10023FB61FB68D3F886
:1019A000B03023F01F02FB68C3F8B020FB68D3F807
:1019B000B0307A68527A51B2FA6901FA02F21A43E7
:1019C000FB68C3F8B020FB68D3F8C8207B685B686D
:1019D0001A43FB68C3F8C8207B681968FB68BA68BB
:1019E000803243F822102437BD465DF8047B7047EF
:1019F00080B400AFBD465DF8047B704780B483B00F
:101A000000AF78600B46FB707B68DA68FB780121D9
:101A100001FA03F31A437B68DA600C37BD465DF8C0
:101A2000047B704780B483B000AF78600B46FB70D6
:101A30007B689A68FB78012101FA03F31A437B68FB
:101A40009A600C37BD465DF8047B704780B483B064
:101A500000AF78607B680122DA600C37BD465DF824
:101A6000047B704780B483B000AF78607B6801224C
:101A70001A610C37BD465DF8047B704780B483B0B3
:101A800000AF78607B6802221A610C37BD465DF8B2
:101A9000047B704780B483B000AF786039607B68A6
:101AA0003A681A610C37BD465DF8047B704700BF89
:101AB00080B483B000AF78600B46FB707B68D3F8CE
:101AC000A420FB78012101FA03F31A437B68C3F8D1
:101AD000A4200C37BD465DF8047B704780B584B008
:101AE00000AF78600123FB737B6893F82930022BE9
:101AF0004ED17B681B68184600F024FA0346FB733E
:101B0000FB7B002B40D17B689A687B68DB681046C2
:101B10001946FFF76BF97B689A687B68DB699BB2B3
:101B200010461946FFF79CF97B689A687B689B69A9
:101B30009BB2104600211A46FFF7A0F97B685A684D
:101B40007B685B6A10461946FFF7A4FF786800F0CF
:101B500025F87B6819697B6893F82C207B685B69A2
:101B6000084611461A46FEF71FFC7B68002283F8E0
:101B700029207B6893F82F30002B02D0786800F082
:101B8000DFF80023FB7303E07B68022283F829203F
:101B9000FB7B18461037BD4680BD00BF80B582B0C4
:101BA00000AF78607B6893F83030002B0FD07B68F3
:101BB0009B6818460021FFF77BFF7B689A687B686B
:101BC00093F82A30104600211A46FFF76FF97B6818
:101BD00093F83130002B0FD07B689B6818460221A8
:101BE000FFF766FF7B689A687B6893F82B30104696
:101BF00002211A46FFF75AF90837BD4680BD00BFDB
:101C000080B582B000AF78607B6893F82930002BF4
:101C100004D07B6893F82930042B11D17B685A6873
:101C20007B6893F82E3010461946FFF7E7FE7B6875
:101C30009B681846FFF70AFF7B68032283F8292078
:101C40000837BD4680BD00BF80B582B000AF786068
:101C50007B6893F82930022B16D07B689B68184666
:101C6000FFF700FF7B689B681846FFF707FF7B685C
:101C70005A687B6893F82E3010461946FFF7D2FE5B
:101C80007B68042283F829200837BD4680BD00BF49
:101C900080B586B000AF786039600123FB757B6842
:101CA00093F82930022B2DD03B6842F210729342F8
:101CB00028D87B68DB6901333B613B68C3F51C5363
:101CC00010333A6902FB03F3114AA2FB03235B0BB7
:101CD000FB607B68FA689A617B683A681A627B6885
:101CE0009A68FB689BB2104600211A46FFF7C6F8B7
:101CF0007B685A687B685B6A10461946FFF7CAFE24
:101D00000023FB75FB7D18461837BD4680BD00BF1C
:101D10005917B7D180B584B000AF78600123FB7349
:101D20007B6893F82830012B04D17868FFF7D6FE42
:101D30000346FB73FB7B18461037BD4680BD00BFD2
:101D400080B582B000AF78607B6893F82830012BB3
:101D500002D17868FFF754FF0837BD4680BD00BF49
:101D600080B582B000AF78607B6893F82830012B93
:101D700002D17868FFF768FF0837BD4680BD00BF15
:101D800080B584B000AF786039600123FB737B6855
:101D900093F82830012B05D178683968FFF778FF70
:101DA0000346FB73FB7B18461037BD4680BD00BF62
:101DB00080B400AF044BDB6803F4E0631B0A1846F1
:101DC000BD465DF8047B704700ED00E080B483B051
:101DD00000AF0346FB7197F90730002B0BDB084976
:101DE00097F907305B09FA7902F01F02012000FA27
:101DF00002F241F823200C37BD465DF8047B7047A2
:101E000000E100E080B483B000AF03463960FB71AD
:101E100097F90730002B0ADB0D4997F907303A682C
:101E2000D2B29200D2B20B4483F800230AE00949EF
:101E3000FB7903F00F03043B3A68D2B29200D2B2AE
:101E40000B441A760C37BD465DF8047B704700BF23
:101E500000E100E000ED00E080B489B000AFF86080
:101E6000B9607A60FB6803F00703FB61FB69C3F1AB
:101E70000703062B28BF0623BB61FB690633062B2D
:101E800002D9FB69013B00E000237B61BB690122B1
:101E900002FA03F35A1EBB681A407B699A407B69B9
:101EA000012101FA03F3591E7B680B4013431846C6
:101EB0002437BD465DF8047B704700BF80B582B013
:101EC00000AF78607B681B785BB21846FFF77EFF37
:101ED0000837BD4680BD00BF90B583B000AF7860C5
:101EE0007B681C78FFF764FF01467B685B781A46C5
:101EF0007B689B78084611461A46FFF7ADFF0246FD
:101F000063B218461146FFF77DFF7B68DB78002B34
:101F100002D07868FFF7D2FF002318460C37BD4681
:101F200090BD00BF80B483B000AF78607B68DB6891
:101F300043F480727B68DA600C37BD465DF8047B41
:101F4000704700BF80B582B000AF78607B685B7B74
:101F500083F00103DBB2002B0FD07B689A687B68AB
:101F60001B7B10461946FEF723FF7B689B681846CB
:101F7000FFF7D8FF7B6801225A7300231846083701
:101F8000BD4680BD80B483B000AF786039607B68A7
:101F9000D3F880203B681033194601238B401A4345
:101FA0007B68C3F880200C37BD465DF8047B704722
:101FB00080B584B000AF78607B681B7E022B49D16E
:101FC0007B685A697B681B6910461946FFF7D0FA8F
:101FD0000023FB602FE07B68FA6853F82230196811
:101FE0007B68FA6853F822305B6808461946FFF7A9
:101FF00019FB7B68FA6853F822301B6818460321E6
:10200000FFF7A0FB7B68FA6853F822301B7A83F055
:102010000103DBB2002B05D07B685B691846F968C9
:10202000FFF7B0FF7B68FA6853F8223000225A723B
:10203000FB680133FB60FB68032BCCD97B685B7EBC
:10204000002B04D07B685B691846FFF7BBFA7B68FE
:1020500000221A767B681B7E18461037BD4680BD6D
:1020600080B582B000AF78607B6819687B681A7CA5
:102070007B680433084611461A46FEF795F97B68DB
:1020800019687B681A7C7B685B7C084611461A4697
:10209000FFF7ECF9002318460837BD4680BD00BFA6
:1020A00080B483B000AF78607B689B6843F40042E3
:1020B0007B689A600C37BD465DF8047B704700BFB3
:1020C00080B483B000AF78600B46FB7013463B8052
:1020D000FB783A88796804339B000B445A600C37CC
:1020E000BD465DF8047B704780B485B000AFF860F2
:1020F0000B467A60FB72F87AFB7AFA68DB001344CD
:102100005B6823F4E0027B681A43F968C3000B4460
:102110005A601437BD465DF8047B704780B483B0C5
:1021200000AF78600B46FB70F878FB787A68DB00CC
:1021300013445B6843F080427968C3000B445A60E3
:102140000C37BD465DF8047B704700BF80B483B098
:1021500000AF78600B46FB701346BB70F878FB78D5
:102160007A68DB0013449B6823F00F02BB781A43A4
:102170007968C3000B449A600C37BD465DF8047B58
:10218000704700BFB0B586B002AF78600023FB7324
:102190007B689B68B3F5401F15D17B6818687B6826
:1021A00093F822107B685D6A7B681C7C7B68DA6828
:1021B0007B685B69009201932A462346FFF78EF8FD
:1021C0000346FB7385E07B689B68B3F5801F15D1E0
:1021D0007B681A687B6893F8223010461946FEF730
:1021E000F7FF0346FB737B681A687B6893F822301D
:1021F000104619460022FFF763FF6AE07B689B6880
:10220000B3F5001F25D17B6818687B6893F822100E
:102210007B68DA687B685B69FEF7ECFF0346FB735B
:102220007B6893F82030012B08D17B681A687B68A3
:1022300093F8223010461946FFF770FF7B681A6842
:102240007B6893F82230104619460022FFF738FFCA
:102250003FE07B689B68B3F5A00F25D17B681868C9
:102260007B6893F822107B681D8B7B685C8B7B6896
:10227000DA687B685B69009201932A462346FEF781
:10228000E9FF0346FB737B6819687B6893F822209B
:102290007B685B681B79C3F30303DBB20846114616
:1022A0001A46FFF753FF14E07B689B68B3F5800F75
:1022B0000DD17B6818687B6893F822107B68DA6818
:1022C0007B685B69FFF752F80346FB7301E000236C
:1022D000FB73FB7B18461037BD46B0BD80B584B09C
:1022E00000AF78600023FB737B6819687B6893F804
:1022F00022207B685B68084611461A46FEF7ECFE12
:102300007868FFF73FFF0346BB737B6893F828307C
:10231000002B09D17B681A687B6893F8223010463D
:1023200019460022FFF7E0FE7B6893F82130012B6D
:1023300004D17B681B681846FFF7B2FEBB7B002BFD
:1023400001D00123FB73FB7B18461037BD4680BDCF
:1023500080B485B000AF78607B6803F00703FB6052
:102360000C4BDB68BB60BA684FF6FF031340BB60E1
:10237000FB681A02BB68134343F0BF6343F40033A6
:10238000BB60044ABB68D3601437BD465DF8047B6C
:10239000704700BF00ED00E080B582B000AF0120C3
:1023A000FFF7D6FF72B6214B214A9A60BFF34F8FD9
:1023B00062B61E4A1D4BD3F8883043F47003C2F84E
:1023C00088301C4B03F5805314331B687B607B689B
:1023D00023F00F037B607B6843F003037B60154BA6
:1023E00003F5805314337A681A60104A0F4B5B6907
:1023F00023F0100353610D4A0C4B5B6923F0080373
:1024000053610A4A094B5B6A23F480335362074ADB
:10241000064B5B6A23F400335362044A034B5B6A46
:1024200023F4802353620837BD4680BD00ED00E0F1
:10243000000000080010005880B48BB000AF786036
:10244000D7ED017A9FED357A67EE877AB5EE007A9F
:1024500077EE877AC7ED087AD7ED087AFDEEE77A4E
:1024600017EE903A7B62D7ED087AF5EEC07AF1EE7E
:1024700010FA02D57B6A013B7B627B6A07EE903AD9
:10248000F8EEE77A97ED087A77EE677AC7ED087A83
:10249000D7ED087A9FED227A67EE877AC7ED077A43
:1024A000D7ED077AFCEEE77AC7ED007A3B889BB25E
:1024B000C3F308037B837B8B07EE903AF8EE677AD1
:1024C00097ED077A77EE677AC7ED057A7B8B154A29
:1024D0009B0013441B683B617B8B0133114A9B00BB
:1024E00013441B68FB60B7EE007AD7ED057A37EE30
:1024F000677AD7ED047A27EE277AD7ED056AD7ED0C
:10250000037A66EEA77A77EE277AC7ED027ABB6880
:1025100018462C37BD465DF8047B704783F9223E90
:10252000000000443448000880B48BB000AF7860ED
:10253000D7ED017AF5EEC07AF1EE10FA0AD5D7EDB3
:10254000017A9FED397AF4EEC77AF1EE10FA01DBE9
:102550007B6863E0D7ED017A9FED347A67EE877A86
:10256000C7ED087AD7ED087AFDEEE77A17EE903AD4
:102570007B62D7ED017AF5EEC07AF1EE10FA02D562
:102580007B6A013B7B627B6A07EE903AF8EEE77A62
:1025900097ED087A77EE677AC7ED087AD7ED087A73
:1025A0009FED237A67EE877AC7ED077AD7ED077A32
:1025B000FCEEE77AC7ED007A3B889BB2C3F30803D1
:1025C0007B837B8B07EE903AF8EE677A97ED077A7C
:1025D00077EE677AC7ED057A7B8B164A9B0013442A
:1025E0001B683B617B8B0133124A9B0013441B68C1
:1025F000FB60B7EE007AD7ED057A37EE677AD7ED54
:10260000047A27EE277AD7ED056AD7ED037A66EECE
:10261000A77A77EE277AC7ED027ABB6818462C377F
:10262000BD465DF8047B7047CD024CB483F9223E71
:10263000000000443448000880B485B000AF7860E2
:102640000023FB737B6801221A70FB7B184614374A
:10265000BD465DF8047B704780B400AF024B18465E
:10266000BD465DF8047B7047001BB700B0B586B06F
:1026700000AF124B3C1D1D460FCD0FC42B682360CD
:102680003B1D1846FDF75EFF0020FEF777F800209F
:10269000FEF72CF80420FEF7FDF801202021FEF7BC
:1026A00045F90020FEF736F80120FEF71BF901205E
:1026B000FEF704F91837BD46B0BD00BF385000081A
:1026C00080B400AF044BDB6803F4E0631B0A1846D8
:1026D000BD465DF8047B704700ED00E080B483B038
:1026E00000AF0346FB7197F90730002B0BDB08495D
:1026F00097F907305B09FA7902F01F02012000FA0E
:1027000002F241F823200C37BD465DF8047B704788
:1027100000E100E080B483B000AF03463960FB7194
:1027200097F90730002B0ADB0D4997F907303A6813
:10273000D2B29200D2B20B4483F800230AE00949D6
:10274000FB7903F00F03043B3A68D2B29200D2B295
:102750000B441A760C37BD465DF8047B704700BF0A
:1027600000E100E000ED00E080B489B000AFF86067
:10277000B9607A60FB6803F00703FB61FB69C3F192
:102780000703062B28BF0623BB61FB690633062B14
:1027900002D9FB69013B00E000237B61BB69012298
:1027A00002FA03F35A1EBB681A407B699A407B69A0
:1027B000012101FA03F3591E7B680B4013431846AD
:1027C0002437BD465DF8047B704700BF80B483B0FA
:1027D00000AF78607B68D3F8843043F080727B6808
:1027E000C3F884200C37BD465DF8047B704700BFFA
:1027F00080B483B000AF78607B68D3F8843023F076
:1028000080727B68C3F884200C37BD465DF8047B7A
:10281000704700BF80B483B000AF78607B68D3F8A6
:10282000843003F080731B0E002B14BF01230023A0
:10283000DBB218460C37BD465DF8047B704700BF1D
:1028400080B483B000AF78600B46FB707B68D3F830
:10285000043123F003027B68C3F804217B68D3F8BA
:102860000421FB781A437B68C3F804210C37BD466A
:102870005DF8047B704700BF80B483B000AF786020
:1028800039603A687B68C3F810210C37BD465DF8A3
:10289000047B704780B485B000AFF860B9607A609F
:1028A0007B681968FB68BA68A03243F822101437B5
:1028B000BD465DF8047B704790B585B000AF786089
:1028C0000B46FB702748FFF773FB0346FB73FB784F
:1028D000254A52F823207B689B7E1C467B68104665
:1028E000196900222346FEF7D1FEFB781E4A52F8F2
:1028F00023207B685B6910461946FEF7ABFFFB7827
:10290000194A52F823207B681B7E10461946FFF7B0
:1029100097FF7B681B7B002B1ED07B681B68DCB29B
:10292000FFF7CEFE01467B685A687B689B680846C5
:1029300011461A46FFF718FF024663B218461146C1
:10294000FFF7E8FEFB78084A52F823207B685B7E9D
:1029500010461946FEF7CCFFFB7B18461437BD46E0
:1029600090BD00BF100100204C50000880B584B01D
:1029700000AF78607B68DA687B685B7D104619463B
:10298000FFF79AFF0346FB73FB7B18461037BD46E3
:1029900080BD00BF80B586B000AF78607B685B7D8E
:1029A0001A460F4B53F822303B617B685B68FB6033
:1029B00000237B610BE07B699B00FA6813441B6872
:1029C00038691968FFF758FF7B6901337B617B68C1
:1029D0009B7D1A467B699A42EDD81837BD4680BD6B
:1029E0004C50000880B584B000AF78600023BB7302
:1029F0000023FB730120FDF731FE034683F0010342
:102A0000DBB21A46BB7B1343002B14BF0123002308
:102A1000BB73BB7B002B0AD07B685B7D1A46064BE1
:102A200053F822301846FFF7F5FE0346FB73FB7B95
:102A300018461037BD4680BD4C50000880B582B0A6
:102A400000AF78600B46FB70FB7883F00103DBB2CC
:102A5000002B08D07B685B7D1A46044B53F822306C
:102A60001846FFF7C5FE0837BD4680BD4C5000082C
:102A700080B582B000AF78607868FFF78BFF0837C9
:102A8000BD4680BD80B582B000AF03237B600AE005
:102A9000194A7B6852F8233018460021FEF752FE8F
:102AA0007B68013B7B607B68002BF1DA03237B6052
:102AB00012E0114A7B6852F823207B6810460021FF
:102AC0001A46FEF75BFE0D4A7B6810461946FEF774
:102AD0008DFE7B68013B7B607B68002BE9DC074B4C
:102AE0001846FEF76DFE054B18460321FEF72AFE39
:102AF0000837BD4680BD00BF4C5000080044004070
:102B000080B582B000AF78607B685B7D1A46044B6D
:102B100053F822301846FFF759FE0837BD4680BDEE
:102B20004C50000880B582B000AF78607B68DB68ED
:102B30001B7B002B0BD07B681B7D032B07D17B6895
:102B4000DB681B68DBB25BB21846FFF7C7FD0837CE
:102B5000BD4680BD80B582B000AF78607B681B7ACF
:102B60001A46094B53F822207B681B689B78C3F3F5
:102B70000303DBB219467B685B6810461A46FFF711
:102B800089FE0837BD4680BD4C50000880B584B032
:102B900000AF78600023BB737B681B691B78022B36
:102BA00043D17868FFF71EFF0346BB737868FFF7D1
:102BB000DDFE03467B73BB7B78681946FFF73EFF5B
:102BC000FFF760FF7B68DB7D3B730023FB731BE03B
:102BD0007B681A68FB7B9B0013441B68BB60BB6867
:102BE0001B7A1A46144B53F82220BB685B7A1946AD
:102BF000BB681B6810461A46FEF796FEB868FFF7DA
:102C0000A9FFFB7B0133FB73FA7B3B7B9A42DFD34B
:102C10007868FFF787FF7868FFF72AFF7868FFF783
:102C20006FFF7B681B697A7B1A707B681B691B7856
:102C300018461037BD4680BD4C50000880B582B0A4
:102C400000AF0023FB714D48FFF7F6FC0346FB7114
:102C5000FB79002B04D14A48FFF75CF80346FB716F
:102C6000FB79002B04D14748FFF754F80346FB716A
:102C7000FB79002B04D14448FFF74CF80346FB7165
:102C8000FB79002B04D14148FFF726F90346FB717D
:102C9000FB79002B04D13E48FFF73CF80346FB715B
:102CA000FB79002B04D13B48FFF7DAF90346FB71AF
:102CB000FB79002B04D13848FFF768FF0346FB710E
:102CC000FB79002B04D13548FFF7CAF90346FB71A5
:102CD000FB79002B04D13248FFF700FB0346FB7160
:102CE000FB79002B04D12F48FFF7BAF90346FB719B
:102CF000FB79002B04D12C48FFF7B2F90346FB7196
:102D0000FB79002B04D12948FFF7AAF90346FB7190
:102D1000FB79002B04D12648FFF7A2F90346FB718B
:102D2000FB79002B04D12348FFF79AF90346FB7186
:102D3000FB79002B04D12048FFF792F90346FB7181
:102D4000FB79002B04D11D48FFF78AF90346FB717C
:102D5000FB79002B04D11A48FFF782F90346FB7177
:102D6000FB79002B04D11748FFF710FF0346FB71D6
:102D7000FB7918460837BD4680BD00BFBC01002066
:102D800000000020340000206800002000470008F8
:102D90009C0000206C470008045100088047000890
:102DA0003401002094470008A8470008BC470008E9
:102DB000D0470008E4470008F84700080C4800081E
:102DC00020480008A851000880B483B000AF7860A4
:102DD0000B46FB70FB7801229A407B685A600C37E7
:102DE000BD465DF8047B704780B483B000AF786067
:102DF0000B46FB70FB784FF480329A407B685A6038
:102E00000C37BD465DF8047B704700BF80B582B0CB
:102E100000AF78607B681A687B681B7C1046194697
:102E2000FFF7D2FF0837BD4680BD00BF80B582B036
:102E300000AF78607B681A687B681B7C1046194677
:102E4000FFF7D2FF0837BD4680BD00BF80B483B016
:102E500000AF786039607B683A68C03253F822303E
:102E60009BB218460C37BD465DF8047B704700BF27
:102E700080B584B000AF78607B681B7A1A460A4B35
:102E800053F822207B681B689B78C3F30303DBB2F3
:102E900010461946FFF7DAFF0346FB81FB89184607
:102EA0001037BD4680BD00BF4C50000880B487B0CD
:102EB00000AFF860B9607A603B60BB6893ED007A60
:102EC000D7ED036AD7ED017A66EEA77A77EE277A17
:102ED000C7ED057AD7ED007AF5EE407AF1EE10FAFB
:102EE00030D097ED057AD7ED007AB4EEE77AF1EEBF
:102EF00010FA10DD97ED057AD7ED007A37EE677A94
:102F0000D7ED056AD7ED017A66EEA77A77EE277AD4
:102F1000C7ED057A16E0D7ED057AF5EEC07AF1EE49
:102F200010FA0FD597ED057AD7ED007A37EE277AAC
:102F3000D7ED056AD7ED017A66EEA77A77EE677A64
:102F4000C7ED057ABB687A691A607B6918461C3739
:102F5000BD465DF8047B704780B586B000AFF86071
:102F6000B9607A607868FFF767FA78617868FFF788
:102F7000DBFA3861FB6893ED007AD7ED057A27EE2E
:102F8000277AFB680433D3ED006AD7ED047A66EE46
:102F9000A77A77EE677ABB68C3ED007ABB68043323
:102FA000FA6892ED007AD7ED047A27EE277AFA686C
:102FB0000432D2ED006AD7ED057A66EEA77A77EE95
:102FC000277AC3ED007A1837BD4680BD80B483B040
:102FD00000AF786039607B681A683B681A603B68AC
:102FE00004337A68D2ED007ABEEE007A27EE877A53
:102FF0007A680432D2ED007ADFED106A67EEA67AC5
:1030000077EE277AC3ED007A3B6808337A68D2ED11
:10301000007ABEEE007A27EE877A7A680432D2ED23
:10302000007ADFED066A67EEA67A77EE677AC3ED7F
:10303000007A0C37BD465DF8047B7047D7B35D3F1F
:1030400080B584B000AFA348FFF7E0FEA248FFF7C9
:103050000FFF03461A46A14B1A80A148FFF708FF4D
:1030600003461A469D4B5A809E48FFF701FF0346D0
:103070001A469A4B9A80994B1B8807EE903AF8EEC5
:10308000E77A9FED997A77EEC77A9FED987A67EEA7
:10309000877A974BC3ED007A904B5B8807EE903AA6
:1030A000F8EEE77A9FED937A77EEC77A9FED8F7A05
:1030B00067EE877A8E4BC3ED017A884B9B8807EECB
:1030C000903AF8EEE77A9FED8C7A77EEC77A9FED2B
:1030D000877A67EE877A864BC3ED027A8748FFF7D7
:1030E000C7FE03461A46864B1A808648FFF7C0FE85
:1030F00003461A46824B5A808348FFF7B9FE0346BF
:103100001A467F4B9A808148FFF7B2FE034607EECE
:10311000903AF8EE677AC7ED017A7D4A7B681360D2
:103120006E4B1B8807EE903AF8EE677A794BC3ED49
:10313000007A6A4B5B8807EE903AF8EE677A764B36
:10314000C3ED007A654B9B8807EE903AF8EE677AFC
:10315000724BC3ED007A664B1B68714A1360644B77
:103160005B68704A1360624B9B686F4A13606F4BD9
:103170001B6818464FF07E5101F01CFA02466B4B5B
:103180001A606A4B1B681846694901F0EDF902465E
:10319000664B1A60654B5B6818464FF07E5101F034
:1031A00009FA0246614B5A60604B5B6818466049F9
:1031B00001F0DAF902465D4B5A605E4B1B68184617
:1031C0004FF07E5101F0F6F902465A4B1A60594B06
:1031D0001B681846564901F0C7F90246554B1A605C
:1031E000544B5B6818464FF07E5101F0E3F90246FC
:1031F000504B5A604F4B5B6818464D4901F0B4F98B
:1032000002464C4B5A604C4B1B6818464FF07E519F
:1032100001F0D0F90246484B1A60474B1B6818462C
:103220004FF0000101F0A0F90246434B1A60434BF6
:103230001B6818464FF07E5101F0BCF902463F4B27
:103240001A603E4B1B6818464FF0000101F08CF9E4
:1032500002463A4B1A603A4B1B6818464FF07E51B3
:1032600001F0A8F90246364B1A60354B1B68184628
:103270004FF0000101F078F90246314B1A60314BF2
:103280001B6818464FF07E5101F094F902462D4B11
:103290001A602C4B1B6818464FF0000101F064F9CE
:1032A0000246284B1A60284B1B6818464FF07E5187
:1032B00001F080F90246244B1A60234B1B68184624
:1032C0004FF0000101F050F902461F4B1A60002335
:1032D000FB7360E06C4700086C500008CC010020D4
:1032E00030510008685100083DDAE244EC51383FA3
:1032F000DC0100206696E1448F4AE3444C5100080B
:10330000D4010020C0500008A450000888500008D4
:10331000C0800020D0800020BC800020EC800020F5
:10332000CC800020E4800020D4800020A401002074
:10333000000080BF00020020AC0100201802002025
:103340001C0200202002002024020020FB7BFA7BCC
:10335000934992000A4492ED007A924AD2ED007AA3
:1033600067EE277A904A9B001344C3ED007AFB7BFB
:10337000FA7B8E4992000A4492ED007A894AD2ED96
:10338000007A67EE277A8A4A9B001344C3ED007ADD
:10339000FB7B0133FB73FB7B012BD7D9854B93ED73
:1033A000007A804BD3ED007A67EE277A824BC3ED2B
:1033B000007A824B93ED007A7A4BD3ED007A67EE78
:1033C000277A7F4BC3ED007A7E4B93ED007A754BE5
:1033D000D3ED007A67EE277A7B4BC3ED007A7B4B07
:1033E00093ED007A6F4BD3ED007A67EE277A784B36
:1033F000C3ED007A774B1B6818467749774A784BBC
:10340000FFF754FD07EE100A764BD3ED007A77EE06
:10341000277A754BC3ED007A6E4BD3ED007AB1EE8F
:10342000047A67EE877A17EE900A70496B4A6C4B04
:10343000FFF73CFD07EE100A6A4BD3ED007A77EEFA
:10344000277A6B4BC3ED007A624BD3ED007AB1EE75
:103450000C7A67EE877A17EE900A66495F4A604BEE
:10346000FFF724FD07EE100A5E4BD3ED007A77EEEE
:10347000277A614BC3ED007A564BD3ED007AB2EE5A
:10348000067A67EE877A17EE900A5C49534A544BE6
:10349000FFF70CFD07EE100A524BD3ED007A77EEE2
:1034A000277A574BC3ED007A4A4BD3ED007AB2EE40
:1034B0000A7A67EE877A17EE900A5249474A484BD4
:1034C000FFF7F4FC07EE100A464BD3ED007A77EED7
:1034D000277A4D4BC3ED007A434B1B6832484B496A
:1034E0001A46FFF739FD404BD3ED007AF1EE677ACB
:1034F00017EE903A2E4846491A46FFF72DFD3C4BF1
:103500001B682D4843491A46FFF726FD3A4B1B68B6
:103510002B4841491A46FFF71FFD394B1B682A48C3
:103520003E491A46FFF718FD374B1B6828483C49AF
:103530001A46FFF711FD37483A49FFF747FD36486D
:103540003949FFF743FD35483849FFF73FFD344817
:103550003749FFF73BFD2D4B93ED007A2C4BD3ED14
:10356000007A77EE277A334BC3ED007A274B93ED41
:10357000017A274BD3ED017A77EE277A2D4BC3EDF5
:10358000017A2C4B1B682C4A13602A4B5B682B4A30
:10359000136028482A49FFF719FD0023BB60B4E0F7
:1035A000A4010020AC010020F00100200002002056
:1035B0000802002018020020280200201C0200201F
:1035C000440200202002002060020020240200208B
:1035D0007C020020A0010020EC01002017B7D138A8
:1035E000DB0FC940CC020020E8010020AC02002023
:1035F000BC020020B0020020C0020020B402002063
:10360000C4020020B8020020C8020020F8010020F7
:1036100010020020300200204C020020680200202E
:103620008402002038020020540200207002002092
:103630008C02002098020020DC800020B88000204E
:10364000A0020020444ABB689B00134493ED007A1B
:10365000424ABB689B001344D3ED007A37EE277AC9
:103660003F4ABB689B001344D3ED007A37EE277ABC
:103670003C4ABB689B001344D3ED007A37EE277AAF
:10368000394ABB689B001344D3ED007A77EE277A62
:10369000314ABB689B001344C3ED007A2E4ABB68D5
:1036A0009B0013441B681846304900F083FF014615
:1036B000294ABB689B0013441960274ABB689B00DA
:1036C00013441B6818462A4900F04EFF0146224A5F
:1036D000BB689B00134419601F4ABB689B001344DE
:1036E000D3ED007A9FED237A67EE877AFDEEE77AD5
:1036F00017EE903A5B1003F59C5308331E49BA68E5
:1037000041F82230BB680133BB60BB68022B99DDF6
:10371000194B1B68194A1360174B5B68184A1360F2
:10372000154B9B68174A1360134B1B6816481946C4
:10373000FEF726FB104B5B6814481946FEF720FB8A
:103740000D4B9B6812481946FEF71AFB1148FFF70C
:103750006DFB1037BD4680BDA0020020380200205E
:1037600054020020700200208C020020EC51783FAF
:10377000EC5178BF00401C46C0010020D8800020DA
:10378000E0800020C88000200000002068000020A9
:10379000340000206C47000880B582B000AFFFF70E
:1037A0004DFA0346FB71FB79002B00D0FEE71E4B60
:1037B0001B681E4AA2FB03235B0B184600F04EF861
:1037C0001B48FFF733FB1B48FFF730FB1A48FFF796
:1037D0002DFB1A48FFF72AFB1948FFF727FB19486A
:1037E000FEF7BEFA1848FEF7BBFA1848FEF7B8FA1B
:1037F0001748FEF7A5FA174B174A1A601148FEF74B
:103800009FFA1148FEF79CFA1048FEF799FA0A4809
:10381000FFF7FCFA0948FFF7F9FA0948FFF7F6FA4B
:1038200000F0CCF8EAE700BFC0FF00205917B7D17D
:103830009447000820480008D0470008E4470008E3
:10384000F847000800000020680000203400002035
:103850009C000020A001002063149D4380B483B02D
:1038600000AF7860374B00221A60374B00221A6095
:10387000364B00221A60364B00221A60354B00226C
:103880001A60354B00221A60344B00221A60344B08
:1038900000221A60334B00221A70334B00221A7038
:1038A000324B01221A70324B00221A60314B002237
:1038B0001A60314B00221A60304B00221A60304BE4
:1038C00000221A602F4B00221A602F4B00221A6030
:1038D0002A4B1B682D4A13602D4B4FF47A721A60E5
:1038E0002C4B01221A602C4B1B889BB21A462B4B87
:1038F0001A602B4B1B78DBB21A46284B1B6813440B
:10390000264A1360274B1A68244B1B681344234A2A
:103910001360254B1A68214B1B6813441F4A136020
:10392000224B01221A80224B00221A80214A7B68F6
:103930001360214B01221A600C37BD465DF8047BF1
:10394000704700BFD00200208812002040220020D3
:10395000F8310020B0410020685100202061002093
:10396000D870002090800020B0800020918000203E
:103970009C800020A0800020F0800020FC8000209F
:10398000008100209480002008810020A480002075
:10399000A880002098800020B0010020B480002082
:1039A000B2010020B4010020B8010020AC8000204A
:1039B000AE800020F48000200481002080B500AF9C
:1039C0000E4B1B78032B17D801A252F823F000BF2F
:1039D000E1390008E7390008ED390008F33900083B
:1039E00000F00EF808E000F05DF805E000F01CF8CB
:1039F00002E000F057F800BF80BD00BF90800020BB
:103A000080B400AF064B00221A70064B1B88002BB7
:103A100002D1044B01221A80BD465DF8047B704739
:103A2000B0800020AC80002080B500AF174B1B6831
:103A3000002B26D1164B00221A60164B1B88012B37
:103A400006D9144B1B88013B9AB2124B1A8018E01E
:103A5000114B1B88002B02D10F4B01221A800E4BF9
:103A60001A880C4B1A8000F0E5F800F00BFA0B4BAB
:103A70001B68002B05D1054B01221A60044B012263
:103A80001A60074B00221A7080BD00BF0881002019
:103A9000F0800020AE800020AC800020A0800020BC
:103AA000B080002080B500AF554B1B88012B06D994
:103AB000534B1B88013B9AB2514B1A809EE0514BED
:103AC0001B88002B02D14F4B01221A804D4B1A88C4
:103AD0004B4B1A804C4B1B78032B00F28B8001A2BE
:103AE00052F823F0F53A0008313B0008713B00081A
:103AF000B93B0008454B00221A60454B00221A6072
:103B0000444B00221A60444B00221A60434B0022AF
:103B10001A60434B00221A60424B1B68424A1360F2
:103B200000F088F800F0AEF9374B01221A7065E01A
:103B300000F080F83C4B1B68002B05D03A4B1B680B
:103B4000013B394A136001E000F0B8F900F09AF93E
:103B50002F4B1B68012B0AD1324B1B68C3F57973BD
:103B600002332F4A1360284B02221A7046E045E0C8
:103B700000F060F800F086F9294B1B68002B05D097
:103B8000274B1B68013B264A136037E0274B1B7805
:103B9000012B06D1254B00221A701B4B00221A70F4
:103BA00006E0234B1B681D4A1360174B03221A7053
:103BB000164B01221A6021E0184B1B68002B05D020
:103BC000164B1B68013B154A136012E00F4B1B6834
:103BD000002B0ED10E4B00221A60124B1B68124AAA
:103BE0001360094B01221A7000F024F800F04AF922
:103BF00004E003E0044B00221A7000BF80BD00BF48
:103C0000AE800020AC800020B08000200881002021
:103C1000F08000209C800020A08000209480002064
:103C2000A8800020FC800020A4800020908000203C
:103C30000081002080B500AF0C4800F027F80C4848
:103C400000F024F80B4800F021F80B4800F01EF8B3
:103C50000A4800F01BF80A4800F018F8094800F07C
:103C600015F8094800F012F880BD00BFD00200200E
:103C70008812002040220020F8310020B0410020AE
:103C80006851002020610020D870002080B485B0E9
:103C900000AF78607B681B68012B40F0EB80784BAD
:103CA0001B6806339B007A681344FB607B681B79B2
:103CB000062B00F2DF8001A252F823F0D93C000865
:103CC0001D3D0008613D0008A53D0008E93D0008D4
:103CD000293E0008693E00087B689B68002B05D1DF
:103CE0007B681B691A78FB681A7016E07B681B7B7F
:103CF0001A4601239340DBB23B727B681B691A783A
:103D00003B7A1340DBB2002B03D0FB6801221A7010
:103D100003E0FB6800221A70ACE0ABE07B689B68B4
:103D2000002B05D17B681B691A78FB681A7016E0B6
:103D30007B681B7B1A4601239340DBB23B727B6896
:103D40001B691A783B7A1340DBB2002B03D0FB6867
:103D500001221A7003E0FB6800221A708AE089E0F1
:103D60007B689B68002B05D17B681B691A88FB6800
:103D70001A8016E07B681B7B1A46012393409BB296
:103D80003B817B681B691A883B8913409BB2002BDF
:103D900003D0FB6801221A8003E0FB6800221A802E
:103DA00068E067E07B689B68002B05D17B681B6936
:103DB0001A88FB681A8016E07B681B7B1A46012371
:103DC00093409BB23B817B681B691A883B891340F7
:103DD0009BB2002B03D0FB6801221A8003E0FB6832
:103DE00000221A8046E045E07B689B68002B05D1E5
:103DF0007B681B691A68FB681A6014E07B681B7B90
:103E00001A4601239340BB607B681B691A68BB6834
:103E10001340002B03D0FB6801221A6003E0FB680B
:103E200000221A6026E025E07B689B68002B05D104
:103E30007B681B691A68FB681A6014E07B681B7B4F
:103E40001A4601239340BB607B681B691A68BB68F4
:103E50001340002B03D0FB6801221A6003E0FB68CB
:103E600000221A6006E005E07B681B691A68FB689F
:103E70001A6000BF1437BD465DF8047B704700BF71
:103E8000A080002080B400AF0A4B1B680A4A136070
:103E9000084B1B680133074A1360064B1B68B3F5D8
:103EA0007A7F02D3034B00221A60BD465DF8047B83
:103EB000704700BFA08000209C80002080B485B0A7
:103EC00000AF904B1B78013B072B2BD801A252F877
:103ED00023F000BFF53E0008FB3E0008013F00084C
:103EE000073F00080D3F0008133F0008193F000876
:103EF0001F3F0008844BFB601AE0844BFB6017E017
:103F0000834BFB6014E0834BFB6011E0824BFB6052
:103F10000EE0824BFB600BE0814BFB6008E0814BC5
:103F2000FB6005E0784BFB60764B01221A7000BF06
:103F30007D4B00221A60FB681B68012B40F0088350
:103F40007A4B1B6806339B00FA681344BB60784BBE
:103F50001B6806339B00FA6813447B60754B1B6833
:103F6000012B40F08781FB681B79062B00F2F08261
:103F700001A252F823F000BF953F0008F33F00086C
:103F80005D400008BB4000085F410008BD410008DB
:103F90001B420008FB689B68002B19D1BB681A788C
:103FA0007B681B789A4223D2BB681A78FB681B7D1A
:103FB0009A421DD87B681A78FB681B7D9A4217D3FA
:103FC000594B01221A605A4B1B685B4A136050E13F
:103FD000BB681B78002B0BD17B681B78002B07D0AC
:103FE000514B01221A60524B1B68534A136040E147
:103FF0003FE1FB689B68002B1FD1BB681A787B6888
:104000001B7852B25BB29A4227DABB681A78FB6817
:104010001B7D52B25BB29A421FDC7B681A78FB6848
:104020001B7D52B25BB29A4217DB3F4B01221A60F2
:104030003F4B1B68404A13601BE1BB681B78002B99
:104040000BD17B681B78002B07D0374B01221A60FD
:10405000374B1B68384A13600BE10AE1FB689B6829
:10406000002B19D1BB681A887B681B889A4223D21F
:10407000BB681A88FB689B8A9A421DD87B681A889D
:10408000FB689B8A9A4217D3274B01221A60284B60
:104090001B68294A1360ECE0BB681B88002B0BD11E
:1040A0007B681B88002B07D01F4B01221A60204B16
:1040B0001B68214A1360DCE0DBE0FB689B68002B97
:1040C0003CD1BB681A887B681B8812B21BB29A422B
:1040D00044DABB681A88FB689B8A12B21BB29A4208
:1040E0003CDC7B681A88FB689B8A12B21BB29A423E
:1040F00034DB0D4B01221A600D4B1B680E4A136016
:10410000B7E000BF91800020D0020020881200207C
:1041100040220020F8310020B041002068510020EA
:1041200020610020D8700020F08000209C800020BA
:10413000A080002098800020F8800020BB681B88A9
:10414000002B0BD17B681B88002B07D0864B0122EC
:104150001A60864B1B68864A13608AE089E0FB6818
:104160009B68002B19D1BB681A687B681B689A4250
:1041700023D2BB681A68FB685B699A421DD87B68CA
:104180001A68FB685B699A4217D3774B01221A6061
:10419000764B1B68764A13606BE0BB681B68002B8C
:1041A0000BD17B681B68002B07D06F4B01221A6074
:1041B0006E4B1B686E4A13605BE05AE0FB689B68BD
:1041C000002B19D1BB681A687B681B689A4223DAF6
:1041D000BB681A68FB685B699A421DDC7B681A68D9
:1041E000FB685B699A4217DB5F4B01221A605F4BE9
:1041F0001B685F4A13603CE0BB681B68002B0BD157
:104200007B681B68002B07D0574B01221A60574B65
:104210001B68574A13602CE02BE0BB6893ED007AD3
:104220007B68D3ED007AB4EEE77AF1EE10FA00D4B1
:104230001EE0BB6893ED007AFB68D3ED057AB4EE1F
:10424000E77AF1EE10FA00D912E07B6893ED007A7C
:10425000FB68D3ED057AB4EEE77AF1EE10FA00DAF6
:1042600006E0414B01221A60404B1B68404A136034
:1042700000BF6DE1FB681B79062B00F2698101A28A
:1042800052F823F0A1420008FF42000875430008DD
:10429000D34300083D4400089B440008F94400084B
:1042A000FB689B68002B19D1BB681A787B681B7868
:1042B0009A4223D9BB681A78FB681B7D9A421DD3AA
:1042C0007B681A78FB681B7D9A4217D8264B01221F
:1042D0001A60264B1B68264A136039E1BB681B78BD
:1042E000002B0BD07B681B78002B07D11E4B0122C3
:1042F0001A601E4B1B681E4A136029E128E1FB6807
:104300009B68002B1FD1BB681A787B681B7852B260
:104310005BB29A4227DDBB681A78FB681B7D52B2FC
:104320005BB29A421FDB7B681A78FB681B7D52B236
:104330005BB29A4217DC0C4B01221A600B4B1B68D4
:104340000B4A136004E1BB681B78002B0BD07B6821
:104350001B78002B07D1044B01221A60034B1B680A
:10436000034A1360F4E0F3E0F0800020A080002016
:10437000F8800020FB689B68002B19D1BB681A8865
:104380007B681B889A4223D9BB681A88FB689B8A82
:104390009A421DD37B681A88FB689B8A9A4217D879
:1043A0006E4B01221A606E4B1B686E4A1360CFE0A1
:1043B000BB681B88002B0BD07B681B88002B07D1A8
:1043C000664B01221A60664B1B68664A1360BFE0A9
:1043D000BEE0FB689B68002B1FD1BB681A887B6816
:1043E0001B8812B21BB29A4227DDBB681A88FB6891
:1043F0009B8A12B21BB29A421FDB7B681A88FB6849
:104400009B8A12B21BB29A4217DC544B01221A60EB
:10441000534B1B68534A13609AE0BB681B88002B00
:104420000BD07B681B88002B07D14C4B01221A60F4
:104430004B4B1B684B4A13608AE089E0FB689B6822
:10444000002B19D1BB681A687B681B689A4223D974
:10445000BB681A68FB685B699A421DD37B681A685F
:10446000FB685B699A4217D83C4B01221A603C4BAF
:104470001B683C4A13606BE0BB681B68002B0BD0C9
:104480007B681B68002B07D1344B01221A60344B28
:104490001B68344A13605BE05AE0FB689B68002BA2
:1044A00019D1BB681A687B681B689A4223DDBB6818
:1044B0001A68FB685B699A421DDB7B681A68FB68B7
:1044C0005B699A4217DC254B01221A60244B1B685A
:1044D000244A13603CE0BB681B68002B0BD07B6850
:1044E0001B68002B07D11D4B01221A601C4B1B6857
:1044F0001C4A13602CE02BE0BB6893ED007A7B68CC
:10450000D3ED007AB4EEE77AF1EE10FA00DC1FE0AA
:10451000BB6893ED007AFB68D3ED057AB4EEE77AD9
:10452000F1EE10FA00DA13E07B6893ED007AFB6895
:10453000D3ED057AB4EEE77AF1EE10FA00D907E090
:10454000064B01221A60064B1B68064A136000BF27
:104550001437BD465DF8047B704700BFF080002033
:10456000A0800020F880002008B52DED028B08EE19
:10457000900A08EE101A00F043F820B918EE100A5D
:10458000BDEC028B08BD18EE100A00F039F858B1E6
:10459000F4EEC88AF1EE10FAD4BF18EE100A18EE45
:1045A000900ABDEC028B08BD18EE900ABDEC028BA0
:1045B00008BD00BF08B52DED028B08EE900A08EE8D
:1045C000101A00F01DF820B918EE100ABDEC028B8D
:1045D00008BD18EE100A00F013F858B1F4EEC88ABE
:1045E000F1EE10FA54BF18EE100A18EE900ABDEC66
:1045F000028B08BD18EE900ABDEC028B08BD00BF0F
:1046000030F0004001D102207047A0F50003B3F163
:10461000FE4F01D204207047054B421E9A4201D83A
:1046200003207047A0F1FF40B0FA80F040097047C6
:10463000FEFF7F0070B50E4B0E4CE41AA41000254F
:104640001E46A54204D056F8253098470135F8E7B4
:10465000FDF7CEF9084C094BE41AA41000251E46BC
:10466000A54204D056F8253098470135F8E770BDCB
:10467000BC010020BC010020BC010020BC010020C6
:104680000044004000480040004C00400050004002
:10469000000000000000000000000000000000001A
:1046A000980000000000010004000000000000006D
:1046B0000000000000000000000000009800000062
:1046C00000000100040000000000000000000000E5
:1046D0000000000000000000980000000000010041
:1046E00004000000000000000000000000000000C6
:1046F000000000009800000000000100040000001D
:104700003F3F00010000000000000000000000002A
:104710000000000000000000000000000000000099
:104720000000000000000000000000000000000089
:104730000000000000000000000000000000000079
:104740000000000000000000000000000000000069
:104750000000000000000000030000000000000056
:10476000000000000000000000000000008102487E
:1047700080000000000001000000000000000000B8
:1047800000810248800000000000010000000000DD
:1047900001000000008502488000000000000100C8
:1047A000000000000700000000810248080000002F
:1047B00000000000000000000F0000000080024820
:1047C000800000000000010000000000090000005F
:1047D000008002488000000000000100000000008E
:1047E0000800000000800248800000000000010076
:1047F000000000000C000000008002488000000063
:1048000000000100000000000200000000830248D8
:10481000080000000000000000000000030000008D
:10482000008302488000000000000100000000003A
:104830000200000000000000920E493CB10AC93C91
:104840002BC3163D2EFB483D752B7B3D04A9963DA1
:1048500080B6AF3D36BDC83D2FBCE13D73B2FA3DD9
:1048600087CF093E8340163EB5AB223EA2102F3EB5
:10487000CF6E3B3EC2C5473E0115543E135C603EC1
:104880007F9A6C3ECCCF783EC07D823E938E883E30
:10489000229A8E3E32A0943E86A09A3EE59AA03E91
:1048A000128FA63ED47CAC3EEF63B23E2A44B83EA3
:1048B000491DBE3E15EFC33E53B9C93ECA7BCF3E2C
:1048C0004136D53E80E8DA3E4F92E03E7533E63E13
:1048D000BBCBEB3EEA5AF13ECBE0F63E275DFC3E19
:1048E000E4E7003F3D9C033F824B063F9BF5083FBA
:1048F0006B9A0B3FDA390E3FCDD3103F2A68133F36
:10490000D9F6153FC07F183FC6021B3FD17F1D3F20
:10491000CBF61F3F9967223F25D2243F5636273FCB
:104920001594293F4AEB2B3FDE3B2E3FBB85303FA2
:10493000C9C8323FF304353F233A373F4268393F15
:104940003B8F3B3FF9AE3D3F67C73F3F70D8413F8C
:1049500001E2433F03E4453F65DE473F12D1493F53
:10496000F8BB4B3F029F4D3F207A4F3F3D4D513F9B
:104970004918533F31DB543FE595563F5348583F64
:104980006AF2593F1A945B3F532D5D3F05BE5E3F6F
:104990002146603F97C5613F5A3C633F59AA643F37
:1049A000880F663FD86B673F3CBF683FA7096A3FE7
:1049B0000C4B6B3F5E836C3F93B26D3F9ED86E3F56
:1049C00073F56F3F0809713F5213723F4714733FED
:1049D000DD0B743F0BFA743FC6DE753F07BA763FB6
:1049E000C58B773FF853783F9812793F9DC7793F41
:1049F00002737A3FBE147B3FCDAC7B3F283B7C3FAC
:104A0000C9BF7C3FAC3A7D3FCCAB7D3F23137E3F9B
:104A1000B0707E3F6DC47E3F580E7F3F6D4E7F3F2E
:104A2000AB847F3F0FB17F3F97D37F3F43EC7F3F06
:104A300011FB7F3F0000803F11FB7F3F43EC7F3F36
:104A400097D37F3F0FB17F3FAB847F3F6D4E7F3F5A
:104A5000580E7F3F6DC47E3FB0707E3F23137E3F74
:104A6000CCAB7D3FAC3A7D3FC9BF7C3F283B7C3F10
:104A7000CDAC7B3FBE147B3F02737A3F9DC7793F2D
:104A80009812793FF853783FC58B773F07BA763F46
:104A9000C6DE753F0BFA743FDD0B743F4714733F5E
:104AA0005213723F0809713F73F56F3F9ED86E3FF6
:104AB00093B26D3F5E836C3F0C4B6B3FA7096A3F1F
:104AC0003CBF683FD86B673F880F663F59AA643F79
:104AD0005A3C633F97C5613F2146603F05BE5E3F3C
:104AE000532D5D3F1A945B3F6AF2593F5348583F3C
:104AF000E595563F31DB543F4918533F3D4D513FFB
:104B0000207A4F3F029F4D3FF8BB4B3F12D1493FA8
:104B100065DE473F03E4453F01E2433F70D8413F34
:104B200067C73F3FF9AE3D3F3B8F3B3F4268393F50
:104B3000233A373FF304353FC9C8323FBB85303F86
:104B4000DE3B2E3F4AEB2B3F1594293F5636273F3D
:104B500025D2243F9967223FCBF61F3FD17F1D3FCF
:104B6000C6021B3FC07F183FD9F6153F2A68133F86
:104B7000CDD3103FDA390E3F6B9A0B3F9BF5083FC0
:104B8000824B063F3D9C033FE4E7003F275DFC3E30
:104B9000CBE0F63EEA5AF13EBBCBEB3E7533E63E48
:104BA0004F92E03E80E8DA3E4136D53ECA7BCF3EAA
:104BB00053B9C93E15EFC33E491DBE3E2A44B83E17
:104BC000EF63B23ED47CAC3E128FA63EE59AA03E87
:104BD00086A09A3E32A0943E229A8E3E938E883EC4
:104BE000C07D823ECCCF783E7F9A6C3E135C603EA7
:104BF0000115543EC2C5473ECF6E3B3EA2102F3E2C
:104C0000B5AB223E8340163E87CF093E73B2FA3DD4
:104C10002FBCE13D36BDC83D80B6AF3D04A9963DF1
:104C2000752B7B3D2EFB483D2BC3163DB10AC93C7D
:104C3000920E493C00000000920E49BCB10AC9BC6A
:104C40002BC316BD2EFB48BD752B7BBD04A996BD9D
:104C500080B6AFBD36BDC8BD2FBCE1BD73B2FABDD5
:104C600087CF09BE834016BEB5AB22BEA2102FBEB1
:104C7000CF6E3BBEC2C547BE011554BE135C60BEBD
:104C80007F9A6CBECCCF78BEC07D82BE938E88BE2C
:104C9000229A8EBE32A094BE86A09ABEE59AA0BE8D
:104CA000128FA6BED47CACBEEF63B2BE2A44B8BE9F
:104CB000491DBEBE15EFC3BE53B9C9BECA7BCFBE28
:104CC0004136D5BE80E8DABE4F92E0BE7533E6BE0F
:104CD000BBCBEBBEEA5AF1BECBE0F6BE275DFCBE15
:104CE000E4E700BF3D9C03BF824B06BF9BF508BFB6
:104CF0006B9A0BBFDA390EBFCDD310BF2A6813BF32
:104D0000D9F615BFC07F18BFC6021BBFD17F1DBF1C
:104D1000CBF61FBF996722BF25D224BF563627BFC7
:104D2000159429BF4AEB2BBFDE3B2EBFBB8530BF9E
:104D3000C9C832BFF30435BF233A37BF426839BF11
:104D40003B8F3BBFF9AE3DBF67C73FBF70D841BF88
:104D500001E243BF03E445BF65DE47BF12D149BF4F
:104D6000F8BB4BBF029F4DBF207A4FBF3D4D51BF97
:104D7000491853BF31DB54BFE59556BF534858BF60
:104D80006AF259BF1A945BBF532D5DBF05BE5EBF6B
:104D9000214660BF97C561BF5A3C63BF59AA64BF33
:104DA000880F66BFD86B67BF3CBF68BFA7096ABFE3
:104DB0000C4B6BBF5E836CBF93B26DBF9ED86EBF52
:104DC00073F56FBF080971BF521372BF471473BFE9
:104DD000DD0B74BF0BFA74BFC6DE75BF07BA76BFB2
:104DE000C58B77BFF85378BF981279BF9DC779BF3D
:104DF00002737ABFBE147BBFCDAC7BBF283B7CBFA8
:104E0000C9BF7CBFAC3A7DBFCCAB7DBF23137EBF97
:104E1000B0707EBF6DC47EBF580E7FBF6D4E7FBF2A
:104E2000AB847FBF0FB17FBF97D37FBF43EC7FBF02
:104E300011FB7FBF000080BF11FB7FBF43EC7FBF32
:104E400097D37FBF0FB17FBFAB847FBF6D4E7FBF56
:104E5000580E7FBF6DC47EBFB0707EBF23137EBF70
:104E6000CCAB7DBFAC3A7DBFC9BF7CBF283B7CBF0C
:104E7000CDAC7BBFBE147BBF02737ABF9DC779BF29
:104E8000981279BFF85378BFC58B77BF07BA76BF42
:104E9000C6DE75BF0BFA74BFDD0B74BF471473BF5A
:104EA000521372BF080971BF73F56FBF9ED86EBFF2
:104EB00093B26DBF5E836CBF0C4B6BBFA7096ABF1B
:104EC0003CBF68BFD86B67BF880F66BF59AA64BF75
:104ED0005A3C63BF97C561BF214660BF05BE5EBF38
:104EE000532D5DBF1A945BBF6AF259BF534858BF38
:104EF000E59556BF31DB54BF491853BF3D4D51BFF7
:104F0000207A4FBF029F4DBFF8BB4BBF12D149BFA4
:104F100065DE47BF03E445BF01E243BF70D841BF30
:104F200067C73FBFF9AE3DBF3B8F3BBF426839BF4C
:104F3000233A37BFF30435BFC9C832BFBB8530BF82
:104F4000DE3B2EBF4AEB2BBF159429BF563627BF39
:104F500025D224BF996722BFCBF61FBFD17F1DBFCB
:104F6000C6021BBFC07F18BFD9F615BF2A6813BF82
:104F7000CDD310BFDA390EBF6B9A0BBF9BF508BFBC
:104F8000824B06BF3D9C03BFE4E700BF275DFCBE2C
:104F9000CBE0F6BEEA5AF1BEBBCBEBBE7533E6BE44
:104FA0004F92E0BE80E8DABE4136D5BECA7BCFBEA6
:104FB00053B9C9BE15EFC3BE491DBEBE2A44B8BE13
:104FC000EF63B2BED47CACBE128FA6BEE59AA0BE83
:104FD00086A09ABE32A094BE229A8EBE938E88BEC0
:104FE000C07D82BECCCF78BE7F9A6CBE135C60BEA3
:104FF000011554BEC2C547BECF6E3BBEA2102FBE28
:10500000B5AB22BE834016BE87CF09BE73B2FABDD0
:105010002FBCE1BD36BDC8BD80B6AFBD04A996BDED
:10502000752B7BBD2EFB48BD2BC316BDB10AC9BC79
:10503000920E49BC000000805002040100000100F3
:1050400000000000000001000101010100440040D7
:1050500000480040004C00400050004000002F007D
:105060000000000001010000000000005C5000088A
:10507000685000080000000000002400000000004C
:1050800001FF000000000000785000088450000874
:1050900000030000000025000000000001FF0000E8
:1050A0000000000094500008A05000080005000017
:1050B000000028000000000001FF000000000000C8
:1050C000B0500008BC5000080007000000000000BD
:1050D00000000000000000000000000000000000D0
:1050E000000000000000000000000000CC5000089C
:1050F0000100000020000000230000002500000047
:105100002700000070010020600100200000000066
:10511000D8500008800100200300040401000000B2
:10512000000020000000000001FF0000000000005F
:10513000205100082C5100080105000000002F003C
:105140000000000001FF0000000000003C510008CA
:105150004851000801070000000023000000000083
:1051600001FF0000000000005851000864510008D1
:105170000106000000000000000000000000000028
:10518000000000000000000000000000000000001F
:10519000000000007451000801000000250000001C
:1051A000270000002600000090010020840100205C
:1051B00000000000805100089C010020030103034F
:0451C00001000000EA
:1051C400D000002000000240000102409046000888
:1051D40000800248A0460008E02E0000DF2E0000F8
:1051E40000000000050000000102000005000000AE
:1051F40000000000D0000020000002400002024035
:10520400AC46000800800248BC460008E02E0000BE
:10521400DF2E00000000000050000000010200002A
:105224000400010000000000D00000200000024043
:1052340000040240C846000800800248D84600081E
:10524400E02E0000DF2E00000000000000500000EF
:10525400010200000600030000000000D00000204E
:105264000000024000030240E446000800800248B7
:10527400F446000870170000DF2E000088130000B9
:105284000005000001020300030002000100000009
:10529400000E27070001000000000240000000008B
:1052A4000044004004470008010200000048004098
:1052B4001847000801020000004C00402C47000879
:1052C40001020000005000404047000801020000B5
:1052D400E0000020EC000020F80000200401002081
:1052E4005447000800400040020100000000800014
:1052F40000000000008001482C0100200000100084
:105304000000000000000000000000000000000099
:105314000000000000000000000000000100000088
:10532400F4500008F8500008FC5000080051000830
:105334006C50000888500008A4500008C0500008B1
:10534400020000009C510008A0510008A45100086C
:10535400305100084C510008685100080200000058
:1053640063149D430000803F000000000000003FE4
:0C537400E8030800010000000100000038
:0400000508000201EC
:00000001FF
