:020000040C00EE
:100000000008001001020008B1020008B102000857
:10001000B1020008B1020008B102000800000000AF
:10002000000000000000000000000000B102000815
:10003000B102000800000000B1020008B10200088F
:10004000B1020008B1020008B1020008B1020008C4
:10005000B1020008B1020008B1020008B1020008B4
:10006000B1020008000000000000000000000000D5
:10007000B102000800000000B1020008B10200084F
:10008000B1020008B1020008B1020008B102000884
:10009000B1020008B1020008B1020008B102000874
:1000A000B1020008B1020008B1020008B102000864
:1000B000B1020008B1020008B1020008B102000854
:1000C000B1020008B1020008B1020008B102000844
:1000D000B1020008B1020008B1020008B102000834
:1000E000B1020008B1020008B1020008B102000824
:1000F000B1020008B1020008B1020008B102000814
:10010000B1020008B1020008B1020008B102000803
:10011000B1020008B1020008B1020008B1020008F3
:10012000B1020008B1020008B1020008B1020008E3
:10013000B1020008B1020008B1020008811D0008E8
:10014000B1020008B1020008B1020008B1020008C3
:10015000B1020008B1020008B1020008B1020008B3
:10016000000000000000000000000000000000008F
:10017000B1020008B1020008B1020008B102000893
:10018000B1020008B1020008B1020008B102000883
:10019000B1020008B1020008B1020008B102000873
:1001A000B1020008B1020008B1020008B102000863
:1001B000B1020008B1020008B1020008B102000853
:1001C000B1020008B1020008B1020008B102000843
:1001D000B1020008B1020008B102000800000000EE
:1001E000B1020008B1020008B1020008B102000823
:1001F000B102000800000000B10200080000000089
:10020000DFF88CD023488047234C244DAC4209DAD8
:1002100021686268A368043BA2BFC858D050FAE7BF
:100220000C34F3E71E4B1F4CA34208DA19685A68D6
:100230000020043AA4BF8850FBE70833F4E71A48CB
:1002400080471A4880470000C041000C0000002091
:10025000880200004844000C00000030000000004C
:10026000C041000C0008001000000000C041000C5C
:10027000000800100000000088020020E87F000055
:100280000000003000000000000800100000000026
:10029000000800103D03000848020008780200082A
:1002A0007802000890020008493500084924000837
:1002B000FEE700001D4BDB68D90310B525D51C4BAC
:1002C000DA6812F0010F1C4602D101F05FF800E07D
:1002D00018482268164B520710D59A6899689B688F
:1002E000C2F30362C3F30644531C04FB0333B0FBA5
:1002F000F3F0C1F3062303FB000007E09B6803F063
:100300007F030133B0FBF3F000E00A48074AD368EB
:10031000DBB20133B0FBF3F0136903F001030133E7
:10032000B0FBF3F0044B186010BD00BF0046005056
:100330001047005000366E01C0FF002038B5094A52
:10034000094D4FF00054234603CBAB42106051607F
:100350001C4602F10802F6D100F048FF01F01AF83D
:1003600038BD00BFC4FF00201000002001F0FC03D6
:100370000344F0B501F003041E69E400F825A5402C
:1003800026EA05051D61466F4F000325BD4026EA9C
:1003900005054567144DA84203D005F58075A842B0
:1003A00007D1056E012606FA01F125EA0101016671
:1003B00014E055688D404560CD0800EB850001F0E4
:1003C0000701066C890007258D4026EA05050564AE
:1003D000167A056C06FA01F129430164127819694D
:1003E000A2400A431A61F0BD008E024810B50446CF
:1003F000FFF760FF064B07481B68B3FBF0F303FBF6
:1004000004F00023834202D000BF0133FAE710BD9D
:10041000C0FF002040420F00020F0C235343024A4A
:1004200020F07040985070471444005020F0704203
:100430000C23000F584303F1A04303F58843C3582E
:100440001A4214BF0120002070470000034B044AE9
:100450005B69106803F00103D84070470046005004
:10046000C0FF0020034AD36823F480331843D060D0
:10047000704700BF00460050034A936923F480335D
:1004800018439061704700BF00460050034A536A0A
:1004900023F4403318435062704700BF00460050B9
:1004A000064AD36820B923F4807323F0010303E0E4
:1004B00043F4807343F00103D3607047104700504A
:1004C000054BD3F8C4301B07FAD4044AD36823F091
:1004D00040031843D0607047004000500043005074
:1004E000054BD3F8C4301B07FAD4044AD36823F071
:1004F00080031843D0607047004000500043005014
:10050000034AD368013823F0FF030343D3607047E5
:1005100000460050034A136A013823F001030343E5
:100520001362704700460050034A1369013823F0F4
:10053000010303431361704700460050034A5369A7
:10054000013823F001030343536170470046005014
:10055000034A9369013823F007030343936170470B
:1005600000460050034AD369013823F03F03034398
:10057000D361704700460050034A536A013823F0A4
:10058000FF0303435362704700460050014B58601D
:10059000704700BF004600500F4B5A6942F00102FD
:1005A0005A615A6901380139000642F0100240EAE6
:1005B00001215A6159615A6942F040025A615A69EF
:1005C00022F010025A615A6942F480225A611A6973
:1005D0005207FCD5704700BF1047005010B50B4CB8
:1005E0006368012843F4801363600AD1636823F4CD
:1005F000801363606420FFF7F9FE636843F400230F
:1006000063606420BDE81040FFF7F0BE1047005063
:100610000A4B1A68D20704D5094B1A68900506D40C
:10062000704701225A601A68D107FCD5F4E74FF4ED
:1006300000729A601A689205FCD47047004200501C
:1006400000440050034B186880F00800C0F3C0005D
:10065000704700BF004300500E4BD3F8C42012F087
:10066000800F1A46F8D103F54073D96921F03001A3
:10067000D961D2F8C4100907FBD4DA6842F0080245
:10068000DA60044BD3F8C4305B07FAD4024B08227B
:100690009A607047004000500043005070B50C4D08
:1006A0000C4E6B6823F480336B60746800F06EFE50
:1006B000094BB0FBF3F024F47023013823F030032E
:1006C00043EA004373606B6823F400336B6070BDD2
:1006D0001047005000470050A0252600044B186822
:1006E00000F46070A0F5607358425841704700BF35
:1006F00010470050034A536823F4803323F0020369
:100700005360704710470050034A536843F48033E6
:1007100043F002035360704710470050054A936846
:10072000013823F4FE0343EA004393603220FFF7CD
:100730005DBE00BF104700502DE9F0410C46054654
:1007400090461F46069EFFF7ABFE012C314C52D15E
:1007500035B900F01BFE304DB0FBF5F0800501E02F
:100760004FF0C060636843F001036360636843F067
:1007700010036360A168294B08F1FF320B4043EA84
:1007800002637A1E43EA022278431823B0FBF8F58D
:10079000B5FBF3F39B0D013B42EA0343A36063689F
:1007A00043F040036360636823F010036360636891
:1007B00043F4802363602368164A5907FBD55368C6
:1007C00023F0010353602368DA07FCD43C20B5FB17
:1007D000F0F0800D864201D2FFF7A0FF5A20B5FB52
:1007E000F0F0800D864201D2FFF798FF3046BDE859
:1007F000F041FFF793BFA368013E23F07F031E4340
:10080000A660636843F0010363602368DB07FCD5DF
:10081000BDE8F0811047005040420F00FF8080F09B
:1008200037B504460020FFF71DFEFFF7F1FEE37920
:10083000A3B9607AFFF754FE207AFFF7CFFE207C41
:10084000FFF75EFE607CFFF76FFEA07CFFF762FEA5
:10085000E07CFFF773FEA3796BB106E0FFF7FCFEC7
:10086000FFF7F0FE0028FBD0E3E7FFF717FFFFF7E5
:1008700035FF0028FBD0E37813B9FFF745FF09E007
:10088000FFF738FFA578A088E17862782378009593
:10089000FFF752FFE068B0F5803F01D1FFF7E2FDBE
:1008A00003B0BDE83040FFF705BD000010B50446B9
:1008B0001020FFF76BFE074B9C4201D1802004E023
:1008C000054B9C4205D14FF48070BDE81040FFF706
:1008D000A3BD10BD000002400040024038B50446F0
:1008E0000D46FFF7E3FFE36843F48073E36023689A
:1008F00023F4404343EA8531216038BD012303617D
:100900000B6843614B7BC3F300131B0543600B7BF8
:1009100003F00F0343620B7B1B09C3624B7B03F0A5
:100920000F0303624B6883618B6883F01403836455
:1009300070474163704709B9C263704742647047AA
:10094000092930B59CBF094C094DD0F8A83099BF92
:1009500034F81140695C0C214FF4405423EA04033D
:100960008A401A43C0F8A82030BD00BF9435000863
:10097000A835000870B50D46164604460748FFF72F
:100980004BFD04EBC5003368436073688360012D41
:100990009EBF836843F08073836070BD20000010A9
:1009A00070B5144605460E46FFF750FDB0FBF4F057
:1009B0000F280BD9B0F5801F0AD205EBC6014C6891
:1009C000230D1B0503434B60002070BD042070BD48
:1009D000032070BD0B1D00EB830370B55E68C36917
:1009E0000C01E340C3F30B039B1B03FB0222BDE896
:1009F0007040FFF7D5BF00EBC10100204B6823F426
:100A0000E00343F480134B60704738B500EBC1043A
:100A1000656825F4E0056560154662B1A26822F4B8
:100A2000CE222A43A260636823F4E00343F4001358
:100A30006360002038BD1A46FFF7B2FF0028EDD0F2
:100A400038BDF8B50EB200EBC6040D46D4F804C0AC
:100A5000DDF818E0043500EB85052CF4E00CC4F853
:100A600004C06A60C569320140F6FF76964025EA07
:100A7000060593402B43C361A36823F4CE234EEABB
:100A80000303A360BEF1000F07D0636823F4E00303
:100A900043F4A00363600020F8BD079AFFF79AFFB4
:100AA0000028F2D0F8BD38B500EBC104656825F424
:100AB000E0056560154662B1A26822F4CE222A43A1
:100AC000A260636823F4E00343F4800363600020C2
:100AD00038BD1A46FFF764FF0028EDD038BD70B569
:100AE00014780123D55C03EB83060133B540062B54
:100AF00044EA0504F6D100EBC10101230C6212F8AF
:100B0000060F12F8014F03EB83050133AC40062BAF
:100B100040EA0400F5D1486270BD2DE9F84300EBCE
:100B2000C10498466368089D23F4E00306460F4617
:100B3000914663605DB1304639464A46FFF7CFFFC4
:100B4000B8F1010F09D1636843F0005308E0099A36
:100B50005201FFF725FF80B9EDE7636823F00053EA
:100B60006360A36823F4CE232B43A360636823F45C
:100B7000E00343F4401363600020BDE8F883436F53
:100B8000490010B503248C4023EA04034367436FF4
:100B90008A401343436710BD0120FFF73DBC38B5C1
:100BA0000D460446FFF7F8FF6B6923606B6843F45A
:100BB0000043C4F88030AB68C4F8A030EB68C4F8D8
:100BC000A4302B69C4F880322B68C4F8B83038BD23
:100BD000D0F8803043F00043C0F880300023084A4A
:100BE00052F82320D2F8801011F4403F04D0D2F8FC
:100BF000801011F0805FF9E70133042BEFD17047CB
:100C0000B4350008F0B542B901F01F051F26C1F345
:100C100002214FF4E06E082709E0C1F304454FF4C8
:100C2000F816C1F302614FF0E06E1022182700EBB6
:100C30008303B940D3F8A04024EA0E04214321EAFB
:100C4000060195402943C3F8A010F0BDF8B5002275
:100C50000C46054613464968FFF7D4FF28466168ED
:100C600001220023FFF7CEFF2846A16800220123BE
:100C7000FFF7C8FF012213462846A168FFF7C2FF0D
:100C8000A0782369C5F8803000F01F062078E3685B
:100C9000E178C5F8B83000F0070040EA0640C5F832
:100CA000F001D5F8F021C1F3001742F00042C1F382
:100CB000810342EA0772C1F3401142EA836343EAC7
:100CC0004173C5F8F031F8BDD0F8803023F003034C
:100CD0001943C0F880107047D0F8C0308A4288BFEE
:100CE000013123F003031943C0F8C0107047D0F856
:100CF000C03023F00303C0F8C03070470C4BC21A59
:100D0000534253410B4A904205D002F58062904213
:100D100008BF032300E00223994238BF0131D0F815
:100D2000C020033101238B401343C0F8C03070470B
:100D300000480040004C0040D0F884300A7823F08E
:100D40008073C0F88430D0F8843010B523F00303EA
:100D5000C2F38104234312F0030218BF43F00803D7
:100D6000C0F884304B6843F0802343F40003C0F89C
:100D700000318B6843F00103C0F80431022A02BF3E
:100D8000D0F8043143F48033C0F80431D0F8843013
:100D900043F08073C0F8843010BDD0F8C03123F028
:100DA0000F031943C0F8C011704730B50123D0F8C4
:100DB00088508B4025EA0304137A8B402343C0F804
:100DC000883092F90930002B19DB012907D1D0F8BE
:100DD000B03023F4F853C0F8B030082507E029B943
:100DE000D0F8B03023F01F03C0F8B030002592F9DE
:100DF0000930D0F8B040AB402343C0F8B030D0F851
:100E0000C84053682343C0F8C8308031136840F8A5
:100E1000213030BD704790F8303010B5044663B1D2
:100E20008268D2F8A43043F00103C2F8A43080688D
:100E300094F82A200021FFF783FD94F8313073B134
:100E4000A268D2F8A43043F00403C2F8A430A0682A
:100E500094F82B200221BDE81040FFF771BD10BDB2
:100E600090F8293013F0FB0F10B50DD1416890F8C0
:100E70002E40CB68012202FA04F42343CB6083683E
:100E8000DA60032380F8293010BD90F82930022B56
:100E900010B50FD0826801231361826802211161AD
:100EA000416890F82E408A68A34013438B60042366
:100EB00080F8293010BD90F82930022B10B5044677
:100EC00017D042F21070814213D8E2692162C1F555
:100ED0001C53103302FB03330021B3FBF0F2A06874
:100EE000A26192B2FFF727FD6368626A1A6100206F
:100EF00010BD012010BD90F82830012B01D1FFF763
:100F0000AFBF704770B590F82960022E044629D112
:100F1000006800F089F8054608BBA068E168FFF7A3
:100F2000EDFCA068A18BFFF704FD2946A068228B89
:100F3000FFF701FD6368626A1A612046FFF76BFFE5
:100F4000206994F82C106269FFF710FA94F82F309A
:100F500084F829503BB12046FFF7CDFF03E084F829
:100F6000296000E00125284670BD90F82830012B4B
:100F700001D1FFF7C7BF0120704790F82830012B3F
:100F800001D1FFF782BF704790F82830012B01D1C3
:100F9000FFF791BF01207047204BF0B5D968057865
:100FA00042788778C1F30221C1F1070EBEF1060F26
:100FB00028BF4FF0060E01B10139012404FA01F3F4
:100FC000013B04FA0EF403EA0706631E13408B404C
:100FD0006AB2002A43EA06034FEA8303AFBF02F175
:100FE000604205F00F050E4ADBB2A5BF02F5614273
:100FF000DBB2535582F80033C3786BB1027853B239
:10100000002BA1BF012102F01F0201FA02F25B09CD
:10101000A4BF044941F823200020F0BD00ED00E00A
:1010200014ED00E000E100E0437B10B5044653B945
:101030008068217BFFF752FCA268D36843F4807379
:10104000D36001236373002010BDF8B5037E022B2B
:10105000044629D140692169FFF7A1FD271F002619
:1010600057F8043F93E80300FFF7F0FD3B680321C6
:101070001868FFF729FE39680B7A4BB9606906F1E9
:101080001005D0F880200123AB401343C0F8803016
:1010900001360023042E4B721D46E1D1637E13B14D
:1010A0006069FFF795FD2576207EF8BD10B50446F2
:1010B000221D217C0068FFF759F92068217C627CA1
:1010C000FFF75DFD002010BD8368B3F5401F13B529
:1010D00004460BD1C26890F82210037C009242694A
:1010E00001920068626AFFF718FD59E0B3F5801FAE
:1010F0000BD1006894F82210FFF77DFC94F82230A1
:101100002268043302EB83031CE0B3F5001F1CD1FB
:10111000E26894F8221063690068FFF776FC94F89F
:101120002030012B08BF94F82220236801BF03EB75
:10113000C202516841F08041516094F8222004328B
:1011400003EB820300225A602AE0B3F5A00F19D105
:1011500090F82210028B438BC06800906069019068
:101160002068FFF76EFC236894F82220616803EB87
:10117000C2020979936801F00F0123F00F030B43BA
:1011800093600DE0B3F5800F09D1006894F8221048
:10119000E268636902B0BDE81040FFF784BC00203C
:1011A00002B010BD10B50446006894F822106268C1
:1011B000FFF7E0FB2046FFF787FF94F8283043B99C
:1011C00094F82220236803EBC2035A6822F4E00259
:1011D0005A6094F82130012B01BF2268936843F4D0
:1011E00000439360003018BF012010BD194B1A4A0C
:1011F000D96821F4E0610904090C0A43DA6072B687
:10120000164A9A60BFF34F8F62B6D3F8882014480D
:1012100042F4700241F21401C3F88820425822F0CF
:101220000F0242F0030242505A6922F010025A6142
:101230005A6922F008025A615A6A22F480325A62CC
:101240005A6A22F400325A625A6A22F480225A629E
:10125000704700BF00ED00E00001FA050000000843
:101260000010005806EE900A9FED1C7A1C4AF5EE1D
:10127000007AE6EE877ABDEEE77AF5EEC07A17EEF1
:10128000103AF1EE10FA48BF03F1FF3307EE103ABF
:10129000B8EEC77A77EEC77A9FED127A67EE877A53
:1012A000BCEEE77A17EE103AC3F3080307EE103AE4
:1012B000B8EE477A02EB830177EEC77AD1ED016A87
:1012C000B7EE007A37EE677A67EEA67AD1ED006A5C
:1012D000E7EE267A17EE900A704700BF83F9223EA8
:1012E000903700080000004407EE900AF5EEC07A3F
:1012F000F1EE10FA06D59FED1F7AF4EEC77AF1EE03
:1013000010FA33DA9FED1C7A1C4A27EE877AF5EE45
:10131000C07AFDEEC76AF1EE10FA16EE903A48BFB9
:1013200003F1FF3307EE903AF8EEE77AF7EE006A42
:1013300037EE677ADFED127A67EE277ABCEEE77A4E
:1013400017EE103AC3F3080307EE103AB8EE477AE7
:1013500002EB830177EEC77A91ED017A76EEE76AC8
:1013600067EE877A91ED007AE6EE877A17EE900ABB
:10137000704700BFCD024CB483F9223E903700087D
:1013800000000044012303700020704700487047AC
:10139000001BB70030B5114D0FCD87B001AC0FC4A5
:1013A0002B68236001A8FFF73BFA0020FFF788F8BD
:1013B0000020FFF761F80420FFF7CAF82021012080
:1013C000FFF7EAF80020FFF761F80120FFF7D4F8F3
:1013D0000120FFF7C7F807B030BD00BF943F0008F9
:1013E000084B427D10B5446853F822100023827DDB
:1013F000934206D254F823201268C1F81021013319
:10140000F5E710BDA83F000810B513480021FFF70D
:101410005BFC12480021FFF757FC11480021FFF741
:1014200053FC10480021FFF74FFC03240E4B2246CB
:1014300053F824000021FFF74FFC21460948FFF72D
:101440005DFC013CF2D10748FFF751FC0548032140
:10145000BDE81040FFF738BC00500040004C004091
:101460000048004000440040A83F0008427D054B72
:1014700053F82220D2F8843043F08073C2F88430CD
:10148000704700BFA83F0008C3681A7B82B1027D85
:10149000032A0DD11A6853B2002BA1BF012102F01B
:1014A0001F0201FA02F25B09A4BF024941F823209E
:1014B000704700BF00E100E02DE9F84F03691B7899
:1014C000022B044640F09F800120FEF7AFFF504EF4
:1014D00038B9637D56F82330D3F88470C7F30067BA
:1014E00000E0002794F815904A48E568FFF7ADFD45
:1014F00056F82990AB7E2969002280464846FFF7BE
:1015000081FB69694846FFF717FCD9F80421297E59
:1015100022F00302C9F80421D9F804310B43C9F8B9
:1015200004312B7B002B38D03B4B2868D9686A6884
:10153000AB68C1F30221C1F1070BBBF1060F5FFAE3
:1015400080FE28BF4FF0060B01B101394FF0010CAE
:101550000CFA01FA0AF1FF3A0CFA0BFC0AEA030A48
:101560000CF1FF3313408B404FFA8EF2002A4AEA07
:1015700003034FEA8303ADBF02F1604200F00F00A6
:10158000264A02F56142B9BFDBB21354DBB282F8DE
:1015900000334846697EFFF700FC47B9637D56F883
:1015A0002320D2F8843023F08073C2F88430FFF710
:1015B0002BFF94F817900027FBB24B4517D22368F6
:1015C00053F827502B7A697A56F823002A68FFF7D8
:1015D000ECFB2B7A696856F823202B6809689B7806
:1015E00003F00F03A033013742F82310E4E720464D
:1015F000FFF74AFF2046FFF7F3FE2046FFF736FFCE
:10160000236983F8008023691878BDE8F88F00BF4C
:10161000A83F0008EC00002000ED00E014ED00E021
:1016200008B53148FFF7AEFE00285CD12F48FFF720
:101630009CFC002857D12E48FFF797FC002852D178
:101640002C48FFF792FC00284DD12B48FFF7A4FC53
:10165000002848D12948FFF788FC002843D12848B2
:10166000FFF724FD00283ED12648FFF725FF00287C
:1016700039D12548FFF71AFD002834D12348FFF758
:1016800091FD80BB2248FFF711FD60BB2148FFF7A9
:101690000DFD40BB2048FFF709FD20BB1F48FFF7A9
:1016A00005FD00BB1E48FFF701FDE0B91D48FFF72F
:1016B000FDFCC0B91C48FFF7F9FCA0B91B48FFF7B7
:1016C000F5FC80B91A48FFF7F7FE60B91948FFF733
:1016D000F3FE40B91848FFF7E9FC20B91748BDE808
:1016E0000840FFF7E3BC08BD88020020000000208E
:1016F0006800002034000020343600089C000020E0
:10170000A0360008EC400008B43600083401002080
:101710002C370008F036000804370008403700086E
:1017200054370008683700087C370008183700086D
:101730000841000824410008C8360008DC360008CB
:10174000017C026801238B4053607047017C026872
:101750004FF480338B405360704707EE103A06EE2B
:10176000902AD1ED007A06EE100AB5EE407AF1EE3D
:1017700010FAE6EE267A14D0F4EEC77AF1EE10FAFB
:1017800004DD37EEC77AA7EEA67A08E0F5EEC07A58
:10179000F1EE10FA05D537EE877AA7EEE67AF0EE8D
:1017A000477AC1ED007A17EE900A704770B505468A
:1017B0002DED048B90ED009A104614460E46FFF76F
:1017C00051FD08EE900A204695ED018AFFF78CFD49
:1017D00007EE900A28EE278A2046A9EE288A86ED91
:1017E000008AD5ED008AFFF77FFD09EE100A20463A
:1017F00095ED018AFFF736FD07EE900A28EE278A5D
:10180000F1EE688AA8EE898A86ED018ABDEC048B28
:1018100070BD70B504462DED028B10460D46164680
:10182000FFF720FD08EE100A3046FFF75DFDD4ED0E
:10183000017AD4ED006A07EE100A67EEC77AE8EE87
:10184000267AC5ED007AD4ED017A28EE278AD4ED08
:10185000007AA7EE278A85ED018ABDEC028B70BD68
:10186000D2ED007A92ED017A92ED026A06EE900ACC
:1018700027EE877AD1ED007A086076EEA77A67EED8
:10188000277A91ED017AE6EE077AC1ED017A17EE3B
:10189000900A7047137E07EE100A06EE101A6BB915
:1018A000D2ED047A77EE277AF6EE006A67EEA67A32
:1018B000D2ED056AE7EE866AC2ED056AD2ED056AE9
:1018C000D2ED017A67EEA67AD2ED006AE6EE877A6B
:1018D000D2ED026AF4EEE67AF1EE10FA06DCD2ED11
:1018E000036AF4EEE67AF1EE10FA05D543F001034F
:1018F0001376F0EE667A02E003F07E03137682ED53
:10190000047A17EE900A7047D2ED007AD2ED025AAF
:1019100092ED056A07EE100A77EE677A92ED017A8A
:1019200097EEA57A06EE901AD2ED037A27EE267A84
:10193000E7EE067A92ED047AC2ED037AA7EE867A94
:10194000C2ED007A66EE876A82ED047AC2ED016A22
:1019500070470000000000002DE9F84307EE901AE0
:101960002DED048B90ED039A90ED028A0446806978
:1019700039EE679A154638EE088A01F02FFBD4ED50
:10198000017A94ED057A68EE277A064697EE897A11
:101990000F4617EE100A01F021FB23A3D3E9002321
:1019A00001F070FB02460B463046394601F0B8F9AB
:1019B00001F07AFD08EE900AA061284601F00EFBC6
:1019C000064620690F4601F009FB804618EE900A92
:1019D000894601F003FB14A3D3E9002301F052FB75
:1019E00032463B4601F04EFB32463B4601F04AFB95
:1019F00002460B464046494601F092F901F054FD7B
:101A000007EE900AE8EE287A2061C4ED057AD4ED5D
:101A1000007AE7EE898A18EE900ABDEC048BBDE8E7
:101A2000F88300BFAFF300802D431CEBE2361A3F72
:101A3000254B264AD3ED006AD2ED007AF4EEE76A30
:101A4000F1EE10FA3EDCB1EE677AF4EEC76AF1EE21
:101A500010FA37D4D3ED016AF4EEE76AF1EE10FA2A
:101A600030DCF4EEC76AF1EE10FA2BD4D3ED026A43
:101A7000F4EEE76AF1EE10FA24DCF4EEC76AF1EE58
:101A800010FA1FD4124B134AD3ED047A92ED007A68
:101A9000F4EEC77AF1EE10FA14DC0F4A92ED007AF8
:101AA000F4EEC77AF1EE10FA0CD493ED097A0B4BF1
:101AB000D3ED007AB4EEE77AF1EE10FACCBF012054
:101AC000002070470120704710030020740200209E
:101AD00088030020FC010020380200207002002052
:101AE00038B58F4D8F4C2B682288013392B22B6012
:101AF000042A00F2BD80DFE802F003102B31480019
:101B0000894A1268012A40F0B38041F288318B4241
:101B100040F3AE802280002318E041F288329342E5
:101B20000DDD824BDFED827A93ED047AB4EEE77A35
:101B3000F1EE10FA03DD0223238000232B607D4B9E
:101B40001B68012B40F09480002323802B608FE0E2
:101B500041F288329342F2DD0323EDE7724B1B68BA
:101B6000012BECD1FFF764FF0028E8D1724B18601D
:101B7000724B1860724B1860724B1860724B186091
:101B8000724B186004232380D9E76A4B704A1B68A4
:101B9000D2ED007A012B04BF002323806D4B93ED1F
:101BA000007AB4EEE77AF1EE10FA06DCF1EE676A3D
:101BB000B4EEE67AF1EE10FA04D5002222805E4AF5
:101BC0000121116093ED017AB4EEE77AF1EE10FA9B
:101BD00006DCF1EE676AB4EEE67AF1EE10FA04D5AF
:101BE00000222280554A0121116093ED027AB4EE61
:101BF000E77AF1EE10FA06DCF1EE677AB4EEE77AF6
:101C0000F1EE10FA04D5002323804D4B01221A6017
:101C1000514A464B92ED007AD3ED047AF4EEC77A3E
:101C2000F1EE10FAC1BF00222280464A0121C8BF4E
:101C300011604A4A92ED007AF4EEC77A93ED097A80
:101C4000474BF1EE10FA48BF0022D3ED007A42BFB5
:101C500022803D4A0121B4EEE77A48BF1160F1EEDF
:101C600010FAC1BF00232380384B0122C8BF1A607D
:101C700024882C4BA4B28CB93A48FFF767FD3A4848
:101C8000FFF764FD3948FFF761FD3948FFF75EFD56
:101C90003848FFF75BFD384B1C6038BD1A8892B29C
:101CA000012A0CD12F48FFF751FD2F48FFF74EFDB9
:101CB0002E48FFF74BFD2E48FFF748FD0FE01A882E
:101CC00092B2022A10D12748FFF740FD2648FFF7BD
:101CD0003DFD2648FFF73AFD2548FFF731FD254831
:101CE000FFF72EFD002217E01A8892B2032AEAD0ED
:101CF0001B889BB2042B11D11A48FFF721FD1A480B
:101D0000FFF71EFD1948FFF71BFD1948FFF718FDE7
:101D10001848FFF715FD0122174B1A6038BD00BFA8
:101D2000DC020020BC030020AC020020880300205D
:101D30000000F04274030020E0020020E4020020D2
:101D4000E8020020A8020020C8020020DC030020D6
:101D50007402002010030020FC0100203802002043
:101D60007002002040370008543700086837000828
:101D7000C8360008DC360008D80300200000000048
:101D80002DE9F84FC248C34EC34DDFF8D0A3C34F6F
:101D9000DFF8CCB32DED028BFFF7D2FCC04BC1486E
:101DA0001A7A1B6856F822209B789FEDBF7A9FED28
:101DB000BF6A03F00F03C03352F82330BC4A0380DC
:101DC000117A126856F82110927802F00F02C03290
:101DD0009BB251F82210B74A4180147A126856F823
:101DE0002440927807EE903A8BB206EE903A02F0D9
:101DF0000F02F8EEE77AC03277EEC77AF8EEE66ABD
:101E00009FEDAD7A54F82220828076EEC76A93B2B5
:101E100066EE866A07EE103AC5ED016AF8EEC76A0B
:101E20009FEDA67AA649A74A36EEC77A67EE867A6C
:101E300027EE067A17EE900AC5ED007A85ED027A54
:101E4000FFF70EFDA04928609E4A6868FFF708FD6D
:101E50009E4968609B4AA868FFF702FD9C4BA860FA
:101E60001A7A1B6856F822209B789A489FED9A7A36
:101E70009FED9A6A03F00F03C03352F82330984A5B
:101E80000380117A126856F82110927802F00F023E
:101E9000C0329BB251F82210924A4180147A1268E3
:101EA00056F82440927807EE903A8BB206EE903ABC
:101EB00002F00F02F8EEE77AC03277EEC77AF8EE5A
:101EC000E66A9FED897A54F82220884C828076EE6B
:101ED000C76A93B266EE866A07EE103AC4ED016AED
:101EE000F8EEC76A9FED827A8249764A36EEC77A63
:101EF00067EE867A27EE067A17EE900AC4ED007A2E
:101F000084ED027AFFF7ACFC7B4920606D4A606883
:101F1000FFF7A6FC794960606A4AA068FFF7A0FC59
:101F2000774BA0601A7A1B6856F822209B789FEDA9
:101F3000757A754903F00F03C03352F82330734AA2
:101F400013809BB207EE903AF8EEE77A704A77EE8C
:101F5000C77A9FED707A67EE877A17EE900ACAED1E
:101F6000007AFFF77DFC6C4B38611A7A1B6856F8D3
:101F700022209B78694E03F00F03C03352F82330C0
:101F8000674A9BB207EE903AB8EE678A138068EE14
:101F9000087A17EE900A01F021F837A3D3E900235D
:101FA00001F070F8804618EE100A894601F016F824
:101FB00033A3D3E9002301F065F802460B464046FF
:101FC000494600F0ADFE30A3D3E9002300F0A6FEA1
:101FD00001F06AFA07EE100AF1EE0C7A77EE277A32
:101FE000504B5149514AC3ED007A17EE900AFFF762
:101FF00037FC4F4BDAF800201A604E4B22681A600B
:102000004D4B62681A604D4BA2681A604C4B2A68AF
:102010001A60DFF850914B4B6A681A604A46DFF845
:1020200048A1494B52F8041B7862A8681860FFF772
:102030006BFCDAED007A9BED007A444DDFF82C81E1
:10204000D9F80430D8F80020336087EE877A30461C
:102050002946D9ED027A67EE877AC6ED017AFFF755
:10206000A5FB28683A493B4AFFF7FAFB3A49286042
:102070007EE000BFAFF3008004332A99313F26BFD2
:1020800059D47146DE63E63F31A880C5DB688440E1
:10209000A0360008A83F0008CC03002088030020D9
:1020A00024400008F00200205C9FE244EC51383FDD
:1020B0004C400008844000081456E1441416E344E0
:1020C00034030020A8410008CC020020D4020020E4
:1020D000F83F0008780300203DBADE445839B43C8C
:1020E0000C40000874400008E102DF4410030020A7
:1020F000668EDE443C030020540300205C03002075
:10210000C84000086636E244B003002064030020A3
:10211000B4410008E17A14BF404100082C030020BC
:102120000C030020B8030020240300208441000891
:10213000D881002004820020D48100205082002019
:10214000F8810020448200200C820020C00300207F
:10215000A00200209C410008B0020020C80300201B
:10216000A8010020C8010020A4010020680300206D
:102170008D4A6868FFF774FB2A687A618B498C4A3C
:102180006860B861FFF786FBDBED007A894B8A490E
:10219000864A8A4D07EE100A77EE277A17EE900AE4
:1021A000CAED007AFFF7D9FA8549C8F80000854AD8
:1021B000DAF80000FFF754FBDBED007A9FED826A4E
:1021C000D9F80010CAF8000006EE900A27EEE77A68
:1021D00067EE867AA6EEA67A2A46206842F8041BA5
:1021E00067EEA67ADFF8ECA1DFF85892C7EE277AFF
:1021F00098ED007A77EE277AC7ED087AFFF784FB2F
:1022000072486B680360AB68714DD8F80020714963
:102210004360FFF7CBFA2B889AED007A63496E4A48
:102220009BB2042B0ABF6D4BDFED6D7AD3ED007AC4
:102230002B88B0469BB26B4E042B08BF6A4BC6ED91
:10224000007A77EEC77A0CBF1B68002317EE900A5E
:102250007360FFF71FFB96ED017ADAED017AC9F89A
:10226000000077EE677A5149604A614E17EE900A96
:10227000FFF710FB3146C9F804003A6A4846FFF7F9
:10228000C8FA2B885B49484A20689BB2042B0CBFD4
:10229000336800233360584EF360FFF7E1FA574B81
:1022A000574A186001463046FFF756FB2B889BB211
:1022B000042B07EE900A07D1B2EE0E7AF4EEC77A3D
:1022C000F1EE10FA0CDC01E0DFED457ABAEE0E7AA1
:1022D000F4EE477AF1EE10FA48BFF0EE477A01E0EB
:1022E000F0EE477A97ED047A464B474CC3ED007AFF
:1022F000F2EE046AB4EE667AF1EE10FA48BFB0EE80
:10230000667AD8ED006A414B37EE077A77EEA67A07
:1023100083ED007AC7EE877A3D4B0026C3ED007A45
:102320003C4BC4ED007AB1EE677A83ED007A84ED20
:10233000017A20683849394D00F0ACFC384900F08A
:1023400083FC9FED387A44F8040B07EE900A67EEA1
:10235000877AFDEEE77A17EE903A5B1003F59C530F
:10236000083345F826300136032EE2D12E4B29687A
:1023700019602E4B6A681A602D4BAA682D481A60A6
:10238000FEF702FE69682C48FEF7FEFDA9682B489F
:10239000FEF7FAFDFFF7A4FBBDEC028B2848BDE871
:1023A000F84FFFF7D3B900BF9C41000817B7D138E9
:1023B0001C020020DB0FC940980200203C020020D4
:1023C000B802002090410008F404B53FC00200208C
:1023D000BC03002080030020AC0100209C020020F0
:1023E00000000000440300205003002000020020F1
:1023F0006C030020F802002014820020EC02002070
:1024000063149D434C03002000030020F081002052
:10241000D0810020F4810020EC51783F8C02002014
:10242000EC5178BF00401C46108200204082002002
:10243000E48100200000002034000020680000201B
:10244000A03600081C03002008B5FFF7E9F800B12A
:10245000FEE71E4B186842F21073B0FBF3F000F079
:1024600025FB1B48FFF772F91A48FFF76FF91A4866
:10247000FFF76CF91948FFF769F91948FFF766F992
:102480001848FEF77AFD1848FEF777FD1748FEF763
:1024900074FD1748FEF72FFD1248FEF72CFD124879
:1024A000FEF729FD1148FEF726FD124B4FF07F5233
:1024B0001A60114A5A60114A9A6000225A611A61E0
:1024C0009A61DA6000F076FBFCE700BFC0FF0020F5
:1024D0002C37000818370008403700085437000828
:1024E0006837000800000020340000206800002049
:1024F0009C000020148200200000C040DD7E3C4291
:10250000054A064913680B600133B3F57A7F28BF8B
:1025100000231360704700BF0C7200205C23002072
:102520000368012B10B55AD12D4B02791B68062A7E
:1025300055D8DFE802F00410212D3F3F4F0082689C
:10254000016906335AB1047B09780122A2400A408E
:1025500018BF01220DE08268016906330AB90A78C2
:1025600007E0047B09780122A2400A40003218BF2C
:10257000012200F8232010BD8268016906335AB198
:10258000047B09880122A2400A4018BF01220EE004
:102590008268016906330AB90A8808E0047B098861
:1025A0000122A2400A4012B2002A18BF012220F8DC
:1025B000232010BD8268016906330AB90A6806E063
:1025C000047B09680122A2400A4018BF012240F89A
:1025D000232010BD026900EB83001268826110BDE8
:1025E0000C72002008B50D48FFF79AFF0C48FFF762
:1025F00097FF0C48FFF794FF0B48FFF791FF0B483C
:10260000FFF78EFF0A48FFF78BFF0A48FFF788FFA6
:102610000948BDE80840FFF783BF00BFEC03002076
:10262000A413002010720020602300201833002023
:10263000D04200208852002040620020A24A138825
:10264000012B70B5114602D9013B138070BD9F4B21
:102650001A880AB901221A809D4D1B880B802B789D
:10266000032B00F20D82DFE813F004001B00DD01F4
:10267000F401984A00231360974A1360974A136045
:10268000974A1360974A1360974A1360974B1A68EA
:10269000974B1A60FFF7A6FFFFF732FF0123F0E127
:1026A000FFF7A0FF924A8C4C136813B1013B1360F3
:1026B000AAE1904B1A78013A072A13D8DFE802F012
:1026C000140406080A0C0E108B4B0EE08B4B0CE02A
:1026D0008B4B0AE08B4B08E08B4B06E08B4B04E006
:1026E0008B4B02E001221A708A4B002222601A688A
:1026F000012A40F089818848784A00687849126840
:1027000009680128187940F0B280062800F27C811F
:10271000DFE800F0041A31475E71900098680632D5
:1027200048B913F822008A1D13F82220904280F045
:102730006B811B7D58E013F82220002A40F0648151
:102740008A1D13F8223071E09E68901D56B98A1DCB
:1027500013F9200013F92220904280F2558193F959
:10276000143054E013F92020002A40F04D818A1DD6
:1027700013F922305AE09868063248B933F822003B
:102780008A1D33F82220904280F03E819B8A2BE004
:1027900033F82220002A40F037818A1D33F8223096
:1027A00044E09E68901D56B98A1D33F9200033F924
:1027B0002220904280F22881B3F9143027E033F9C7
:1027C0002020002A40F020818A1D33F922302DE09C
:1027D0009868063210BB53F822008A1D53F8222055
:1027E000904280F011815B69984200F20D819A421B
:1027F000C0F00A8104E19868063278B953F82200E3
:102800008A1D53F82220904280F2FE805B69984234
:1028100000F3FA809A42C0F2F780F1E053F82220E8
:10282000002A40F0F1808A1D53F82230002B00F07E
:10283000EB80E5E003EB8202D2ED066A03EB810256
:1028400092ED067AF4EEC76AF1EE10FA40F1DC8000
:10285000D3ED057AF4EEE76AF1EE10FA00F2D480D7
:10286000B4EEE77AF1EE10FAC0F2CE80C8E00628A6
:1028700000F2CA80DFE800F0041A5A6E8393AB00BE
:102880009868063248B913F822008A1D13F82220EE
:10289000904240F2B9801B7D7CE013F82220002A90
:1028A00000F0B2808A1D13F822308EE09E68901DE1
:1028B000A6BB8A1D13F9200013F92220904240F391
:1028C000A38093F9143075E0EA030020E0030020B0
:1028D000E80300206C820020548200205C2300204A
:1028E0000C72002000720020047200206082002020
:1028F000E4030020FC710020A413002010720020CB
:102900006023002018330020D0420020885200208D
:1029100040620020EC0300200872002013F9202000
:10292000002A71D08A1D13F922304EE098680632D1
:1029300040B933F822008A1D33F82220904263D92F
:102940009B8A27E033F82220002A5DD08A1D33F8C5
:1029500022303AE09E68901D4EB98A1D33F920005E
:1029600033F9222090424FDDB3F9143022E033F9DD
:102970002020002A48D08A1D33F9223025E09868AB
:102980000632E0B953F822008A1D53F82220904203
:102990003AD95B69984237D39A4235D830E0986883
:1029A000063260B953F822008A1D53F82220904263
:1029B0002ADD5B69984227DB9A4225DC20E053F848
:1029C00022200AB38A1D53F82230EBB918E003EB3A
:1029D0008202D2ED066A03EB810292ED067AF4EEF2
:1029E000C76AF1EE10FA0FDDD3ED057AF4EEE76A6F
:1029F000F1EE10FA08DBB4EEE77AF1EE10FA03D844
:102A000001232360204B1960FFF77AFD2368012B17
:102A100038D11E4B1E4A1B68C3F57973023313600D
:102A200002232EE0FFF7DEFDFFF76AFD184A136868
:102A300093B9184A1178012917BF174B13701A68F8
:102A4000164B1CBF1A6003232B70154B01221A6012
:102A500070BD124A136813B1013B136070BD104B77
:102A60001B687BB90F4A1360084B1A680E4B1A603B
:102A700001232B70FFF7B6FDBDE87040FFF740BDA6
:102A800000232B7070BD00BF5C820020608200209C
:102A900004720020FD71002064820020007200207A
:102AA0006C82002054820020E4030020234A244941
:102AB000002370B51360234A234C1360234A244E2D
:102AC0001360244A1360244A1360244A1360244A82
:102AD0001360244A1360244A1370244A137001229D
:102AE0000A7023490B6023490B6023490B6023497B
:102AF0000B602360224C2360224C23600C68224927
:102B00000C6022494FF47A740C6021490A60214913
:102B10000D8821490C78214909683668314411FA39
:102B200085F121441E4C21601E490A801E490B80FC
:102B30001E4B18601E4B1A6070BD00BFEC030020D6
:102B4000FC710020A4130020648200201072002079
:102B50007C0200206023002018330020D042002097
:102B60008852002040620020FD710020E803002010
:102B70005C2300200C720020548200206082002020
:102B8000007200206C820020E40300200472002008
:102B900008720020800200207802002084020020B9
:102BA000F8710020E0030020EA0300205882002092
:102BB0006882002038B51D4B1B78032B34D8DFE822
:102BC00003F0022F0B2F1A4B00221A70194B1A8890
:102BD00052BB01221A8038BD174B1A681D46DAB95C
:102BE000164B17491A600A88012A1C46084602D962
:102BF000013A0A8010E00F4B1A880AB901221A80A4
:102C00001B880380FFF7EEFCFFF77AFC0D4B1B6877
:102C100013B901232B602360054B00221A7038BDC5
:102C2000BDE83840FFF70ABD38BD00BFFD71002088
:102C3000E8030020E00300206C8200205482002082
:102C4000EA0300200C72002008B52DED028B08EE7F
:102C5000900A08EE101A00F043F820B918EE100A96
:102C6000BDEC028B08BD18EE100A00F039F858B11F
:102C7000F4EEC88AF1EE10FAD4BF18EE100A18EE7E
:102C8000900ABDEC028B08BD18EE900ABDEC028BD9
:102C900008BD00BF08B52DED028B08EE900A08EEC6
:102CA000101A00F01DF820B918EE100ABDEC028BC6
:102CB00008BD18EE100A00F013F858B1F4EEC88AF7
:102CC000F1EE10FA54BF18EE100A18EE900ABDEC9F
:102CD000028B08BD18EE900ABDEC028B08BD00BF48
:102CE00030F0004001D102207047A0F50003B3F19D
:102CF000FE4F01D204207047054B421E9A4201D874
:102D000003207047A0F1FF40B0FA80F040097047FF
:102D1000FEFF7F0081F0004102E000BF83F000432E
:102D200030B54FEA41044FEA430594EA050F08BF66
:102D300090EA020F1FBF54EA000C55EA020C7FEA2A
:102D4000645C7FEA655C00F0E2804FEA5454D4EBA7
:102D50005555B8BF6D420CDD2C4480EA020281EA71
:102D6000030382EA000083EA010180EA020281EAA9
:102D70000303362D88BF30BD11F0004F4FEA0131FB
:102D80004FF4801C4CEA113102D0404261EB41010A
:102D900013F0004F4FEA03334CEA133302D0524290
:102DA00063EB430394EA050F00F0A780A4F101044C
:102DB000D5F1200E0DDB02FA0EFC22FA05F2801886
:102DC00041F1000103FA0EF2801843FA05F359416C
:102DD0000EE0A5F120050EF1200E012A03FA0EFCEB
:102DE00028BF4CF0020C43FA05F3C01851EBE37115
:102DF00001F0004507D54FF0000EDCF1000C7EEB32
:102E000000006EEB0101B1F5801F1BD3B1F5001F6F
:102E10000CD349085FEA30004FEA3C0C04F101048E
:102E20004FEA445212F5800F80F09A80BCF1004FB7
:102E300008BF5FEA500C50F1000041EB045141EA39
:102E4000050130BD5FEA4C0C404141EB010111F43A
:102E5000801FA4F10104E9D191F0000F04BF0146E5
:102E60000020B1FA81F308BF2033A3F10B03B3F1C3
:102E700020020CDA0C3208DD02F1140CC2F10C0253
:102E800001FA0CF021FA02F10CE002F11402D8BFB1
:102E9000C2F1200C01FA02F120FA0CFCDCBF41EA7D
:102EA0000C019040E41AA2BF01EB0451294330BD4C
:102EB0006FEA04041F3C1CDA0C340EDC04F1140429
:102EC000C4F1200220FA04F001FA02F340EA030000
:102ED00021FA04F345EA030130BDC4F10C04C4F146
:102EE000200220FA02F001FA04F340EA0300294626
:102EF00030BD21FA04F0294630BD94F0000F83F470
:102F0000801306BF81F480110134013D4EE77FEA52
:102F1000645C18BF7FEA655C29D094EA050F08BF9E
:102F200090EA020F05D054EA000C04BF194610467F
:102F300030BD91EA030F1EBF0021002030BD5FEAC3
:102F4000545C05D14000494128BF41F0004130BDEB
:102F500014F580043CBF01F5801130BD01F000453F
:102F600045F0FE4141F470014FF0000030BD7FEAB2
:102F7000645C1ABF194610467FEA655C1CBF0B46AD
:102F8000024650EA013406BF52EA033591EA030FC4
:102F900041F4002130BD00BF90F0000F04BF0021BC
:102FA000704730B54FF4806404F132044FF00005EF
:102FB0004FF0000150E700BF90F0000F04BF002168
:102FC000704730B54FF4806404F1320410F00045CE
:102FD00048BF40424FF000013EE700BF42004FEAC9
:102FE000E2014FEA31014FEA02701FBF12F07F4346
:102FF00093F07F4F81F06051704792F0000F14BF43
:1030000093F07F4F704730B54FF4607401F0004586
:1030100021F0004120E700BF50EA010208BF7047DD
:1030200030B54FF000050AE050EA010208BF7047D2
:1030300030B511F0004502D5404261EB41014FF43B
:10304000806404F132045FEA915C3FF4DCAE4FF03F
:1030500003025FEADC0C18BF03325FEADC0C18BF26
:10306000033202EBDC02C2F1200300FA03FC20FA77
:1030700002F001FA03FE40EA0E0021FA02F11444C4
:10308000C1E600BF70B54FF0FF0C4CF4E06C1CEAD9
:1030900011541DBF1CEA135594EA0C0F95EA0C0F4E
:1030A00000F0DEF82C4481EA030621EA4C5123EAC1
:1030B0004C5350EA013518BF52EA033541F48011F0
:1030C00043F4801338D0A0FB02CE4FF00005E1FBA3
:1030D00002E506F00042E0FB03E54FF00006E1FBED
:1030E00003569CF0000F18BF4EF0010EA4F1FF0430
:1030F000B6F5007F64F5407404D25FEA4E0E6D4170
:1031000046EB060642EAC62141EA55514FEAC52080
:1031100040EA5E504FEACE2EB4F1FD0C88BFBCF5FC
:10312000E06F1ED8BEF1004F08BF5FEA500E50F1AD
:10313000000041EB045170BD06F0004646EA010173
:1031400040EA020081EA0301B4EB5C04C2BFD4EBA5
:103150000C0541EA045170BD41F480114FF0000E9E
:10316000013C00F3AB8014F1360FDEBF002001F00C
:10317000004170BDC4F10004203C35DA0C341BDC86
:1031800004F11404C4F1200500FA05F320FA04F058
:1031900001FA05F240EA020001F0004221F000418C
:1031A00010EBD37021FA04F642EB06015EEA430EFF
:1031B00008BF20EAD37070BDC4F10C04C4F120052F
:1031C00000FA04F320FA05F001FA04F240EA0200E2
:1031D00001F0004110EBD37041F100015EEA430EB3
:1031E00008BF20EAD37070BDC4F1200500FA05F2D3
:1031F0004EEA020E20FA04F301FA05F243EA020352
:1032000021FA04F001F0004121FA04F220EA020060
:1032100000EBD3705EEA430E08BF20EAD37070BDA6
:1032200094F0000F0FD101F00046400041EB010186
:1032300011F4801F08BF013CF7D041EA060195F068
:10324000000F18BF704703F00046520043EB030322
:1032500013F4801F08BF013DF7D043EA060370470F
:1032600094EA0C0F0CEA135518BF95EA0C0F0CD01A
:1032700050EA410618BF52EA4306D1D181EA030160
:1032800001F000414FF0000070BD50EA410606BF5A
:103290001046194652EA430619D094EA0C0F02D19F
:1032A00050EA013613D195EA0C0F05D152EA0336E4
:1032B0001CBF104619460AD181EA030101F0004102
:1032C00041F0FE4141F470014FF0000070BD41F04B
:1032D000FE4141F4780170BD70B54FF0FF0C4CF425
:1032E000E06C1CEA11541DBF1CEA135594EA0C0F44
:1032F00095EA0C0F00F0A7F8A4EB050481EA030E91
:1033000052EA03354FEA013100F088804FEA033377
:103310004FF0805545EA131343EA12634FEA022245
:1033200045EA111545EA10654FEA00260EF0004106
:103330009D4208BF964244F1FD0404F5407402D258
:103340005B084FEA3202B61A65EB03055B084FEAE9
:1033500032024FF480104FF4002CB6EB020E75EBE6
:10336000030E22BFB61A754640EA0C005B084FEA0E
:103370003202B6EB020E75EB030E22BFB61A75468B
:1033800040EA5C005B084FEA3202B6EB020E75EBD6
:10339000030E22BFB61A754640EA9C005B084FEA4E
:1033A0003202B6EB020E75EB030E22BFB61A75465B
:1033B00040EADC0055EA060E18D04FEA051545EA4A
:1033C00016754FEA06164FEAC30343EA52734FEAF3
:1033D000C2025FEA1C1CC0D111F4801F0BD141EA6C
:1033E00000014FF000004FF0004CB6E711F4801FD1
:1033F00004BF01430020B4F1FD0C88BFBCF5E06FB1
:103400003FF6AFAEB5EB030C04BFB6EB020C5FEAC0
:10341000500C50F1000041EB045170BD0EF0004E15
:103420004EEA113114EB5C04C2BFD4EB0C0541EA47
:10343000045170BD41F480114FF0000E013C90E644
:1034400045EA060E8DE60CEA135594EA0C0F08BF08
:1034500095EA0C0F3FF43BAF94EA0C0F0AD150EA07
:1034600001347FF434AF95EA0C0F7FF425AF10469A
:1034700019462CE795EA0C0F06D152EA03353FF4C2
:10348000FDAE1046194622E750EA410618BF52EA3F
:1034900043067FF4C5AE50EA41047FF40DAF52EA13
:1034A00043057FF4EBAE12E74FEA4102B2F1E0438D
:1034B00024BFB3F5001CDCF1FE5C0DD901F0004C1B
:1034C0004FEAC0024CEA5070B2F1004F40EB83006B
:1034D00008BF20F00100704711F0804F21D113F197
:1034E0003872BCBF01F00040704741F480114FEAD0
:1034F0005252C2F11802C2F1200C10FA0CF320FA59
:1035000002F018BF40F001004FEAC1234FEAD32375
:1035100003FA0CFC40EA0C0023FA02F34FEA4303DF
:10352000CCE77FEA625307D150EA01331EBF4FF068
:10353000FE4040F44000704701F0004040F0FE4083
:1035400040F40000704700BF70B50E4B0E4CE41AFB
:10355000A41000251E46A54204D056F825309847F1
:103560000135F8E7FDF756FC084C094BE41AA410A6
:1035700000251E46A54204D056F82530984701354F
:10358000F8E770BD88020020880200208802002031
:1035900088020020030003000C000C003000300003
:1035A000003000300003000C0000020204040C0C88
:1035B000080A00000044004000480040004C004061
:1035C00000500040980000000000010004000000CE
:1035D00098000000000001000400000098000000B6
:1035E00000000100040000000000000000000000D6
:1035F00000000000000000000000000000000000CB
:103600000000000000000000980000000000010021
:1036100004000000000000000000000000000000A6
:10362000000000000000000000000000000000009A
:10363000000000003F3F000100000000000000000B
:10364000000000000000000000000000000000007A
:10365000000000000000000000000000000000006A
:10366000000000000000000000000000000000005A
:103670000000000000000000030000000000000047
:10368000000000000000000000000000000000003A
:10369000000000000000000000000000000000002A
:1036A00000810248800000000000010000000000CE
:1036B00000000000008102488000000000000100BE
:1036C00000000000010000000082024880000000AD
:1036D0000000010000000000060000000085024814
:1036E0008000000000000100000000000200000057
:1036F00000810248080000000000000000000000F7
:103700000F0000000080024880000000000001005F
:103710000000000009000000008302488000000053
:1037200000000100000000000200000000850248C7
:103730008000000000000100000000000700000001
:10374000008002488000000000000100000000002E
:103750000800000000800248800000000000010016
:10376000000000000C000000008002488000000003
:103770000000010000000000020000000083024879
:10378000080000000000000000000000030000002E
:1037900000000000920E493CB10AC93C2BC3163D03
:1037A0002EFB483D752B7B3D04A9963D80B6AF3D71
:1037B00036BDC83D2FBCE13D73B2FA3D87CF093E0F
:1037C0008340163EB5AB223EA2102F3ECF6E3B3E4D
:1037D000C2C5473E0115543E135C603E7F9A6C3E65
:1037E000CCCF783EC07D823E938E883E229A8E3E1C
:1037F00032A0943E86A09A3EE59AA03E128FA63E45
:10380000D47CAC3EEF63B23E2A44B83E491DBE3E76
:1038100015EFC33E53B9C93ECA7BCF3E4136D53EB4
:1038200080E8DA3E4F92E03E7533E63EBBCBEB3E9E
:10383000EA5AF13ECBE0F63E275DFC3EE4E7003F6E
:103840003D9C033F824B063F9BF5083F6B9A0B3F25
:10385000DA390E3FCDD3103F2A68133FD9F6153F12
:10386000C07F183FC6021B3FD17F1D3FCBF61F3FD5
:103870009967223F25D2243F5636273F1594293F8A
:103880004AEB2B3FDE3B2E3FBB85303FC9C8323F62
:10389000F304353F233A373F4268393F3B8F3B3F84
:1038A000F9AE3D3F67C73F3F70D8413F01E2433F1C
:1038B00003E4453F65DE473F12D1493FF8BB4B3F2C
:1038C000029F4D3F207A4F3F3D4D513F4918533F96
:1038D00031DB543FE595563F5348583F6AF2593F14
:1038E0001A945B3F532D5D3F05BE5E3F2146603F0E
:1038F00097C5613F5A3C633F59AA643F880F663FB2
:10390000D86B673F3CBF683FA7096A3F0C4B6B3FD2
:103910005E836C3F93B26D3F9ED86E3F73F56F3FF1
:103920000809713F5213723F4714733FDD0B743F18
:103930000BFA743FC6DE753F07BA763FC58B773FFB
:10394000F853783F9812793F9DC7793F02737A3FC9
:10395000BE147B3FCDAC7B3F283B7C3FC9BF7C3F47
:10396000AC3A7D3FCCAB7D3F23137E3FB0707E3FB2
:103970006DC47E3F580E7F3F6D4E7F3FAB847F3FCF
:103980000FB17F3F97D37F3F43EC7F3F11FB7F3FDA
:103990000000803F11FB7F3F43EC7F3F97D37F3F89
:1039A0000FB17F3FAB847F3F6D4E7F3F580E7F3F0F
:1039B0006DC47E3FB0707E3F23137E3FCCAB7D3F16
:1039C000AC3A7D3FC9BF7C3F283B7C3FCDAC7B3FC1
:1039D000BE147B3F02737A3F9DC7793F9812793FAF
:1039E000F853783FC58B773F07BA763FC6DE753F01
:1039F0000BFA743FDD0B743F4714733F5213723F51
:103A00000809713F73F56F3F9ED86E3F93B26D3FCB
:103A10005E836C3F0C4B6B3FA7096A3F3CBF683F1E
:103A2000D86B673F880F663F59AA643F5A3C633F93
:103A300097C5613F2146603F05BE5E3F532D5D3F08
:103A40001A945B3F6AF2593F5348583FE595563FF9
:103A500031DB543F4918533F3D4D513F207A4F3F92
:103A6000029F4D3FF8BB4B3F12D1493F65DE473FB8
:103A700003E4453F01E2433F70D8413F67C73F3F02
:103A8000F9AE3D3F3B8F3B3F4268393F233A373FDA
:103A9000F304353FC9C8323FBB85303FDE3B2E3F84
:103AA0004AEB2B3F1594293F5636273F25D2243F1A
:103AB0009967223FCBF61F3FD17F1D3FC6021B3FB8
:103AC000C07F183FD9F6153F2A68133FCDD3103F6A
:103AD000DA390E3F6B9A0B3F9BF5083F824B063F4E
:103AE0003D9C033FE4E7003F275DFC3ECBE0F63E14
:103AF000EA5AF13EBBCBEB3E7533E63E4F92E03ED9
:103B000080E8DA3E4136D53ECA7BCF3E53B9C93E46
:103B100015EFC33E491DBE3E2A44B83EEF63B23E98
:103B2000D47CAC3E128FA63EE59AA03E86A09A3E7B
:103B300032A0943E229A8E3E938E883EC07D823E75
:103B4000CCCF783E7F9A6C3E135C603E0115543EAC
:103B5000C2C5473ECF6E3B3EA2102F3EB5AB223EC4
:103B60008340163E87CF093E73B2FA3D2FBCE13D3C
:103B700036BDC83D80B6AF3D04A9963D752B7B3D53
:103B80002EFB483D2BC3163DB10AC93C920E493C61
:103B900000000000920E49BCB10AC9BC2BC316BD7F
:103BA0002EFB48BD752B7BBD04A996BD80B6AFBD6D
:103BB00036BDC8BD2FBCE1BD73B2FABD87CF09BE0B
:103BC000834016BEB5AB22BEA2102FBECF6E3BBE49
:103BD000C2C547BE011554BE135C60BE7F9A6CBE61
:103BE000CCCF78BEC07D82BE938E88BE229A8EBE18
:103BF00032A094BE86A09ABEE59AA0BE128FA6BE41
:103C0000D47CACBEEF63B2BE2A44B8BE491DBEBE72
:103C100015EFC3BE53B9C9BECA7BCFBE4136D5BEB0
:103C200080E8DABE4F92E0BE7533E6BEBBCBEBBE9A
:103C3000EA5AF1BECBE0F6BE275DFCBEE4E700BF6A
:103C40003D9C03BF824B06BF9BF508BF6B9A0BBF21
:103C5000DA390EBFCDD310BF2A6813BFD9F615BF0E
:103C6000C07F18BFC6021BBFD17F1DBFCBF61FBFD1
:103C7000996722BF25D224BF563627BF159429BF86
:103C80004AEB2BBFDE3B2EBFBB8530BFC9C832BF5E
:103C9000F30435BF233A37BF426839BF3B8F3BBF80
:103CA000F9AE3DBF67C73FBF70D841BF01E243BF18
:103CB00003E445BF65DE47BF12D149BFF8BB4BBF28
:103CC000029F4DBF207A4FBF3D4D51BF491853BF92
:103CD00031DB54BFE59556BF534858BF6AF259BF10
:103CE0001A945BBF532D5DBF05BE5EBF214660BF0A
:103CF00097C561BF5A3C63BF59AA64BF880F66BFAE
:103D0000D86B67BF3CBF68BFA7096ABF0C4B6BBFCE
:103D10005E836CBF93B26DBF9ED86EBF73F56FBFED
:103D2000080971BF521372BF471473BFDD0B74BF14
:103D30000BFA74BFC6DE75BF07BA76BFC58B77BFF7
:103D4000F85378BF981279BF9DC779BF02737ABFC5
:103D5000BE147BBFCDAC7BBF283B7CBFC9BF7CBF43
:103D6000AC3A7DBFCCAB7DBF23137EBFB0707EBFAE
:103D70006DC47EBF580E7FBF6D4E7FBFAB847FBFCB
:103D80000FB17FBF97D37FBF43EC7FBF11FB7FBFD6
:103D9000000080BF11FB7FBF43EC7FBF97D37FBF85
:103DA0000FB17FBFAB847FBF6D4E7FBF580E7FBF0B
:103DB0006DC47EBFB0707EBF23137EBFCCAB7DBF12
:103DC000AC3A7DBFC9BF7CBF283B7CBFCDAC7BBFBD
:103DD000BE147BBF02737ABF9DC779BF981279BFAB
:103DE000F85378BFC58B77BF07BA76BFC6DE75BFFD
:103DF0000BFA74BFDD0B74BF471473BF521372BF4D
:103E0000080971BF73F56FBF9ED86EBF93B26DBFC7
:103E10005E836CBF0C4B6BBFA7096ABF3CBF68BF1A
:103E2000D86B67BF880F66BF59AA64BF5A3C63BF8F
:103E300097C561BF214660BF05BE5EBF532D5DBF04
:103E40001A945BBF6AF259BF534858BFE59556BFF5
:103E500031DB54BF491853BF3D4D51BF207A4FBF8E
:103E6000029F4DBFF8BB4BBF12D149BF65DE47BFB4
:103E700003E445BF01E243BF70D841BF67C73FBFFE
:103E8000F9AE3DBF3B8F3BBF426839BF233A37BFD6
:103E9000F30435BFC9C832BFBB8530BFDE3B2EBF80
:103EA0004AEB2BBF159429BF563627BF25D224BF16
:103EB000996722BFCBF61FBFD17F1DBFC6021BBFB4
:103EC000C07F18BFD9F615BF2A6813BFCDD310BF66
:103ED000DA390EBF6B9A0BBF9BF508BF824B06BF4A
:103EE0003D9C03BFE4E700BF275DFCBECBE0F6BE10
:103EF000EA5AF1BEBBCBEBBE7533E6BE4F92E0BED5
:103F000080E8DABE4136D5BECA7BCFBE53B9C9BE42
:103F100015EFC3BE491DBEBE2A44B8BEEF63B2BE94
:103F2000D47CACBE128FA6BEE59AA0BE86A09ABE77
:103F300032A094BE229A8EBE938E88BEC07D82BE71
:103F4000CCCF78BE7F9A6CBE135C60BE011554BEA8
:103F5000C2C547BECF6E3BBEA2102FBEB5AB22BEC0
:103F6000834016BE87CF09BE73B2FABD2FBCE1BD38
:103F700036BDC8BD80B6AFBD04A996BD752B7BBD4F
:103F80002EFB48BD2BC316BDB10AC9BC920E49BC5D
:103F90000000008050020401000001000000000049
:103FA0000000010001010101004400400048004000
:103FB000004C0040005000402500000000000000C0
:103FC00027000000000000000000000000000000CA
:103FD0000000000000000000000000005C4100083C
:103FE0000100000023000000000024000000000089
:103FF00001FF000020000000B84000080840000851
:1040000001070000220000000000000058400008E6
:104010004C410008000700000000240000000000E0
:1040200001FF000030400008804000080000000050
:1040300000002F000000000001010000000020002F
:104040000000000001FF0000000000003C400008EC
:1040500048400008010500000000280000000000A2
:1040600001FF000000000000000000000000000050
:1040700000000000E040000870400008000500005B
:1040800000000000D4400008B44000080106000011
:1040900027000000250000000000000000000000D4
:1040A0000000000000000000000000005041000877
:1040B000010000000000000000002F0000000000D0
:1040C00001FF000026000000E83F0008C43F000890
:1040D00000030000000023000000000001FF0000BA
:1040E000000025000000000001FF000094010020F6
:1040F0007001002000000000684100088C010020D1
:104100000300040401000000600100208001002081
:1041100000000000C83F00088D01002003010303D8
:1041200001000000900100206C0100200000000050
:10413000984000088E0100200303010101000000E7
:1041400018400008BC3F0008030200000000000007
:10415000000000000000000000000000000000005F
:10416000000000000000000000000000000000004F
:104170000000000000000000000000006440000893
:10418000010000000000803F88A8A439D6D67F3FF8
:104190000000803F202D803B4BFF7D3F0000803F93
:1041A000D6DD163E1591343F0000803F77FEA33EDA
:1041B0001303B83E0000803F4085F93CAC67703F78
:1041C000D000002000000240000102402436000818
:1041D00000800248C4350008E02E0000DF2E0000F9
:1041E00000000000050000000102000005000000C2
:1041F00000000000D0000020000002400004024047
:10420000F83500080080024808360008E02E00005B
:10421000DF2E00000000000000500000010200003E
:104220000600030000000000D00000200000024053
:10423000000202401436000800800248D035000811
:10424000E02E0000DF2E0000000000005000000003
:10425000010200000400010000000000D000002066
:104260000000024000030240E835000800800248D8
:10427000DC35000870170000DF2E000088130000F6
:10428000000500000102030003000200010000001D
:10429000000E27070001000000000240000000009F
:1042A000004400403836000801020000E000002011
:1042B00008010020200100201401002074360008AD
:1042C0000040004002010000004800404C36000859
:1042D00001020000005000406036000801020000AA
:1042E000004C00408C3600080102000000008000F5
:1042F00000000000008001482C0100200000100098
:1043000000000000000000000000000000000000AD
:10431000000000000000010000000000010000009B
:104320004C400008F83F00088440000804400008A2
:10433000F43F0008E43F000894400008C03F000834
:10434000B83F000890400008C44000080202020084
:104350004041000824400008C8400008744000089C
:104360000C40000863149D4363149D43CDCC4C3D29
:104370000000204200007041000070C100000000F9
:10438000000000000000000063149D4300000000D6
:1043900000000000F404B53F000000000000000031
:1043A00017B7D1380000000000000000F404B53F4A
:1043B000000000000000000017B7D13800003443AF
:1043C000CDCC4C3D0000204200007041000070C187
:1043D000000000000000000000000000295CAF3F6A
:1043E00000002343949E6B44949E6BC40000000025
:1043F0000000000000000000000020C163149D4385
:104400000000000000000000F404B53F00000000C0
:104410000000000017B7D1380000000000000000C5
:10442000F404B53F000000000000000017B7D138C9
:104430000000704200007041080000000100000010
:08444000E80300000100000088
:0400000508000201EC
:00000001FF
