:020000040C00EE
:100000000008001001020008B1020008B102000857
:10001000B1020008B1020008B102000800000000AF
:10002000000000000000000000000000B102000815
:10003000B102000800000000B1020008B10200088F
:10004000B1020008B1020008B1020008B1020008C4
:10005000B1020008B1020008B1020008B1020008B4
:10006000B1020008000000000000000000000000D5
:10007000B102000800000000B1020008B10200084F
:10008000B1020008B1020008B1020008B102000884
:10009000B1020008B1020008B1020008B102000874
:1000A000B1020008B1020008B1020008B102000864
:1000B000B1020008B1020008B1020008B102000854
:1000C000B1020008B1020008B1020008B102000844
:1000D000B1020008B1020008B1020008B102000834
:1000E000B1020008B1020008B1020008B102000824
:1000F000B1020008B1020008B1020008B102000814
:10010000B1020008B1020008B1020008B102000803
:10011000B1020008B1020008B1020008B1020008F3
:10012000B1020008B1020008B1020008B1020008E3
:10013000B1020008B1020008B1020008F51700087A
:10014000B1020008B1020008B1020008B1020008C3
:10015000B1020008B1020008B1020008B1020008B3
:10016000000000000000000000000000000000008F
:10017000B1020008B1020008B1020008B102000893
:10018000B1020008B1020008B1020008B102000883
:10019000B1020008B1020008B1020008B102000873
:1001A000B1020008B1020008B1020008B102000863
:1001B000B1020008B1020008B1020008B102000853
:1001C000B1020008B1020008B1020008B102000843
:1001D000B1020008B1020008B102000800000000EE
:1001E000B1020008B1020008B1020008B102000823
:1001F000B102000800000000B10200080000000089
:10020000DFF88CD023488047234C244DAC4209DAD8
:1002100021686268A368043BA2BFC858D050FAE7BF
:100220000C34F3E71E4B1F4CA34208DA19685A68D6
:100230000020043AA4BF8850FBE70833F4E71A48CB
:1002400080471A48804700009432000C00000020CC
:10025000C00100005434000C000000300000000019
:100260009432000C00080010000000009432000CD2
:100270000008001000000000C0010020507F0000B6
:100280000000003000000000000800100000000026
:10029000000800103D03000848020008780200082A
:1002A0007802000890020008E5260008F51D000805
:1002B000FEE700001D4BDB68D90310B525D51C4BAC
:1002C000DA6812F0010F1C4602D101F05FF800E07D
:1002D00018482268164B520710D59A6899689B688F
:1002E000C2F30362C3F30644531C04FB0333B0FBA5
:1002F000F3F0C1F3062303FB000007E09B6803F063
:100300007F030133B0FBF3F000E00A48074AD368EB
:10031000DBB20133B0FBF3F0136903F001030133E7
:10032000B0FBF3F0044B186010BD00BF0046005056
:100330001047005000366E01C0FF002038B5094A52
:10034000094D4FF00054234603CBAB42106051607F
:100350001C4602F10802F6D100F048FF01F01AF83D
:1003600038BD00BFC4FF00201000002001F0FC03D6
:100370000344F0B501F003041E69E400F825A5402C
:1003800026EA05051D61466F4F000325BD4026EA9C
:1003900005054567144DA84203D005F58075A842B0
:1003A00007D1056E012606FA01F125EA0101016671
:1003B00014E055688D404560CD0800EB850001F0E4
:1003C0000701066C890007258D4026EA05050564AE
:1003D000167A056C06FA01F129430164127819694D
:1003E000A2400A431A61F0BD008E024810B50446CF
:1003F000FFF760FF064B07481B68B3FBF0F303FBF6
:1004000004F00023834202D000BF0133FAE710BD9D
:10041000C0FF002040420F00020F0C235343024A4A
:1004200020F07040985070471444005020F0704203
:100430000C23000F584303F1A04303F58843C3582E
:100440001A4214BF0120002070470000034B044AE9
:100450005B69106803F00103D84070470046005004
:10046000C0FF0020034AD36823F480331843D060D0
:10047000704700BF00460050034A936923F480335D
:1004800018439061704700BF00460050034A536A0A
:1004900023F4403318435062704700BF00460050B9
:1004A000064AD36820B923F4807323F0010303E0E4
:1004B00043F4807343F00103D3607047104700504A
:1004C000054BD3F8C4301B07FAD4044AD36823F091
:1004D00040031843D0607047004000500043005074
:1004E000054BD3F8C4301B07FAD4044AD36823F071
:1004F00080031843D0607047004000500043005014
:10050000034AD368013823F0FF030343D3607047E5
:1005100000460050034A136A013823F001030343E5
:100520001362704700460050034A1369013823F0F4
:10053000010303431361704700460050034A5369A7
:10054000013823F001030343536170470046005014
:10055000034A9369013823F007030343936170470B
:1005600000460050034AD369013823F03F03034398
:10057000D361704700460050034A536A013823F0A4
:10058000FF0303435362704700460050014B58601D
:10059000704700BF004600500F4B5A6942F00102FD
:1005A0005A615A6901380139000642F0100240EAE6
:1005B00001215A6159615A6942F040025A615A69EF
:1005C00022F010025A615A6942F480225A611A6973
:1005D0005207FCD5704700BF1047005010B50B4CB8
:1005E0006368012843F4801363600AD1636823F4CD
:1005F000801363606420FFF7F9FE636843F400230F
:1006000063606420BDE81040FFF7F0BE1047005063
:100610000A4B1A68D20704D5094B1A68900506D40C
:10062000704701225A601A68D107FCD5F4E74FF4ED
:1006300000729A601A689205FCD47047004200501C
:1006400000440050034B186880F00800C0F3C0005D
:10065000704700BF004300500E4BD3F8C42012F087
:10066000800F1A46F8D103F54073D96921F03001A3
:10067000D961D2F8C4100907FBD4DA6842F0080245
:10068000DA60044BD3F8C4305B07FAD4024B08227B
:100690009A607047004000500043005070B50C4D08
:1006A0000C4E6B6823F480336B60746800F06EFE50
:1006B000094BB0FBF3F024F47023013823F030032E
:1006C00043EA004373606B6823F400336B6070BDD2
:1006D0001047005000470050A0252600044B186822
:1006E00000F46070A0F5607358425841704700BF35
:1006F00010470050034A536823F4803323F0020369
:100700005360704710470050034A536843F48033E6
:1007100043F002035360704710470050054A936846
:10072000013823F4FE0343EA004393603220FFF7CD
:100730005DBE00BF104700502DE9F0410C46054654
:1007400090461F46069EFFF7ABFE012C314C52D15E
:1007500035B900F01BFE304DB0FBF5F0800501E02F
:100760004FF0C060636843F001036360636843F067
:1007700010036360A168294B08F1FF320B4043EA84
:1007800002637A1E43EA022278431823B0FBF8F58D
:10079000B5FBF3F39B0D013B42EA0343A36063689F
:1007A00043F040036360636823F010036360636891
:1007B00043F4802363602368164A5907FBD55368C6
:1007C00023F0010353602368DA07FCD43C20B5FB17
:1007D000F0F0800D864201D2FFF7A0FF5A20B5FB52
:1007E000F0F0800D864201D2FFF798FF3046BDE859
:1007F000F041FFF793BFA368013E23F07F031E4340
:10080000A660636843F0010363602368DB07FCD5DF
:10081000BDE8F0811047005040420F00FF8080F09B
:1008200037B504460020FFF71DFEFFF7F1FEE37920
:10083000A3B9607AFFF754FE207AFFF7CFFE207C41
:10084000FFF75EFE607CFFF76FFEA07CFFF762FEA5
:10085000E07CFFF773FEA3796BB106E0FFF7FCFEC7
:10086000FFF7F0FE0028FBD0E3E7FFF717FFFFF7E5
:1008700035FF0028FBD0E37813B9FFF745FF09E007
:10088000FFF738FFA578A088E17862782378009593
:10089000FFF752FFE068B0F5803F01D1FFF7E2FDBE
:1008A00003B0BDE83040FFF705BD000010B50446B9
:1008B0001020FFF76BFE074B9C4201D1802004E023
:1008C000054B9C4205D14FF48070BDE81040FFF706
:1008D000A3BD10BD000002400040024038B50446F0
:1008E0000D46FFF7E3FFE36843F48073E36023689A
:1008F00023F4404343EA8531216038BD012303617D
:100900000B6843614B7BC3F300131B0543600B7BF8
:1009100003F00F0343620B7B1B09C3624B7B03F0A5
:100920000F0303624B6883618B6883F01403836455
:1009300070474163704709B9C263704742647047AA
:10094000092930B59CBF094C094DD0F8A83099BF92
:1009500034F81140695C0C214FF4405423EA04033D
:100960008A401A43C0F8A82030BD00BF30270008D5
:100970004427000870B50D46164604460748FFF7A1
:100980004BFD04EBC5003368436073688360012D41
:100990009EBF836843F08073836070BD20000010A9
:1009A00070B5144605460E46FFF750FDB0FBF4F057
:1009B0000F280BD9B0F5801F0AD205EBC6014C6891
:1009C000230D1B0503434B60002070BD042070BD48
:1009D000032070BD0B1D00EB830370B55E68C36917
:1009E0000C01E340C3F30B039B1B03FB0222BDE896
:1009F0007040FFF7D5BF00EBC10100204B6823F426
:100A0000E00343F480134B60704738B500EBC1043A
:100A1000656825F4E0056560154662B1A26822F4B8
:100A2000CE222A43A260636823F4E00343F4001358
:100A30006360002038BD1A46FFF7B2FF0028EDD0F2
:100A400038BDF8B50EB200EBC6040D46D4F804C0AC
:100A5000DDF818E0043500EB85052CF4E00CC4F853
:100A600004C06A60C569320140F6FF76964025EA07
:100A7000060593402B43C361A36823F4CE234EEABB
:100A80000303A360BEF1000F07D0636823F4E00303
:100A900043F4A00363600020F8BD079AFFF79AFFB4
:100AA0000028F2D0F8BD38B500EBC104656825F424
:100AB000E0056560154662B1A26822F4CE222A43A1
:100AC000A260636823F4E00343F4800363600020C2
:100AD00038BD1A46FFF764FF0028EDD038BD70B569
:100AE00014780123D55C03EB83060133B540062B54
:100AF00044EA0504F6D100EBC10101230C6212F8AF
:100B0000060F12F8014F03EB83050133AC40062BAF
:100B100040EA0400F5D1486270BD2DE9F84300EBCE
:100B2000C10498466368089D23F4E00306460F4617
:100B3000914663605DB1304639464A46FFF7CFFFC4
:100B4000B8F1010F09D1636843F0005308E0099A36
:100B50005201FFF725FF80B9EDE7636823F00053EA
:100B60006360A36823F4CE232B43A360636823F45C
:100B7000E00343F4401363600020BDE8F883436F53
:100B8000490010B503248C4023EA04034367436FF4
:100B90008A401343436710BD0120FFF73DBC38B5C1
:100BA0000D460446FFF7F8FF6B6923606B6843F45A
:100BB0000043C4F88030AB68C4F8A030EB68C4F8D8
:100BC000A4302B69C4F880322B68C4F8B83038BD23
:100BD000D0F8803043F00043C0F880300023084A4A
:100BE00052F82320D2F8801011F4403F04D0D2F8FC
:100BF000801011F0805FF9E70133042BEFD17047CB
:100C000050270008F0B542B901F01F051F26C1F3B7
:100C100002214FF4E06E082709E0C1F304454FF4C8
:100C2000F816C1F302614FF0E06E1022182700EBB6
:100C30008303B940D3F8A04024EA0E04214321EAFB
:100C4000060195402943C3F8A010F0BDF8B5002275
:100C50000C46054613464968FFF7D4FF28466168ED
:100C600001220023FFF7CEFF2846A16800220123BE
:100C7000FFF7C8FF012213462846A168FFF7C2FF0D
:100C8000A0782369C5F8803000F01F062078E3685B
:100C9000E178C5F8B83000F0070040EA0640C5F832
:100CA000F001D5F8F021C1F3001742F00042C1F382
:100CB000810342EA0772C1F3401142EA836343EAC7
:100CC0004173C5F8F031F8BDD0F8803023F003034C
:100CD0001943C0F880107047D0F8C0308A4288BFEE
:100CE000013123F003031943C0F8C0107047D0F856
:100CF000C03023F00303C0F8C03070470C4BC21A59
:100D0000534253410B4A904205D002F58062904213
:100D100008BF032300E00223994238BF0131D0F815
:100D2000C020033101238B401343C0F8C03070470B
:100D300000480040004C0040D0F884300A7823F08E
:100D40008073C0F88430D0F8843010B523F00303EA
:100D5000C2F38104234312F0030218BF43F00803D7
:100D6000C0F884304B6843F0802343F40003C0F89C
:100D700000318B6843F00103C0F80431022A02BF3E
:100D8000D0F8043143F48033C0F80431D0F8843013
:100D900043F08073C0F8843010BDD0F8C03123F028
:100DA0000F031943C0F8C011704730B50123D0F8C4
:100DB00088508B4025EA0304137A8B402343C0F804
:100DC000883092F90930002B19DB012907D1D0F8BE
:100DD000B03023F4F853C0F8B030082507E029B943
:100DE000D0F8B03023F01F03C0F8B030002592F9DE
:100DF0000930D0F8B040AB402343C0F8B030D0F851
:100E0000C84053682343C0F8C8308031136840F8A5
:100E1000213030BD704790F8303010B5044663B1D2
:100E20008268D2F8A43043F00103C2F8A43080688D
:100E300094F82A200021FFF783FD94F8313073B134
:100E4000A268D2F8A43043F00403C2F8A430A0682A
:100E500094F82B200221BDE81040FFF771BD10BDB2
:100E600090F8293013F0FB0F10B50DD1416890F8C0
:100E70002E40CB68012202FA04F42343CB6083683E
:100E8000DA60032380F8293010BD90F82930022B56
:100E900010B50FD0826801231361826802211161AD
:100EA000416890F82E408A68A34013438B60042366
:100EB00080F8293010BD90F82930022B10B5044677
:100EC00017D042F21070814213D8E2692162C1F555
:100ED0001C53103302FB03330021B3FBF0F2A06874
:100EE000A26192B2FFF727FD6368626A1A6100206F
:100EF00010BD012010BD90F82830012B01D1FFF763
:100F0000AFBF704770B590F82960022E044629D112
:100F1000006800F089F8054608BBA068E168FFF7A3
:100F2000EDFCA068A18BFFF704FD2946A068228B89
:100F3000FFF701FD6368626A1A612046FFF76BFFE5
:100F4000206994F82C106269FFF710FA94F82F309A
:100F500084F829503BB12046FFF7CDFF03E084F829
:100F6000296000E00125284670BD90F82830012B4B
:100F700001D1FFF7C7BF0120704790F82830012B3F
:100F800001D1FFF782BF704790F82830012B01D1C3
:100F9000FFF791BF01207047204BF0B5D968057865
:100FA00042788778C1F30221C1F1070EBEF1060F26
:100FB00028BF4FF0060E01B10139012404FA01F3F4
:100FC000013B04FA0EF403EA0706631E13408B404C
:100FD0006AB2002A43EA06034FEA8303AFBF02F175
:100FE000604205F00F050E4ADBB2A5BF02F5614273
:100FF000DBB2535582F80033C3786BB1027853B239
:10100000002BA1BF012102F01F0201FA02F25B09CD
:10101000A4BF044941F823200020F0BD00ED00E00A
:1010200014ED00E000E100E0437B10B5044653B945
:101030008068217BFFF752FCA268D36843F4807379
:10104000D36001236373002010BDF8B5037E022B2B
:10105000044629D140692169FFF7A1FD271F002619
:1010600057F8043F93E80300FFF7F0FD3B680321C6
:101070001868FFF729FE39680B7A4BB9606906F1E9
:101080001005D0F880200123AB401343C0F8803016
:1010900001360023042E4B721D46E1D1637E13B14D
:1010A0006069FFF795FD2576207EF8BD10B50446F2
:1010B000221D217C0068FFF759F92068217C627CA1
:1010C000FFF75DFD002010BD8368B3F5401F13B529
:1010D00004460BD1C26890F82210037C009242694A
:1010E00001920068626AFFF718FD59E0B3F5801FAE
:1010F0000BD1006894F82210FFF77DFC94F82230A1
:101100002268043302EB83031CE0B3F5001F1CD1FB
:10111000E26894F8221063690068FFF776FC94F89F
:101120002030012B08BF94F82220236801BF03EB75
:10113000C202516841F08041516094F8222004328B
:1011400003EB820300225A602AE0B3F5A00F19D105
:1011500090F82210028B438BC06800906069019068
:101160002068FFF76EFC236894F82220616803EB87
:10117000C2020979936801F00F0123F00F030B43BA
:1011800093600DE0B3F5800F09D1006894F8221048
:10119000E268636902B0BDE81040FFF784BC00203C
:1011A00002B010BD10B50446006894F822106268C1
:1011B000FFF7E0FB2046FFF787FF94F8283043B99C
:1011C00094F82220236803EBC2035A6822F4E00259
:1011D0005A6094F82130012B01BF2268936843F4D0
:1011E00000439360003018BF012010BD194B1A4A0C
:1011F000D96821F4E0610904090C0A43DA6072B687
:10120000164A9A60BFF34F8F62B6D3F8882014480D
:1012100042F4700241F21401C3F88820425822F0CF
:101220000F0242F0030242505A6922F010025A6142
:101230005A6922F008025A615A6A22F480325A62CC
:101240005A6A22F400325A625A6A22F480225A629E
:10125000704700BF00ED00E00001FA050000000843
:101260000010005806EE900A9FED1C7A1C4AF5EE1D
:10127000007AE6EE877ABDEEE77AF5EEC07A17EEF1
:10128000103AF1EE10FA48BF03F1FF3307EE103ABF
:10129000B8EEC77A77EEC77A9FED127A67EE877A53
:1012A000BCEEE77A17EE103AC3F3080307EE103AE4
:1012B000B8EE477A02EB830177EEC77AD1ED016A87
:1012C000B7EE007A37EE677A67EEA67AD1ED006A5C
:1012D000E7EE267A17EE900A704700BF83F9223EA8
:1012E000042900080000004407EE900AF5EEC07AD9
:1012F000F1EE10FA06D59FED1F7AF4EEC77AF1EE03
:1013000010FA33DA9FED1C7A1C4A27EE877AF5EE45
:10131000C07AFDEEC76AF1EE10FA16EE903A48BFB9
:1013200003F1FF3307EE903AF8EEE77AF7EE006A42
:1013300037EE677ADFED127A67EE277ABCEEE77A4E
:1013400017EE103AC3F3080307EE103AB8EE477AE7
:1013500002EB830177EEC77A91ED017A76EEE76AC8
:1013600067EE877A91ED007AE6EE877A17EE900ABB
:10137000704700BFCD024CB483F9223E0429000817
:1013800000000044012303700020704700487047AC
:10139000001BB70030B5114D0FCD87B001AC0FC4A5
:1013A0002B68236001A8FFF73BFA0020FFF788F8BD
:1013B0000020FFF761F80420FFF7CAF82021012080
:1013C000FFF7EAF80020FFF761F80120FFF7D4F8F3
:1013D0000120FFF7C7F807B030BD00BF0831000893
:1013E000084B427D10B5446853F822100023827DDB
:1013F000934206D254F823201268C1F81021013319
:10140000F5E710BD1C31000810B513480021FFF7A7
:101410005BFC12480021FFF757FC11480021FFF741
:1014200053FC10480021FFF74FFC03240E4B2246CB
:1014300053F824000021FFF74FFC21460948FFF72D
:101440005DFC013CF2D10748FFF751FC0548032140
:10145000BDE81040FFF738BC00500040004C004091
:1014600000480040004400401C310008427D054B0C
:1014700053F82220D2F8843043F08073C2F88430CD
:10148000704700BF1C310008C3681A7B82B1027D1F
:10149000032A0DD11A6853B2002BA1BF012102F01B
:1014A0001F0201FA02F25B09A4BF024941F823209E
:1014B000704700BF00E100E02DE9F84F03691B7899
:1014C000022B044640F09F800120FEF7AFFF504EF4
:1014D00038B9637D56F82330D3F88470C7F30067BA
:1014E00000E0002794F815904A48E568FFF7ADFD45
:1014F00056F82990AB7E2969002280464846FFF7BE
:1015000081FB69694846FFF717FCD9F80421297E59
:1015100022F00302C9F80421D9F804310B43C9F8B9
:1015200004312B7B002B38D03B4B2868D9686A6884
:10153000AB68C1F30221C1F1070BBBF1060F5FFAE3
:1015400080FE28BF4FF0060B01B101394FF0010CAE
:101550000CFA01FA0AF1FF3A0CFA0BFC0AEA030A48
:101560000CF1FF3313408B404FFA8EF2002A4AEA07
:1015700003034FEA8303ADBF02F1604200F00F00A6
:10158000264A02F56142B9BFDBB21354DBB282F8DE
:1015900000334846697EFFF700FC47B9637D56F883
:1015A0002320D2F8843023F08073C2F88430FFF710
:1015B0002BFF94F817900027FBB24B4517D22368F6
:1015C00053F827502B7A697A56F823002A68FFF7D8
:1015D000ECFB2B7A696856F823202B6809689B7806
:1015E00003F00F03A033013742F82310E4E720464D
:1015F000FFF74AFF2046FFF7F3FE2046FFF736FFCE
:10160000236983F8008023691878BDE8F88F00BF4C
:101610001C310008EC00002000ED00E014ED00E0BB
:1016200008B52A48FFF7AEFE00284DD12848FFF73D
:101630009CFC002848D12748FFF797FC002843D19D
:101640002548FFF792FC00283ED12448FFF7A4FC70
:10165000002839D12248FFF788FC002834D12148DE
:10166000FFF724FD80BB2048FFF726FF60BB1F4823
:10167000FFF71CFD40BB1E48FFF794FD20BB1D4833
:10168000FFF714FD00BB1C48FFF710FDE0B91B4835
:10169000FFF70CFDC0B91A48FFF708FDA0B91948BB
:1016A000FFF704FD80B91848FFF700FD60B917483F
:1016B000FFF7FCFC40B91648FFF7F8FC20B91548C5
:1016C000BDE80840FFF7F8BE08BD00BFC00100201C
:1016D000000000206800002034000020D02700080F
:1016E0009C0000203C2800084831000850280008D1
:1016F00034010020A0280008642800087828000889
:10170000B4280008C8280008DC280008F0280008D1
:101710008C2800086431000807EE103A06EE902A83
:10172000D1ED007A06EE100AB5EE407AF1EE10FA2D
:10173000E6EE267A14D0F4EEC77AF1EE10FA04DD64
:1017400037EEC77AA7EEA67A08E0F5EEC07AF1EE9A
:1017500010FA05D537EE877AA7EEE67AF0EE477AEB
:10176000C1ED007A17EE900A704770B504462DED72
:10177000028B10460D461646FFF774FD08EE100A60
:101780003046FFF7B1FDD4ED017AD4ED006A07EEE3
:10179000100A67EEC77AE8EE267AC5ED007AD4ED36
:1017A000017A28EE278AD4ED007AA7EE278A85ED04
:1017B000018ABDEC028B70BD03680B6090ED017A6D
:1017C000DFED0B7A90ED006A27EE277AFEEE006AD5
:1017D000A6EE267A81ED017A90ED017A67EEC77A5E
:1017E00090ED007AE7EE267AC1ED027A704700BFED
:1017F000D7B35D3F2DE9F04FC94B9FEDCA6A93F80F
:1018000010A01A68DFEDC86ADFEDC85AC84CDFF8CF
:10181000C483DFF8C4B3C74FDFF8C093012303FAD2
:101820000AF32DED088B5360C34B197A1B6883B004
:101830009B780092C14A03F00F0352F82110C03385
:1018400051F82300BE4B197A1B6852F821109B787F
:1018500003F00F03C03380B251F82310B94B20803E
:101860001D7A1B6852F825509B7807EE900A03F00A
:101870000F03C033F8EEE77A89B255F82330618060
:1018800037EEC66A07EE901A9BB2B8EEE77A07EE1B
:10189000903A77EE666AB8EEE77ADFEDAB7AA3802E
:1018A00077EE677A66EEA56A67EEA57A26EE256A78
:1018B000A64C84ED006AC4ED016AC4ED027AA44C22
:1018C000257A246852F82550A47804F00F04C03417
:1018D00055F824409F4D2C809F4C267A246852F85E
:1018E0002660A47804F00F04C03456F824406C80BD
:1018F0009A4C267A246852F82660A47804F00F04E3
:10190000C03456F82440AC80954C964E257A52F857
:1019100025502268944C927802F00F02C03255F89C
:101920002220924D92B207EE102A914AB8EE477AE1
:1019300082ED007A07EE100A8E4A2068B8EE477AE8
:1019400082ED007A07EE101A8B4AB8EE477A4FF014
:101950007E5182ED007A07EE103A884BB8EE477A56
:1019600083ED007A864B83ED006A864BC3ED006AF7
:10197000854BC3ED007A00F075FE844900F04CFE03
:101980004FF07E5120600BEE900A606800F06AFE16
:101990007E4900F041FE60607D4C0AEE900A4FF0F7
:1019A0007E51206800F05EFE784900F035FE4FF071
:1019B0007E5120600BEE100A606800F053FE734900
:1019C00000F02AFE6060734C0AEE100A4FF07E5160
:1019D000206800F047FE002100F01EFE20606E4CE3
:1019E00008EE100A4FF07E51206800F03BFE002107
:1019F00000F012FE2060694C09EE900A4FF07E5113
:101A0000206800F02FFE002100F006FE2060644CEC
:101A100009EE100A4FF07E51206800F023FE0021ED
:101A200000F0FAFD20605F4C08EE900A4FF07E5106
:101A3000206800F017FE002100F0EEFD68EE888AB5
:101A400007EE900A584BDFF898C1C3ED008A6BEEA1
:101A500088BA2BEE08BA6AEE88AA2AEE08AA69EEBE
:101A6000889A29EE089A514B206027EE888A2868C8
:101A700083ED008A4E494F4A4F4BCCED009ACDF88A
:101A800004C0C8ED00BA86ED00BAC8ED01AA86ED23
:101A900001AA8BED009AFFF73FFE484C4849D4ED70
:101AA000007A444A444B07EE100A77EE277A95ED08
:101AB000007AC7ED007AF1EE047A67EE277A17EE26
:101AC000900AFFF729FED4ED007A3E4B3E49394A91
:101AD00007EE100A77EE277A95ED007AC3ED007ACB
:101AE000F1EE0C7A67EE277A334B17EE900AFFF788
:101AF00013FED4ED007A354B35492E4A07EE100A15
:101B000077EE277A95ED007AC3ED007AF2EE067A49
:101B100067EE277A284B17EE900AFFF7FDFD61E08C
:101B20003C2800083DDAE2446696E144EC51383F37
:101B30001C02002058020020E43100081C3100087B
:101B400090310008083200088F4AE344B4020020B4
:101B50006032000884020020D8310008703200088A
:101B600038310008C0020020A4010020AC01002090
:101B7000C4800020D4800020C0800020F08000209D
:101B8000D0800020E8800020D8800020000080BFA6
:101B90008C020020A0010020640200202C02002002
:101BA000600200206802002024020020C4010020FE
:101BB000F801002017B7D138DB0FC940E801002039
:101BC0006C02002070020020D00200205C02002085
:101BD00030020020C8020020AC0200209C0200203D
:101BE0007C020020D4ED007A624B6349634A07EE21
:101BF000100A77EE277A95ED007AC9ED007AF2EEB9
:101C00000A7A67EE277A5E4D17EE900AFFF784FD99
:101C1000D4ED007A5B4C3A6807EE100A77EE277A2B
:101C200040462146C5ED007ADFF8C481FFF79DFDEF
:101C30003A68554F3046414682F00042FFF795FD25
:101C4000DDF804C0514B52491A68524E6046FFF706
:101C50008CFD514B51491A685846FFF786FDD9F85B
:101C600000204F484F49DFF84891FFF77EFD2A6872
:101C70004D484E49FFF779FD45484D49FFF79CFD1A
:101C800046484C49FFF798FD46483F49FFF794FD09
:101C900046484949FFF790FDD4ED007A98ED007A67
:101CA000D8ED016A454B46483A49DFF8088137EEDE
:101CB000877AD4ED017A83ED007A77EEA67A414BEC
:101CC00080ED007AC0ED017AC3ED007AFFF774FD74
:101CD000002596ED006AB9EC017AF8EC017A364BF2
:101CE000F7EC016A3849394C37EE067A2B4477EE27
:101CF000277A93ED007A77EEA67A77EE877A17EE59
:101D0000900A00F0AFFC324900F086FC9FED317A7A
:101D100046F8040B07EE900A67EE877AFDEEE77A45
:101D200017EE903A5B1003F59C5308332B510435A2
:101D30000C2DCED1284B21681960284B62681A609F
:101D4000274BA26827481A60FFF71EF961682648EA
:101D5000FFF71AF9A1682548FFF716F9009A4FF422
:101D6000803303FA0AF3536003B0BDEC088BBDE87F
:101D7000F08F00BFDB0FC9403402002017B7D13805
:101D8000A002002044020020EC010020700200208C
:101D9000D8010020380200205C020020E001002071
:101DA0002402002014020020C4010020A40200200C
:101DB000FC01002008020020CC010020E08000206F
:101DC00094020020BC800020EC51783F4C0200209F
:101DD000EC5178BF00401C46DC800020E4800020ED
:101DE000CC8000200000002034000020680000208B
:101DF000740200202DE9F843FFF712FC00B1FEE762
:101E0000274B186842F21073B0FBF3F000F036FB7A
:101E1000244B2548197C1A684FF4803303FA01F1EA
:101E20005160224A1168127C03FA02F24A60204A89
:101E300092F81090176803FA09F27A601D4A92F836
:101E40001080166803FA08F272601B4A147C156849
:101E5000A3406B60FFF791F81848FFF78EF8184819
:101E6000FFF78BF81748FFF746F8174B174A1A6029
:101E7000012303FA09F903FA08F803FA04F40A48FB
:101E8000FFF739F80D48FFF736F80D48FFF733F83C
:101E9000C7F80490C6F804806C6000F073FBEEE7AE
:101EA000C0FF0020A0280008000000208C280008A7
:101EB000B4280008C8280008DC28000834000020E6
:101EC000680000209C000020AC01002063149D43AA
:101ED000054A064913680B600133B3F57A7F28BFC2
:101EE00000231360704700BF0071002050220020C3
:101EF0000368012B10B55AD12D4B02791B68062AB5
:101F000055D8DFE802F00410212D3F3F4F008268D2
:101F1000016906335AB1047B09780122A2400A40C4
:101F200018BF01220DE08268016906330AB90A78F8
:101F300007E0047B09780122A2400A40003218BF62
:101F4000012200F8232010BD8268016906335AB1CE
:101F5000047B09880122A2400A4018BF01220EE03A
:101F60008268016906330AB90A8808E0047B098897
:101F70000122A2400A4012B2002A18BF012220F812
:101F8000232010BD8268016906330AB90A6806E099
:101F9000047B09680122A2400A4018BF012240F8D0
:101FA000232010BD026900EB83001268826110BD1E
:101FB0000071002008B50D48FFF79AFF0C48FFF7A5
:101FC00097FF0C48FFF794FF0B48FFF791FF0B4872
:101FD000FFF78EFF0A48FFF78BFF0A48FFF788FFDD
:101FE0000948BDE80840FFF783BF00BFE0020020BA
:101FF0009812002004710020542200200C3200208E
:10200000C44100207C51002034610020A24A138882
:10201000012B70B5114602D9013B138070BD9F4B57
:102020001A880AB901221A809D4D1B880B802B78D3
:10203000032B00F20D82DFE813F004001B00DD012A
:10204000F401984A00231360974A1360974A13607B
:10205000974A1360974A1360974A1360974B1A6820
:10206000974B1A60FFF7A6FFFFF732FF0123F0E15D
:10207000FFF7A0FF924A8C4C136813B1013B136029
:10208000AAE1904B1A78013A072A13D8DFE802F048
:10209000140406080A0C0E108B4B0EE08B4B0CE060
:1020A0008B4B0AE08B4B08E08B4B06E08B4B04E03C
:1020B0008B4B02E001221A708A4B002222601A68C0
:1020C000012A40F089818848784A00687849126876
:1020D00009680128187940F0B280062800F27C8156
:1020E000DFE800F0041A31475E719000986806320C
:1020F00048B913F822008A1D13F82220904280F07C
:102100006B811B7D58E013F82220002A40F0648187
:102110008A1D13F8223071E09E68901D56B98A1D01
:1021200013F9200013F92220904280F2558193F98F
:10213000143054E013F92020002A40F04D818A1D0C
:1021400013F922305AE09868063248B933F8220071
:102150008A1D33F82220904280F03E819B8A2BE03A
:1021600033F82220002A40F037818A1D33F82230CC
:1021700044E09E68901D56B98A1D33F9200033F95A
:102180002220904280F22881B3F9143027E033F9FD
:102190002020002A40F020818A1D33F922302DE0D2
:1021A0009868063210BB53F822008A1D53F822208B
:1021B000904280F011815B69984200F20D819A4251
:1021C000C0F00A8104E19868063278B953F8220019
:1021D0008A1D53F82220904280F2FE805B6998426B
:1021E00000F3FA809A42C0F2F780F1E053F822201F
:1021F000002A40F0F1808A1D53F82230002B00F0B5
:10220000EB80E5E003EB8202D2ED066A03EB81028C
:1022100092ED067AF4EEC76AF1EE10FA40F1DC8036
:10222000D3ED057AF4EEE76AF1EE10FA00F2D4800D
:10223000B4EEE77AF1EE10FAC0F2CE80C8E00628DC
:1022400000F2CA80DFE800F0041A5A6E8393AB00F4
:102250009868063248B913F822008A1D13F8222024
:10226000904240F2B9801B7D7CE013F82220002AC6
:1022700000F0B2808A1D13F822308EE09E68901D17
:10228000A6BB8A1D13F9200013F92220904240F3C7
:10229000A38093F9143075E0DE020020D402002000
:1022A000DC0200200C810020F4800020502200205D
:1022B00000710020F4700020F870002000810020E0
:1022C000D8020020F0700020981200200471002035
:1022D000542200200C320020C44100207C510020F8
:1022E00034610020E0020020FC70002013F920205F
:1022F000002A71D08A1D13F922304EE09868063208
:1023000040B933F822008A1D33F82220904263D965
:102310009B8A27E033F82220002A5DD08A1D33F8FB
:1023200022303AE09E68901D4EB98A1D33F9200094
:1023300033F9222090424FDDB3F9143022E033F913
:102340002020002A48D08A1D33F9223025E09868E1
:102350000632E0B953F822008A1D53F82220904239
:102360003AD95B69984237D39A4235D830E09868B9
:10237000063260B953F822008A1D53F82220904299
:102380002ADD5B69984227DB9A4225DC20E053F87E
:1023900022200AB38A1D53F82230EBB918E003EB70
:1023A0008202D2ED066A03EB810292ED067AF4EE28
:1023B000C76AF1EE10FA0FDDD3ED057AF4EEE76AA5
:1023C000F1EE10FA08DBB4EEE77AF1EE10FA03D87A
:1023D00001232360204B1960FFF77AFD2368012B4E
:1023E00038D11E4B1E4A1B68C3F579730233136044
:1023F00002232EE0FFF7DEFDFFF76AFD184A13689F
:1024000093B9184A1178012917BF174B13701A682E
:10241000164B1CBF1A6003232B70154B01221A6048
:1024200070BD124A136813B1013B136070BD104BAD
:102430001B687BB90F4A1360084B1A680E4B1A6071
:1024400001232B70FFF7B6FDBDE87040FFF740BDDC
:1024500000232B7070BD00BFFC8000200081002095
:10246000F8700020F170002004810020F47000203A
:102470000C810020F4800020D8020020234A244947
:10248000002370B51360234A234C1360234A244E63
:102490001360244A1360244A1360244A1360244AB8
:1024A0001360244A1360244A1370244A13700122D3
:1024B0000A7023490B6023490B6023490B602349B1
:1024C0000B602360224C2360224C23600C6822495D
:1024D0000C6022494FF47A740C6021490A6021494A
:1024E0000D8821490C78214909683668314411FA70
:1024F00085F121441E4C21601E490A801E490B8033
:102500001E4B18601E4B1A6070BD00BFE002002019
:10251000F070002098120020048100200471002037
:10252000B4010020542200200C320020C4410020BD
:102530007C51002034610020F1700020DC0200207A
:102540005022002000710020F48000200081002033
:10255000F47000200C810020D8020020F8700020C8
:10256000FC700020B8010020B0010020BC01002058
:10257000EC700020D4020020DE020020F880002051
:102580000881002038B51D4B1B78032B34D8DFE8B9
:1025900003F0022F0B2F1A4B00221A70194B1A88C6
:1025A00052BB01221A8038BD174B1A681D46DAB992
:1025B000164B17491A600A88012A1C46084602D998
:1025C000013A0A8010E00F4B1A880AB901221A80DA
:1025D0001B880380FFF7EEFCFFF77AFC0D4B1B68AE
:1025E00013B901232B602360054B00221A7038BDFC
:1025F000BDE83840FFF70ABD38BD00BFF1700020CC
:10260000DC020020D40200200C810020F480002095
:10261000DE0200200071002008B52DED028B08EECF
:10262000900A08EE101A00F043F820B918EE100ACC
:10263000BDEC028B08BD18EE100A00F039F858B155
:10264000F4EEC88AF1EE10FAD4BF18EE100A18EEB4
:10265000900ABDEC028B08BD18EE900ABDEC028B0F
:1026600008BD00BF08B52DED028B08EE900A08EEFC
:10267000101A00F01DF820B918EE100ABDEC028BFC
:1026800008BD18EE100A00F013F858B1F4EEC88A2D
:10269000F1EE10FA54BF18EE100A18EE900ABDECD5
:1026A000028B08BD18EE900ABDEC028B08BD00BF7E
:1026B00030F0004001D102207047A0F50003B3F1D3
:1026C000FE4F01D204207047054B421E9A4201D8AA
:1026D00003207047A0F1FF40B0FA80F04009704736
:1026E000FEFF7F0070B50E4B0E4CE41AA4100025BF
:1026F0001E46A54204D056F8253098470135F8E724
:10270000FEF788FB084C094BE41AA41000251E466E
:10271000A54204D056F8253098470135F8E770BD3A
:10272000C0010020C0010020C0010020C001002025
:10273000030003000C000C003000300000300030BB
:102740000003000C0000020204040C0C080A000044
:102750000044004000480040004C00400050004051
:102760009800000000000100040000009800000034
:1027700000000100040000009800000000000100BB
:102780000400000000000000000000000000000045
:102790000000000000000000000000000000000039
:1027A000000000009800000000000100040000008C
:1027B0000000000000000000000000000000000019
:1027C0000000000000000000000000000000000009
:1027D0003F3F00010000000000000000000000007A
:1027E00000000000000000000000000000000000E9
:1027F00000000000000000000000000000000000D9
:1028000000000000000000000000000000000000C8
:1028100000000000030000000000000000000000B5
:1028200000000000000000000000000000000000A8
:1028300000000000000000000000000000810248CD
:102840008000000000000100000000000000000007
:10285000008102488000000000000100000000002C
:102860000100000000810248080000000000000094
:10287000000000000F0000000080024880000000FF
:102880000000010000000000090000000083024871
:1028900080000000000001000000000002000000B5
:1028A00000850248800000000000010000000000D8
:1028B00007000000008002488000000000000100C6
:1028C00000000000080000000080024880000000B6
:1028D00000000100000000000C0000000080024821
:1028E0008000000000000100000000000200000065
:1028F0000083024808000000000000000000000003
:102900000300000000000000920E493CB10AC93CDF
:102910002BC3163D2EFB483D752B7B3D04A9963DF0
:1029200080B6AF3D36BDC83D2FBCE13D73B2FA3D28
:1029300087CF093E8340163EB5AB223EA2102F3E04
:10294000CF6E3B3EC2C5473E0115543E135C603E10
:102950007F9A6C3ECCCF783EC07D823E938E883E7F
:10296000229A8E3E32A0943E86A09A3EE59AA03EE0
:10297000128FA63ED47CAC3EEF63B23E2A44B83EF2
:10298000491DBE3E15EFC33E53B9C93ECA7BCF3E7B
:102990004136D53E80E8DA3E4F92E03E7533E63E62
:1029A000BBCBEB3EEA5AF13ECBE0F63E275DFC3E68
:1029B000E4E7003F3D9C033F824B063F9BF5083F09
:1029C0006B9A0B3FDA390E3FCDD3103F2A68133F85
:1029D000D9F6153FC07F183FC6021B3FD17F1D3F70
:1029E000CBF61F3F9967223F25D2243F5636273F1B
:1029F0001594293F4AEB2B3FDE3B2E3FBB85303FF2
:102A0000C9C8323FF304353F233A373F4268393F64
:102A10003B8F3B3FF9AE3D3F67C73F3F70D8413FDB
:102A200001E2433F03E4453F65DE473F12D1493FA2
:102A3000F8BB4B3F029F4D3F207A4F3F3D4D513FEA
:102A40004918533F31DB543FE595563F5348583FB3
:102A50006AF2593F1A945B3F532D5D3F05BE5E3FBE
:102A60002146603F97C5613F5A3C633F59AA643F86
:102A7000880F663FD86B673F3CBF683FA7096A3F36
:102A80000C4B6B3F5E836C3F93B26D3F9ED86E3FA5
:102A900073F56F3F0809713F5213723F4714733F3C
:102AA000DD0B743F0BFA743FC6DE753F07BA763F05
:102AB000C58B773FF853783F9812793F9DC7793F90
:102AC00002737A3FBE147B3FCDAC7B3F283B7C3FFB
:102AD000C9BF7C3FAC3A7D3FCCAB7D3F23137E3FEB
:102AE000B0707E3F6DC47E3F580E7F3F6D4E7F3F7E
:102AF000AB847F3F0FB17F3F97D37F3F43EC7F3F56
:102B000011FB7F3F0000803F11FB7F3F43EC7F3F85
:102B100097D37F3F0FB17F3FAB847F3F6D4E7F3FA9
:102B2000580E7F3F6DC47E3FB0707E3F23137E3FC3
:102B3000CCAB7D3FAC3A7D3FC9BF7C3F283B7C3F5F
:102B4000CDAC7B3FBE147B3F02737A3F9DC7793F7C
:102B50009812793FF853783FC58B773F07BA763F95
:102B6000C6DE753F0BFA743FDD0B743F4714733FAD
:102B70005213723F0809713F73F56F3F9ED86E3F45
:102B800093B26D3F5E836C3F0C4B6B3FA7096A3F6E
:102B90003CBF683FD86B673F880F663F59AA643FC8
:102BA0005A3C633F97C5613F2146603F05BE5E3F8B
:102BB000532D5D3F1A945B3F6AF2593F5348583F8B
:102BC000E595563F31DB543F4918533F3D4D513F4A
:102BD000207A4F3F029F4D3FF8BB4B3F12D1493FF8
:102BE00065DE473F03E4453F01E2433F70D8413F84
:102BF00067C73F3FF9AE3D3F3B8F3B3F4268393FA0
:102C0000233A373FF304353FC9C8323FBB85303FD5
:102C1000DE3B2E3F4AEB2B3F1594293F5636273F8C
:102C200025D2243F9967223FCBF61F3FD17F1D3F1E
:102C3000C6021B3FC07F183FD9F6153F2A68133FD5
:102C4000CDD3103FDA390E3F6B9A0B3F9BF5083F0F
:102C5000824B063F3D9C033FE4E7003F275DFC3E7F
:102C6000CBE0F63EEA5AF13EBBCBEB3E7533E63E97
:102C70004F92E03E80E8DA3E4136D53ECA7BCF3EF9
:102C800053B9C93E15EFC33E491DBE3E2A44B83E66
:102C9000EF63B23ED47CAC3E128FA63EE59AA03ED6
:102CA00086A09A3E32A0943E229A8E3E938E883E13
:102CB000C07D823ECCCF783E7F9A6C3E135C603EF6
:102CC0000115543EC2C5473ECF6E3B3EA2102F3E7B
:102CD000B5AB223E8340163E87CF093E73B2FA3D24
:102CE0002FBCE13D36BDC83D80B6AF3D04A9963D41
:102CF000752B7B3D2EFB483D2BC3163DB10AC93CCD
:102D0000920E493C00000000920E49BCB10AC9BCB9
:102D10002BC316BD2EFB48BD752B7BBD04A996BDEC
:102D200080B6AFBD36BDC8BD2FBCE1BD73B2FABD24
:102D300087CF09BE834016BEB5AB22BEA2102FBE00
:102D4000CF6E3BBEC2C547BE011554BE135C60BE0C
:102D50007F9A6CBECCCF78BEC07D82BE938E88BE7B
:102D6000229A8EBE32A094BE86A09ABEE59AA0BEDC
:102D7000128FA6BED47CACBEEF63B2BE2A44B8BEEE
:102D8000491DBEBE15EFC3BE53B9C9BECA7BCFBE77
:102D90004136D5BE80E8DABE4F92E0BE7533E6BE5E
:102DA000BBCBEBBEEA5AF1BECBE0F6BE275DFCBE64
:102DB000E4E700BF3D9C03BF824B06BF9BF508BF05
:102DC0006B9A0BBFDA390EBFCDD310BF2A6813BF81
:102DD000D9F615BFC07F18BFC6021BBFD17F1DBF6C
:102DE000CBF61FBF996722BF25D224BF563627BF17
:102DF000159429BF4AEB2BBFDE3B2EBFBB8530BFEE
:102E0000C9C832BFF30435BF233A37BF426839BF60
:102E10003B8F3BBFF9AE3DBF67C73FBF70D841BFD7
:102E200001E243BF03E445BF65DE47BF12D149BF9E
:102E3000F8BB4BBF029F4DBF207A4FBF3D4D51BFE6
:102E4000491853BF31DB54BFE59556BF534858BFAF
:102E50006AF259BF1A945BBF532D5DBF05BE5EBFBA
:102E6000214660BF97C561BF5A3C63BF59AA64BF82
:102E7000880F66BFD86B67BF3CBF68BFA7096ABF32
:102E80000C4B6BBF5E836CBF93B26DBF9ED86EBFA1
:102E900073F56FBF080971BF521372BF471473BF38
:102EA000DD0B74BF0BFA74BFC6DE75BF07BA76BF01
:102EB000C58B77BFF85378BF981279BF9DC779BF8C
:102EC00002737ABFBE147BBFCDAC7BBF283B7CBFF7
:102ED000C9BF7CBFAC3A7DBFCCAB7DBF23137EBFE7
:102EE000B0707EBF6DC47EBF580E7FBF6D4E7FBF7A
:102EF000AB847FBF0FB17FBF97D37FBF43EC7FBF52
:102F000011FB7FBF000080BF11FB7FBF43EC7FBF81
:102F100097D37FBF0FB17FBFAB847FBF6D4E7FBFA5
:102F2000580E7FBF6DC47EBFB0707EBF23137EBFBF
:102F3000CCAB7DBFAC3A7DBFC9BF7CBF283B7CBF5B
:102F4000CDAC7BBFBE147BBF02737ABF9DC779BF78
:102F5000981279BFF85378BFC58B77BF07BA76BF91
:102F6000C6DE75BF0BFA74BFDD0B74BF471473BFA9
:102F7000521372BF080971BF73F56FBF9ED86EBF41
:102F800093B26DBF5E836CBF0C4B6BBFA7096ABF6A
:102F90003CBF68BFD86B67BF880F66BF59AA64BFC4
:102FA0005A3C63BF97C561BF214660BF05BE5EBF87
:102FB000532D5DBF1A945BBF6AF259BF534858BF87
:102FC000E59556BF31DB54BF491853BF3D4D51BF46
:102FD000207A4FBF029F4DBFF8BB4BBF12D149BFF4
:102FE00065DE47BF03E445BF01E243BF70D841BF80
:102FF00067C73FBFF9AE3DBF3B8F3BBF426839BF9C
:10300000233A37BFF30435BFC9C832BFBB8530BFD1
:10301000DE3B2EBF4AEB2BBF159429BF563627BF88
:1030200025D224BF996722BFCBF61FBFD17F1DBF1A
:10303000C6021BBFC07F18BFD9F615BF2A6813BFD1
:10304000CDD310BFDA390EBF6B9A0BBF9BF508BF0B
:10305000824B06BF3D9C03BFE4E700BF275DFCBE7B
:10306000CBE0F6BEEA5AF1BEBBCBEBBE7533E6BE93
:103070004F92E0BE80E8DABE4136D5BECA7BCFBEF5
:1030800053B9C9BE15EFC3BE491DBEBE2A44B8BE62
:10309000EF63B2BED47CACBE128FA6BEE59AA0BED2
:1030A00086A09ABE32A094BE229A8EBE938E88BE0F
:1030B000C07D82BECCCF78BE7F9A6CBE135C60BEF2
:1030C000011554BEC2C547BECF6E3BBEA2102FBE77
:1030D000B5AB22BE834016BE87CF09BE73B2FABD20
:1030E0002FBCE1BD36BDC8BD80B6AFBD04A996BD3D
:1030F000752B7BBD2EFB48BD2BC316BDB10AC9BCC9
:10310000920E49BC00000080500204010000010042
:103110000000000000000100010101010044004026
:1031200000480040004C00400050004000002800D3
:103130000000000001FF00003032000844310008A8
:103140000003000000000000700100208C0100203E
:1031500000000000B03100086001002003000404FA
:103160000100000064010020800100200000000038
:10317000403200089C01002003010303010000000D
:10318000000000000000000000000000000000003F
:103190008832000828320008010500000000000005
:1031A00020000000000000000000000000000000FF
:1031B000000000000000000000000000000000000F
:1031C00000000000843100080100000000002F0012
:1031D00000000000010100002C310008003200084E
:1031E00000070000CC3100089C31000800000000FE
:1031F00026000000000025000000000001FF000084
:1032000000000000000000007C32000804320008CA
:1032100001060000000000002300000000002F0055
:103220000000000001FF0000000000002500000079
:10323000000024000000000001FF00002700000043
:10324000000000000000000000000000000000007E
:1032500000000000A4310008010000002700000069
:103260001C3200081432000801070000250000008D
:10327000F431000880310008000500000000230040
:103280000000000001FF000000002000000000001E
:0432900001FF00003A
:10329400D00000200000024000010240C0270008C6
:1032A4000080024860270008E02E0000DF2E0000A6
:1032B40000000000050000000102000005000000FD
:1032C40000000000D0000020000002400004024082
:1032D4009427000800800248A4270008E02E00007C
:1032E400DF2E00000000000000500000010200007A
:1032F4000600030000000000D0000020000002408F
:1033040000020240B0270008008002486C27000831
:10331400E02E0000DF2E000000000000500000003E
:10332400010200000400010000000000D0000020A1
:103334000000024000030240842700080080024885
:103344007827000870170000DF2E000088130000A3
:103354000005000001020300030002000100000058
:10336400000E2707000100000000024000000000DA
:1033740000440040D427000801020000E0000020BF
:10338400080100202001002014010020102800085A
:10339400004000400201000000480040E827000807
:1033A4000102000000500040FC2700080102000058
:1033B400004C0040282800080102000000008000A2
:1033C40000000000008001482C01002000001000D3
:1033D40000000000000000000000000000000000E9
:1033E40000000000000000000000000001000000D8
:1033F4000200000090310008603200080832000822
:10340400E43100083831000870320008D83100086F
:103414002C3200085C320008F0310008A0310008AA
:10342400183200086C3200083C3200080200000028
:103434000000003F0000803F0000000063149D4333
:103444000800000001000000E80300000100000083
:0400000508000201EC
:00000001FF
