:020000040C00EE
:100000000008001001020008B1020008B102000857
:10001000B1020008B1020008B102000800000000AF
:10002000000000000000000000000000B102000815
:10003000B102000800000000B1020008B10200088F
:10004000B1020008B1020008B1020008B1020008C4
:10005000B1020008B1020008B1020008B1020008B4
:10006000B1020008000000000000000000000000D5
:10007000B102000800000000B1020008B10200084F
:10008000B1020008B1020008B1020008B102000884
:10009000B1020008B1020008B1020008B102000874
:1000A000B1020008B1020008B1020008B102000864
:1000B000B1020008B1020008B1020008B102000854
:1000C000B1020008B1020008B1020008B102000844
:1000D000B1020008B1020008B1020008B102000834
:1000E000B1020008B1020008B1020008B102000824
:1000F000B1020008B1020008B1020008B102000814
:10010000B1020008B1020008B1020008B102000803
:10011000B1020008B1020008B1020008B1020008F3
:10012000B1020008B1020008B1020008B1020008E3
:10013000B1020008B1020008B1020008E938000865
:10014000B1020008B1020008B1020008B1020008C3
:10015000B1020008B1020008B1020008B1020008B3
:10016000000000000000000000000000000000008F
:10017000B1020008B1020008B1020008B102000893
:10018000B1020008B1020008B1020008B102000883
:10019000B1020008B1020008B1020008B102000873
:1001A000B1020008B1020008B1020008B102000863
:1001B000B1020008B1020008B1020008B102000853
:1001C000B1020008B1020008B1020008B102000843
:1001D000B1020008B1020008B102000800000000EE
:1001E000B1020008B1020008B1020008B102000823
:1001F000B102000800000000B10200080000000089
:10020000DFF88CD023488047234C244DAC4209DAD8
:1002100021686268A368043BA2BFC858D050FAE7BF
:100220000C34F3E71E4B1F4CA34208DA19685A68D6
:100230000020043AA4BF8850FBE70833F4E71A48CB
:1002400080471A4880470000F864000C0000002036
:100250008C0200008467000C0000003000000000E9
:10026000F864000C0008001000000000F864000CA6
:1002700000080010000000008C020020E47F000055
:100280000000003000000000000800100000000026
:1002900000080010B50200084802000878020008B3
:1002A0007802000890020008A1580008D94100080F
:1002B000FEE7000098B500AF054A4FF00053144622
:1002C0000FCB84E80F0002F067F802F0CFF998BD79
:1002D000C4FF002080B584B000AF2F4BDB6803F46F
:1002E0008033002B3ED02D4BDB6803F00103002B45
:1002F00002D02B4BFB6002E002F0AEF9F860274B16
:100300001B6803F00403002B20D0244B9B6803F0F0
:1003100070631B0E0133BB60204B9B6803F4FE43EC
:100320001B0A01337B601D4B9B6803F4FE031B0C0F
:1003300001333B60BB683A6802FB03F3FA68B2FB27
:10034000F3F37A6802FB03F3FB600DE0134B9B6849
:1003500003F07F0301333B60FA683B68B2FBF3F3C1
:10036000FB6001E00E4BFB600B4BDB68DBB2013343
:10037000FA68B2FBF3F3FB60074B1B6903F0010360
:100380000133FA68B2FBF3F3FB60064AFB681360C3
:100390001037BD4680BD00BF0046005010470050DA
:1003A00000366E01C0FF002080B485B000AFF86059
:1003B0000B467A60FB72FB7A9B08DBB21846FB7A2D
:1003C0009B08DBB21A46FB68043253F82220FB7A02
:1003D00003F00303DB001946F8238B40DB4302EAFA
:1003E0000301FB68021D43F82210FB685A6FFB7A79
:1003F0005B00194603238B40DB431A40FB685A67B6
:10040000FB68374A934203D0FB68364A93420AD1CD
:10041000FB681A6EFB7A012101FA03F3DB431A40F1
:10042000FB681A663CE07B685A68FB7A9A40FB6876
:100430005A60FB7ADB08DBB21846FB7ADB08DBB2DA
:100440001A46FB68103253F82220FB7A03F00703A8
:100450009B00194607238B40DB4302EA0301FB683C
:1004600000F1100243F82210FB7ADB08DBB21846D9
:10047000FB7ADB08DBB21A46FB68103253F8222005
:100480007B681B7A1946FB7A03F007039B0001FA8D
:1004900003F342EA0301FB6800F1100243F8221063
:1004A000FB7A9B08DBB21846FB7A9B08DBB21A4644
:1004B000FB68043253F822207B681B781946FB7ACC
:1004C00003F00303DB0001FA03F342EA0301FB68D4
:1004D000021D43F822101437BD465DF8047B7047B7
:1004E000008E0248008F024880B400AF034B1B68A7
:1004F0001846BD465DF8047B704700BFC0FF002072
:1005000080B584B000AF7860FFF7E4FE0B4B1B684A
:100510000B4AA2FB03239A0C7B6802FB03F37B606C
:100520000023FB6003E000BFFB680133FB60FA6857
:100530007B689A42F7D31037BD4680BDC0FF0020CC
:1005400083DE1B43B0B584B002AF7860002000F0BA
:10055000B9F800F04BFA7B68DB79002B0AD000F089
:1005600083FA00BF00F06EFA034683F00103DBB2AA
:10057000002BF7D17B685B7A184600F01DF97B6889
:100580001B7A184600F00CFA7B681B7C184600F0BA
:1005900031F97B685B7C184600F054F97B689B7CE2
:1005A000184600F03BF97B68DB7C184600F05EF9EA
:1005B0007B689B79002B0AD000F088FA00BF00F01E
:1005C000ADFA034683F00103DBB2002BF7D17B6861
:1005D000DB78002B02D100F0C5FA14E000F0B2FA8B
:1005E0007B6899887B68DA787B685B781D467B68D6
:1005F0001B781C467B689B780093084611462A4668
:10060000234600F0BFFA7B68DB68B3F5803F03D177
:100610004FF4803000F056F8FFF75CFE0837BD4617
:10062000B0BD00BF80B485B000AF78607B681B0FA1
:10063000FB607B6823F07043BB60FA6813465B0085
:1006400013449B001A46044B1344BA681A601437CB
:10065000BD465DF8047B70471444005080B485B0FB
:1006600000AF78607B681B0FFB607B6823F07043F2
:10067000BB60FA6813465B0013449B001A46084BA4
:1006800013441A68BB681340002B14BF01230023D6
:10069000DBB218461437BD465DF8047B704700BFD7
:1006A0000C44005080B500AFFFF71EFF0246044B1C
:1006B0005B6903F0010322FA03F3184680BD00BF13
:1006C0000046005080B483B000AF78600649064B06
:1006D000DB6823F480327B681343CB600C37BD4664
:1006E0005DF8047B704700BF0046005080B483B0C3
:1006F00000AF78600649064B9B6923F480327B6823
:1007000013438B610C37BD465DF8047B704700BF17
:100710000046005080B483B000AF78600649064BB5
:100720005B6A23F440327B6813434B620C37BD464F
:100730005DF8047B704700BF0046005080B483B072
:1007400000AF0346FB80FB88002B08D10A4A0A4B06
:10075000DB6823F4807323F00103D36007E0064ACB
:10076000054BDB6843F4807343F00103D3600C371F
:10077000BD465DF8047B70471047005080B483B0DD
:1007800000AF0346FB7100BF094BD3F8C43003F040
:100790000803002BF8D10749064BDB6823F0400221
:1007A000FB791343CB600C37BD465DF8047B704783
:1007B000004000500043005080B483B000AF0346B7
:1007C000FB7100BF094BD3F8C43003F00803002BC2
:1007D000F8D10749064BDB6823F08002FB7913430D
:1007E000CB600C37BD465DF8047B7047004000507D
:1007F0000043005080B483B000AF78600649064BD8
:10080000DB6823F0FF027B68013B1343CB600C37AE
:10081000BD465DF8047B70470046005080B483B04D
:1008200000AF78600649064B1B6A23F001027B6823
:10083000013B13430B620C37BD465DF8047B7047E8
:100840000046005080B483B000AF78600649064B84
:100850001B6923F001027B68013B13430B610C37DA
:10086000BD465DF8047B70470046005080B483B0FD
:1008700000AF78600649064B5B6923F001027B6894
:10088000013B13434B610C37BD465DF8047B704759
:100890000046005080B483B000AF78600649064B34
:1008A0009B6923F007027B68013B13438B610C3784
:1008B000BD465DF8047B70470046005080B483B0AD
:1008C00000AF78600649064BDB6923F03F027B6886
:1008D000013B1343CB610C37BD465DF8047B704789
:1008E0000046005080B483B000AF78600649064BE4
:1008F0005B6A23F0FF027B68013B13434B620C37BA
:10090000BD465DF8047B70470046005080B483B05C
:1009100000AF0346FB71044AFB7953600C37BD46B8
:100920005DF8047B704700BF0046005080B483B080
:1009300000AF78603960194A184B5B6943F00103D6
:100940005361164A154B5B6943F010035361134919
:100950003B68013B1A027B68013B1B0613434B615A
:100960000E4A0E4B5B6943F0400353610B4A0B4B3D
:100970005B6923F010035361084A084B5B6943F439
:100980008023536100BF054B1B6903F00403002B58
:10099000F9D00C37BD465DF8047B70471047005016
:1009A00080B582B000AF0346FB710F4A0E4B5B6807
:1009B00043F480135360FB79012B0ED10A4A0A4B92
:1009C0005B6823F4801353606420FFF799FD064AA7
:1009D000054B5B6843F4002353606420FFF790FDF0
:1009E0000837BD4680BD00BF1047005080B400AF3F
:1009F000124B1B6803F00103002B09D10F4B01229E
:100A00005A6000BF0D4B1B6803F00103002BF9D0A7
:100A10000B4B1B6803F40073002B0AD0084B4FF4F8
:100A200000729A6000BF064B1B6803F40073002B32
:100A3000F9D1BD465DF8047B704700BF004200500D
:100A40000044005080B400AF064B1B6803F008035D
:100A5000002B0CBF01230023DBB21846BD465DF816
:100A6000047B70470043005080B400AF00BF154BBB
:100A7000D3F8C43003F08003002BF8D1124A124B94
:100A8000DB6923F03003D36100BF0E4BD3F8C430D1
:100A900003F00803002BF8D10B4A0B4BDB6843F043
:100AA0000803D36000BF074BD3F8C43003F004033E
:100AB000002BF8D1044B08229A60BD465DF8047BF8
:100AC000704700BF0040005000430050B0B500AF79
:100AD0000F4A0F4B5B6823F4803353600D4D0D4B71
:100AE0005B6823F4702424F0300401F0B5FD024665
:100AF000094BA3FB02231B0D013B1B0423436B602B
:100B0000034A034B5B6823F400335360B0BD00BF5E
:100B100010470050004700506BCA5F6B80B400AFB5
:100B2000074B1B6803F46073B3F5607F0CBF0123B0
:100B30000023DBB21846BD465DF8047B704700BF5A
:100B40001047005080B400AF054A054B5B6823F4A2
:100B5000803323F002035360BD465DF8047B704789
:100B60001047005080B400AF054A054B5B6843F462
:100B7000803343F002035360BD465DF8047B704749
:100B80001047005080B586B000AFBA607B60034666
:100B9000FB810B467B73FB891846FFF7CFFD7B7B00
:100BA000012B40F08480FB89002B09D101F054FD1A
:100BB00002464B4BA3FB02239B0C9B057B6102E08F
:100BC0004FF0C0637B617B697A6802FB03F2BB680C
:100BD000B2FBF3F37B617B69424AA2FB03231B094F
:100BE0009B0D3B61404A404B5B6843F001035360FF
:100BF0003D4A3D4B5B6843F0100353603A493A4B22
:100C00009A683A4B13407A68013A12021A433B69D8
:100C1000013B1B041A43BB68013B1B0613438B605B
:100C2000314A314B5B6843F0400353602E4A2E4BF0
:100C30005B6823F0100353602B4A2B4B5B6843F433
:100C40008023536000BF284B1B6803F00403002B74
:100C5000F9D0254A244B5B6823F00103536000BFA1
:100C6000214B1B6803F00103002BF9D17B69204A5B
:100C7000A2FB03235B099B0D3B613A6A3B699A42E5
:100C800002D2386900F038F87B695B08194AA2FB88
:100C900003235B099B0D3B613A6A3B699A4202D28E
:100CA000386900F029F8386A00F026F815E00E4996
:100CB0000D4B9B6823F07F023B6A013B13438B6023
:100CC000094A094B5B6843F00103536000BF064BC0
:100CD0001B6803F00103002BF9D01837BD4680BD17
:100CE00083DE1B43ABAAAAAA10470050FF8080F006
:100CF00089888888B7600BB680B582B000AF78600D
:100D00000749074B9B6823F4FE027B68013B1B04E9
:100D100013438B603220FFF7F3FB0837BD4680BDDD
:100D20001047005080B483B000AF78607B68DB6808
:100D300043F480727B68DA600C37BD465DF8047B53
:100D4000704700BF80B483B000AF78607B68012239
:100D50001A610C37BD465DF8047B704780B582B0E0
:100D600000AF78607B68094A934203D18020FFF787
:100D700059FC07E07B68064A934203D14FF4807028
:100D8000FFF750FC0837BD4680BD00BF00000240A1
:100D90000040024080B582B000AF78601020FFF7BD
:100DA000B5FD7868FFF7DAFF0837BD4680BD00BFA4
:100DB00080B584B000AF78600B46FB707868FFF7B1
:100DC000E9FF7868FFF7AEFF7B681B68FB60FB6894
:100DD00023F44043FB60FB789B03FA681343FB60FA
:100DE0007B68FA681A601037BD4680BD80B582B056
:100DF00000AF786039607868FFF7A4FF3B681A6835
:100E00007B685A613B685B7BC3F30013DBB21A0556
:100E10007B685A603B681B7BC3F30303DBB21A4653
:100E20007B685A623B681B7BC3F30313DBB21A4631
:100E30007B68DA623B685B7BC3F30303DBB21A4671
:100E40007B681A623B685A687B689A613B689B685A
:100E500083F014027B689A640837BD4680BD00BFEA
:100E600080B483B000AF78600B467B807A887B6863
:100E70005A630C37BD465DF8047B704780B483B07D
:100E800000AF78600B46FB7013463B80FB78002B6D
:100E900003D13A887B68DA6302E03A887B685A6457
:100EA0000C37BD465DF8047B704700BF80B487B047
:100EB00000AF78600B46FB701346BB707B68D3F8BD
:100EC000A830FB60FB78092B31D801A252F823F03F
:100ED000F90E0008F90E0008030F0008030F0008C0
:100EE0000D0F00080D0F00082F0F00082F0F00082E
:100EF000170F0008230F000803237B6100233B61C9
:100F00001BE00C237B6102233B6116E030237B61F5
:100F100004233B6111E04FF440737B6108233B6184
:100F20000BE04FF440637B610A233B6105E04FF423
:100F300040537B610C233B6100BF7B69DB43FA6854
:100F40001340FB60BA783B6902FA03F3FA68134373
:100F5000FB607B68FA68C3F8A8201C37BD465DF8C3
:100F6000047B704780B483B000AF78600B46FB70A1
:100F7000F878FB787A68DB0013449B6843F0807252
:100F80007968C3000B449A600C37BD465DF8047B5A
:100F9000704700BF80B483B000AF78600B46FB7031
:100FA000F878FB787A68DB0013445B6843F0005202
:100FB0007968C3000B445A600C37BD465DF8047B6A
:100FC000704700BF80B483B000AF78600B46FB7001
:100FD000F878FB787A68DB0013445B6823F00052F2
:100FE0007968C3000B445A600C37BD465DF8047B3A
:100FF000704700BF80B483B000AF78600B46FB70D1
:1010000013463B80FB783A88796804339B000B4495
:101010005A600C37BD465DF8047B704780B483B0DE
:1010200000AF78600B46FB7013463B807B68DA6943
:10103000FB781B01194640F6FF738B40DB431340DE
:101040003A88F97809018A401A437B68DA610C37DB
:10105000BD465DF8047B704780B485B000AFF86092
:101060000B467A60FB72F87AFB7AFA68DB0013446D
:101070009B6823F4CE227B681A43F968C3000B44B3
:101080009A601437BD465DF8047B704780B485B024
:1010900000AFF8600B467A60FB72F87AFB7AFA6868
:1010A000DB0013445B6823F4E0027B681A43F968B1
:1010B000C3000B445A601437BD465DF8047B70478B
:1010C00080B582B000AF78600248FFF7ABFA08370E
:1010D000BD4680BD2000001080B584B000AFF86030
:1010E0000B467A60FB72F868FFF7EAFFFB7A7A68D2
:1010F0001268F968DB000B445A60FB7A7A68526820
:10110000F968DB000B449A60FB7A012B04D8FB7A68
:10111000F8681946FFF726FF1037BD4680BD00BFAF
:1011200080B586B000AFF8600B467A60FB72FFF7BF
:10113000B9FA02467B68B2FBF3F33B613B690F2BC4
:1011400002D80423FB7516E03B69B3F5801F02D378
:101150000323FB750FE0F87AFB7AFA68DB0013448F
:101160005B681B0D1B053A691A43F968C3000B4401
:101170005A600023FB75FB7D18461837BD4680BDBD
:1011800080B586B000AFF8600B467A60FB72FB7AE0
:10119000FA6804339B0013445B687B61FB68DB697E
:1011A000FA7A1201D340C3F30B033B613A697B69BE
:1011B000D31A01337A6802FB03F3FA7AF86811460E
:1011C0001A46FFF7ADFF034618461837BD4680BDE7
:1011D00080B582B000AF78600B46FB70FB78786812
:1011E00019464FF48012FFF751FF002318460837C5
:1011F000BD4680BD80B586B000AFF8607A603B60C8
:101200000B46FB720023FB75FB7AF8681946002237
:10121000FFF73CFF7B68002B07D1FB7AF868194683
:101220003A68FFF77DFF0346FB75FB7D002B0CD171
:10123000FB7AF86819467A68FFF70EFFFB7AF868C0
:1012400019464FF40012FFF721FFFB7D18461837AF
:10125000BD4680BD80B586B000AFF8600846114637
:101260001A460346FB720B463B811346FB80002364
:10127000FB75FB7AF86819460022FFF707FFFA7A38
:101280003B89F86811461A46FFF7B4FEFA7AFB88E4
:10129000F86811461A46FFF7C1FEFB7AF86819464E
:1012A0003A6AFFF7D9FE3B6A002B07D1FB7AF86850
:1012B00019467A6AFFF764FF0346FB75FB7D002B36
:1012C00006D1FB7AF86819464FF4A002FFF7DEFE5C
:1012D000FB7D18461837BD4680BD00BF80B586B07F
:1012E00000AFF8607A601A460B46FB721346BB7279
:1012F0000023FB75FB7AF86819460022FFF7C6FE4B
:101300003B6A002B09D17B6A5B01FA7AF8681146C7
:101310001A46FFF705FF0346FB75FB7D002B20D126
:10132000FB7AF86819467A6800F050F8BB7A012B0E
:1013300005D1FB7AF8681946FFF72CFE04E0FB7A2A
:10134000F8681946FFF73EFEFB7AF86819463A6AD4
:10135000FFF782FEFB7AF86819464FF44012FFF758
:1013600095FEFB7D18461837BD4680BD80B586B01A
:1013700000AFF8607A603B600B46FB720023FB75A0
:10138000FB7AF86819460022FFF780FE7B68002B85
:1013900007D1FB7AF86819463A68FFF7C1FE0346A1
:1013A000FB75FB7D002B0CD1FB7AF86819467A6837
:1013B000FFF752FEFB7AF86819464FF48002FFF7F8
:1013C00065FEFB7D18461837BD4680BD80B487B0EA
:1013D00000AFF8600B467A60FB727B681B783B615C
:1013E00001237B6110E07A687B6913441B781946FE
:1013F0007A6913469B00134401FA03F33A691343D5
:101400003B617B6901337B617B69052BEBD9FA7A00
:10141000FB680432396943F832107B6806331B7865
:101420003B6101237B6111E07B6906337A681344D9
:101430001B7819467A6913469B00134401FA03F39B
:101440003A6913433B617B6901337B617B69052BFF
:10145000EAD9FB7AFA680433DB0013443A695A602C
:101460001C37BD465DF8047B704700BF80B483B075
:1014700000AF78600B46FB701346BB707B685A6FF9
:10148000FB785B00194603238B40DB431A407B68E3
:101490005A677B685A6FBB78F97849008B401A43CA
:1014A0007B685A670C37BD465DF8047B704700BF08
:1014B00080B485B000AF786039603B78C3F3020335
:1014C000DBB21A46BB78C3F30403DBB21B0413433D
:1014D000FB607B68FA68C3F8F021FB78C3F3001364
:1014E000DBB21A07FB78C3F38103DBB29B061A4316
:1014F000FB78C3F34013DBB25B071343FB607B68ED
:10150000D3F8F021FB68134343F000427B68C3F833
:10151000F0211437BD465DF8047B704780B483B07A
:1015200000AF78607B68D3F8843043F080727B68CA
:10153000C3F884200C37BD465DF8047B704700BFBC
:1015400080B483B000AF78607B68D3F8843023F038
:1015500080727B68C3F884200C37BD465DF8047B3D
:10156000704700BF80B500AF0120FFF75BF880BD7A
:1015700080B582B000AF78603960FFF7F3FF3B6859
:101580005A697B681A603B685B6843F400427B6879
:10159000C3F880203B689A687B68C3F8A0203B684A
:1015A000DA687B68C3F8A4203B681A697B68C3F8D3
:1015B00080223B681A687B68C3F8B8200837BD46AC
:1015C00080BD00BF80B485B000AF78607B68D3F881
:1015D000803043F000427B68C3F880200023FB7317
:1015E00016E0FB7B0E4A52F82330BB60BB68D3F891
:1015F000803003F44033002B07D000BFBB68D3F822
:10160000803003F08053002BF8D1FB7B0133FB7358
:10161000FB7B032BE5D91437BD465DF8047B70478F
:10162000EC58000880B582B000AF786039603B6844
:10163000786859680022002300F028F83B68786831
:1016400059680122002300F021F83B687868996806
:101650000022012300F01AF83B687868996801229B
:10166000012300F013F83B681A697B68C3F88020F7
:101670003B68DA687B68C3F8B8203B68786819680B
:10168000FFF716FF0837BD4680BD00BF80B48DB0A0
:1016900000AFF860B9603B601346FB71FB79002B2B
:1016A00013D10823FB624FF4E0637B620023BB622B
:1016B0001F233B623B7AC3F30403DBB2FB617B7AFB
:1016C000C3F30203DBB2FB7613E01823FB624FF097
:1016D000E0637B621023BB624FF4F8133B62BB7A7A
:1016E000C3F30403DBB2FB61FB7AC3F30203DBB297
:1016F000FB76FB683A68283253F822307B617B6ABC
:10170000DB437A6913407B61FA7EFB6A02FA03F3DA
:101710007A6913437B613B6ADB437A6913407B61DF
:10172000BB6AFA6902FA03F37A6913437B61FB68C7
:101730003A682832796943F822103437BD465DF89B
:10174000047B704780B485B000AF78600B46FB70B7
:101750007B68D3F88030FB60FB6823F00303FB60F9
:10176000FB78FA681343FB607B68FA68C3F8802053
:101770001437BD465DF8047B704700BF80B487B066
:1017800000AFF860B9607A607A68BB689A4202D9A3
:10179000BB680133BB60FB68D3F8C0307B617B69F9
:1017A00023F003037B617A69BB6813437B61FB68A9
:1017B0007A69C3F8C0201C37BD465DF8047B7047CA
:1017C00080B485B000AF78607B68D3F8C030FB6030
:1017D000FB6823F00303FB607B68FA68C3F8C02052
:1017E0001437BD465DF8047B704700BF80B485B0F8
:1017F00000AF786039600023BB600023FB600BE022
:10180000134AFB6852F823207B689A4201D1FB6897
:10181000BB60FB680133FB60FB68032BF0D93A68BF
:10182000BB689A4202D23B6801333B607B68D3F8C5
:10183000C0203B680333194601238B401A437B6861
:10184000C3F8C0201437BD465DF8047B704700BF65
:10185000EC58000880B584B000AF786039607868D3
:10186000FFF76EFE7B68D3F88430FB60FB6823F0E3
:101870000303FB603B681B78C3F38103DBB21A46AA
:10188000FB681343FB603B681B7803F00303DBB288
:10189000002B03D0FB6843F00803FB607B68FA6809
:1018A000C3F884203B685B6843F0802343F4000363
:1018B0007A68C2F800313B689B6843F001027B689C
:1018C000C3F804213B681B7803F00303DBB2022B4F
:1018D00007D17B68D3F8043143F480327B68C3F8C6
:1018E00004217868FFF71AFE1037BD4680BD00BF9F
:1018F00080B485B000AF78600B46FB707B68D3F88E
:10190000C031FB60FB6823F00F03FB60FB78FA68D3
:101910001343FB607B68FA68C3F8C0211437BD46E7
:101920005DF8047B704700BF80B489B000AFF860F9
:10193000B9607A607B681B7ABB61FB68D3F888303A
:101940007B61BB68012202FA03F3DB437A6913402F
:101950007B61BB68BA6902FA03F37A6913437B615E
:10196000FB687A69C3F888207B685B7A5BB2002BDE
:1019700029DB0023FB61BB68012B0AD10823FB6133
:10198000FB68D3F8B03023F4F852FB68C3F8B020FA
:101990000CE0BB68002B09D10023FB61FB68D3F886
:1019A000B03023F01F02FB68C3F8B020FB68D3F807
:1019B000B0307A68527A51B2FA6901FA02F21A43E7
:1019C000FB68C3F8B020FB68D3F8C8207B685B686D
:1019D0001A43FB68C3F8C8207B681968FB68BA68BB
:1019E000803243F822102437BD465DF8047B7047EF
:1019F00080B400AFBD465DF8047B704780B483B00F
:101A000000AF78600B46FB707B68DA68FB780121D9
:101A100001FA03F31A437B68DA600C37BD465DF8C0
:101A2000047B704780B483B000AF78600B46FB70D6
:101A30007B689A68FB78012101FA03F31A437B68FB
:101A40009A600C37BD465DF8047B704780B483B064
:101A500000AF78607B680122DA600C37BD465DF824
:101A6000047B704780B483B000AF78607B6801224C
:101A70001A610C37BD465DF8047B704780B483B0B3
:101A800000AF78607B6802221A610C37BD465DF8B2
:101A9000047B704780B483B000AF786039607B68A6
:101AA0003A681A610C37BD465DF8047B704700BF89
:101AB00080B483B000AF78600B46FB707B68D3F8CE
:101AC000A420FB78012101FA03F31A437B68C3F8D1
:101AD000A4200C37BD465DF8047B704780B584B008
:101AE00000AF78600123FB737B6893F82930022BE9
:101AF0004ED17B681B68184600F024FA0346FB733E
:101B0000FB7B002B40D17B689A687B68DB681046C2
:101B10001946FFF76BF97B689A687B68DB699BB2B3
:101B200010461946FFF79CF97B689A687B689B69A9
:101B30009BB2104600211A46FFF7A0F97B685A684D
:101B40007B685B6A10461946FFF7A4FF786800F0CF
:101B500025F87B6819697B6893F82C207B685B69A2
:101B6000084611461A46FEF71FFC7B68002283F8E0
:101B700029207B6893F82F30002B02D0786800F082
:101B8000DFF80023FB7303E07B68022283F829203F
:101B9000FB7B18461037BD4680BD00BF80B582B0C4
:101BA00000AF78607B6893F83030002B0FD07B68F3
:101BB0009B6818460021FFF77BFF7B689A687B686B
:101BC00093F82A30104600211A46FFF76FF97B6818
:101BD00093F83130002B0FD07B689B6818460221A8
:101BE000FFF766FF7B689A687B6893F82B30104696
:101BF00002211A46FFF75AF90837BD4680BD00BFDB
:101C000080B582B000AF78607B6893F82930002BF4
:101C100004D07B6893F82930042B11D17B685A6873
:101C20007B6893F82E3010461946FFF7E7FE7B6875
:101C30009B681846FFF70AFF7B68032283F8292078
:101C40000837BD4680BD00BF80B582B000AF786068
:101C50007B6893F82930022B16D07B689B68184666
:101C6000FFF700FF7B689B681846FFF707FF7B685C
:101C70005A687B6893F82E3010461946FFF7D2FE5B
:101C80007B68042283F829200837BD4680BD00BF49
:101C900080B586B000AF786039600123FB757B6842
:101CA00093F82930022B2DD03B6842F210729342F8
:101CB00028D87B68DB6901333B613B68C3F51C5363
:101CC00010333A6902FB03F3114AA2FB03235B0BB7
:101CD000FB607B68FA689A617B683A681A627B6885
:101CE0009A68FB689BB2104600211A46FFF7C6F8B7
:101CF0007B685A687B685B6A10461946FFF7CAFE24
:101D00000023FB75FB7D18461837BD4680BD00BF1C
:101D10005917B7D180B584B000AF78600123FB7349
:101D20007B6893F82830012B04D17868FFF7D6FE42
:101D30000346FB73FB7B18461037BD4680BD00BFD2
:101D400080B582B000AF78607B6893F82830012BB3
:101D500002D17868FFF754FF0837BD4680BD00BF49
:101D600080B582B000AF78607B6893F82830012B93
:101D700002D17868FFF768FF0837BD4680BD00BF15
:101D800080B584B000AF786039600123FB737B6855
:101D900093F82830012B05D178683968FFF778FF70
:101DA0000346FB73FB7B18461037BD4680BD00BF62
:101DB00080B400AF044BDB6803F4E0631B0A1846F1
:101DC000BD465DF8047B704700ED00E080B483B051
:101DD00000AF0346FB7197F90730002B0BDB084976
:101DE00097F907305B09FA7902F01F02012000FA27
:101DF00002F241F823200C37BD465DF8047B7047A2
:101E000000E100E080B483B000AF03463960FB71AD
:101E100097F90730002B0ADB0D4997F907303A682C
:101E2000D2B29200D2B20B4483F800230AE00949EF
:101E3000FB7903F00F03043B3A68D2B29200D2B2AE
:101E40000B441A760C37BD465DF8047B704700BF23
:101E500000E100E000ED00E080B489B000AFF86080
:101E6000B9607A60FB6803F00703FB61FB69C3F1AB
:101E70000703062B28BF0623BB61FB690633062B2D
:101E800002D9FB69013B00E000237B61BB690122B1
:101E900002FA03F35A1EBB681A407B699A407B69B9
:101EA000012101FA03F3591E7B680B4013431846C6
:101EB0002437BD465DF8047B704700BF80B582B013
:101EC00000AF78607B681B785BB21846FFF77EFF37
:101ED0000837BD4680BD00BF90B583B000AF7860C5
:101EE0007B681C78FFF764FF01467B685B781A46C5
:101EF0007B689B78084611461A46FFF7ADFF0246FD
:101F000063B218461146FFF77DFF7B68DB78002B34
:101F100002D07868FFF7D2FF002318460C37BD4681
:101F200090BD00BF80B483B000AF78607B68DB6891
:101F300043F480727B68DA600C37BD465DF8047B41
:101F4000704700BF80B582B000AF78607B685B7B74
:101F500083F00103DBB2002B0FD07B689A687B68AB
:101F60001B7B10461946FEF723FF7B689B681846CB
:101F7000FFF7D8FF7B6801225A7300231846083701
:101F8000BD4680BD80B483B000AF786039607B68A7
:101F9000D3F880203B681033194601238B401A4345
:101FA0007B68C3F880200C37BD465DF8047B704722
:101FB00080B584B000AF78607B681B7E022B49D16E
:101FC0007B685A697B681B6910461946FFF7D0FA8F
:101FD0000023FB602FE07B68FA6853F82230196811
:101FE0007B68FA6853F822305B6808461946FFF7A9
:101FF00019FB7B68FA6853F822301B6818460321E6
:10200000FFF7A0FB7B68FA6853F822301B7A83F055
:102010000103DBB2002B05D07B685B691846F968C9
:10202000FFF7B0FF7B68FA6853F8223000225A723B
:10203000FB680133FB60FB68032BCCD97B685B7EBC
:10204000002B04D07B685B691846FFF7BBFA7B68FE
:1020500000221A767B681B7E18461037BD4680BD6D
:1020600080B582B000AF78607B6819687B681A7CA5
:102070007B680433084611461A46FEF795F97B68DB
:1020800019687B681A7C7B685B7C084611461A4697
:10209000FFF7ECF9002318460837BD4680BD00BFA6
:1020A00080B483B000AF78607B689B6843F40042E3
:1020B0007B689A600C37BD465DF8047B704700BFB3
:1020C00080B483B000AF78600B46FB7013463B8052
:1020D000FB783A88796804339B000B445A600C37CC
:1020E000BD465DF8047B704780B485B000AFF860F2
:1020F0000B467A60FB72F87AFB7AFA68DB001344CD
:102100005B6823F4E0027B681A43F968C3000B4460
:102110005A601437BD465DF8047B704780B483B0C5
:1021200000AF78600B46FB70F878FB787A68DB00CC
:1021300013445B6843F080427968C3000B445A60E3
:102140000C37BD465DF8047B704700BF80B483B098
:1021500000AF78600B46FB701346BB70F878FB78D5
:102160007A68DB0013449B6823F00F02BB781A43A4
:102170007968C3000B449A600C37BD465DF8047B58
:10218000704700BFB0B586B002AF78600023FB7324
:102190007B689B68B3F5401F15D17B6818687B6826
:1021A00093F822107B685D6A7B681C7C7B68DA6828
:1021B0007B685B69009201932A462346FFF78EF8FD
:1021C0000346FB7385E07B689B68B3F5801F15D1E0
:1021D0007B681A687B6893F8223010461946FEF730
:1021E000F7FF0346FB737B681A687B6893F822301D
:1021F000104619460022FFF763FF6AE07B689B6880
:10220000B3F5001F25D17B6818687B6893F822100E
:102210007B68DA687B685B69FEF7ECFF0346FB735B
:102220007B6893F82030012B08D17B681A687B68A3
:1022300093F8223010461946FFF770FF7B681A6842
:102240007B6893F82230104619460022FFF738FFCA
:102250003FE07B689B68B3F5A00F25D17B681868C9
:102260007B6893F822107B681D8B7B685C8B7B6896
:10227000DA687B685B69009201932A462346FEF781
:10228000E9FF0346FB737B6819687B6893F822209B
:102290007B685B681B79C3F30303DBB20846114616
:1022A0001A46FFF753FF14E07B689B68B3F5800F75
:1022B0000DD17B6818687B6893F822107B68DA6818
:1022C0007B685B69FFF752F80346FB7301E000236C
:1022D000FB73FB7B18461037BD46B0BD80B584B09C
:1022E00000AF78600023FB737B6819687B6893F804
:1022F00022207B685B68084611461A46FEF7ECFE12
:102300007868FFF73FFF0346BB737B6893F828307C
:10231000002B09D17B681A687B6893F8223010463D
:1023200019460022FFF7E0FE7B6893F82130012B6D
:1023300004D17B681B681846FFF7B2FEBB7B002BFD
:1023400001D00123FB73FB7B18461037BD4680BDCF
:1023500080B485B000AF78607B6803F00703FB6052
:102360000C4BDB68BB60BA684FF6FF031340BB60E1
:10237000FB681A02BB68134343F0BF6343F40033A6
:10238000BB60044ABB68D3601437BD465DF8047B6C
:10239000704700BF00ED00E080B582B000AF0120C3
:1023A000FFF7D6FF72B6214B214A9A60BFF34F8FD9
:1023B00062B61E4A1D4BD3F8883043F47003C2F84E
:1023C00088301C4B03F5805314331B687B607B689B
:1023D00023F00F037B607B6843F003037B60154BA6
:1023E00003F5805314337A681A60104A0F4B5B6907
:1023F00023F0100353610D4A0C4B5B6923F0080373
:1024000053610A4A094B5B6A23F480335362074ADB
:10241000064B5B6A23F400335362044A034B5B6A46
:1024200023F4802353620837BD4680BD00ED00E0F1
:10243000000000080010005880B48BB000AF786036
:10244000D7ED017A9FED357A67EE877AB5EE007A9F
:1024500077EE877AC7ED087AD7ED087AFDEEE77A4E
:1024600017EE903A7B62D7ED087AF5EEC07AF1EE7E
:1024700010FA02D57B6A013B7B627B6A07EE903AD9
:10248000F8EEE77A97ED087A77EE677AC7ED087A83
:10249000D7ED087A9FED227A67EE877AC7ED077A43
:1024A000D7ED077AFCEEE77AC7ED007A3B889BB25E
:1024B000C3F308037B837B8B07EE903AF8EE677AD1
:1024C00097ED077A77EE677AC7ED057A7B8B154A29
:1024D0009B0013441B683B617B8B0133114A9B00BB
:1024E00013441B68FB60B7EE007AD7ED057A37EE30
:1024F000677AD7ED047A27EE277AD7ED056AD7ED0C
:10250000037A66EEA77A77EE277AC7ED027ABB6880
:1025100018462C37BD465DF8047B704783F9223E90
:1025200000000044C85A000880B48BB000AF786047
:10253000D7ED017AF5EEC07AF1EE10FA0AD5D7EDB3
:10254000017A9FED397AF4EEC77AF1EE10FA01DBE9
:102550007B6863E0D7ED017A9FED347A67EE877A86
:10256000C7ED087AD7ED087AFDEEE77A17EE903AD4
:102570007B62D7ED017AF5EEC07AF1EE10FA02D562
:102580007B6A013B7B627B6A07EE903AF8EEE77A62
:1025900097ED087A77EE677AC7ED087AD7ED087A73
:1025A0009FED237A67EE877AC7ED077AD7ED077A32
:1025B000FCEEE77AC7ED007A3B889BB2C3F30803D1
:1025C0007B837B8B07EE903AF8EE677A97ED077A7C
:1025D00077EE677AC7ED057A7B8B164A9B0013442A
:1025E0001B683B617B8B0133124A9B0013441B68C1
:1025F000FB60B7EE007AD7ED057A37EE677AD7ED54
:10260000047A27EE277AD7ED056AD7ED037A66EECE
:10261000A77A77EE277AC7ED027ABB6818462C377F
:10262000BD465DF8047B7047CD024CB483F9223E71
:1026300000000044C85A000880B485B000AF78603C
:102640000023FB737B6801221A70FB7B184614374A
:10265000BD465DF8047B704780B400AF024B18465E
:10266000BD465DF8047B7047001BB700B0B586B06F
:1026700000AF124B3C1D1D460FCD0FC42B682360CD
:102680003B1D1846FDF75EFF0020FEF777F800209F
:10269000FEF72CF80420FEF7FDF801202021FEF7BC
:1026A00045F90020FEF736F80120FEF71BF901205E
:1026B000FEF704F91837BD46B0BD00BFCC62000874
:1026C00080B400AF044BDB6803F4E0631B0A1846D8
:1026D000BD465DF8047B704700ED00E080B483B038
:1026E00000AF0346FB7197F90730002B0BDB08495D
:1026F00097F907305B09FA7902F01F02012000FA0E
:1027000002F241F823200C37BD465DF8047B704788
:1027100000E100E080B483B000AF03463960FB7194
:1027200097F90730002B0ADB0D4997F907303A6813
:10273000D2B29200D2B20B4483F800230AE00949D6
:10274000FB7903F00F03043B3A68D2B29200D2B295
:102750000B441A760C37BD465DF8047B704700BF0A
:1027600000E100E000ED00E080B489B000AFF86067
:10277000B9607A60FB6803F00703FB61FB69C3F192
:102780000703062B28BF0623BB61FB690633062B14
:1027900002D9FB69013B00E000237B61BB69012298
:1027A00002FA03F35A1EBB681A407B699A407B69A0
:1027B000012101FA03F3591E7B680B4013431846AD
:1027C0002437BD465DF8047B704700BF80B483B0FA
:1027D00000AF78607B68D3F8843043F080727B6808
:1027E000C3F884200C37BD465DF8047B704700BFFA
:1027F00080B483B000AF78607B68D3F8843023F076
:1028000080727B68C3F884200C37BD465DF8047B7A
:10281000704700BF80B483B000AF78607B68D3F8A6
:10282000843003F080731B0E002B14BF01230023A0
:10283000DBB218460C37BD465DF8047B704700BF1D
:1028400080B483B000AF78600B46FB707B68D3F830
:10285000043123F003027B68C3F804217B68D3F8BA
:102860000421FB781A437B68C3F804210C37BD466A
:102870005DF8047B704700BF80B483B000AF786020
:1028800039603A687B68C3F810210C37BD465DF8A3
:10289000047B704780B485B000AFF860B9607A609F
:1028A0007B681968FB68BA68A03243F822101437B5
:1028B000BD465DF8047B704790B585B000AF786089
:1028C0000B46FB702748FFF773FB0346FB73FB784F
:1028D000254A52F823207B689B7E1C467B68104665
:1028E000196900222346FEF7D1FEFB781E4A52F8F2
:1028F00023207B685B6910461946FEF7ABFFFB7827
:10290000194A52F823207B681B7E10461946FFF7B0
:1029100097FF7B681B7B002B1ED07B681B68DCB29B
:10292000FFF7CEFE01467B685A687B689B680846C5
:1029300011461A46FFF718FF024663B218461146C1
:10294000FFF7E8FEFB78084A52F823207B685B7E9D
:1029500010461946FEF7CCFFFB7B18461437BD46E0
:1029600090BD00BF10010020E062000880B584B077
:1029700000AF78607B68DA687B685B7D104619463B
:10298000FFF79AFF0346FB73FB7B18461037BD46E3
:1029900080BD00BF80B586B000AF78607B685B7D8E
:1029A0001A460F4B53F822303B617B685B68FB6033
:1029B00000237B610BE07B699B00FA6813441B6872
:1029C00038691968FFF758FF7B6901337B617B68C1
:1029D0009B7D1A467B699A42EDD81837BD4680BD6B
:1029E000E062000880B584B000AF78600023BB735C
:1029F0000023FB730120FDF731FE034683F0010342
:102A0000DBB21A46BB7B1343002B14BF0123002308
:102A1000BB73BB7B002B0AD07B685B7D1A46064BE1
:102A200053F822301846FFF7F5FE0346FB73FB7B95
:102A300018461037BD4680BDE062000880B582B000
:102A400000AF78600B46FB70FB7883F00103DBB2CC
:102A5000002B08D07B685B7D1A46044B53F822306C
:102A60001846FFF7C5FE0837BD4680BDE062000886
:102A700080B582B000AF78607868FFF78BFF0837C9
:102A8000BD4680BD80B582B000AF03237B600AE005
:102A9000194A7B6852F8233018460021FEF752FE8F
:102AA0007B68013B7B607B68002BF1DA03237B6052
:102AB00012E0114A7B6852F823207B6810460021FF
:102AC0001A46FEF75BFE0D4A7B6810461946FEF774
:102AD0008DFE7B68013B7B607B68002BE9DC074B4C
:102AE0001846FEF76DFE054B18460321FEF72AFE39
:102AF0000837BD4680BD00BFE062000800440040CA
:102B000080B582B000AF78607B685B7D1A46044B6D
:102B100053F822301846FFF759FE0837BD4680BDEE
:102B2000E062000880B582B000AF78607B68DB6847
:102B30001B7B002B0BD07B681B7D032B07D17B6895
:102B4000DB681B68DBB25BB21846FFF7C7FD0837CE
:102B5000BD4680BD80B582B000AF78607B681B7ACF
:102B60001A46094B53F822207B681B689B78C3F3F5
:102B70000303DBB219467B685B6810461A46FFF711
:102B800089FE0837BD4680BDE062000880B584B08C
:102B900000AF78600023BB737B681B691B78022B36
:102BA00043D17868FFF71EFF0346BB737868FFF7D1
:102BB000DDFE03467B73BB7B78681946FFF73EFF5B
:102BC000FFF760FF7B68DB7D3B730023FB731BE03B
:102BD0007B681A68FB7B9B0013441B68BB60BB6867
:102BE0001B7A1A46144B53F82220BB685B7A1946AD
:102BF000BB681B6810461A46FEF796FEB868FFF7DA
:102C0000A9FFFB7B0133FB73FA7B3B7B9A42DFD34B
:102C10007868FFF787FF7868FFF72AFF7868FFF783
:102C20006FFF7B681B697A7B1A707B681B691B7856
:102C300018461037BD4680BDE062000880B582B0FE
:102C400000AF0023FB715948FFF7F6FC0346FB7108
:102C5000FB79002B04D15648FFF75CF80346FB7163
:102C6000FB79002B04D15348FFF754F80346FB715E
:102C7000FB79002B04D15048FFF74CF80346FB7159
:102C8000FB79002B04D14D48FFF726F90346FB7171
:102C9000FB79002B04D14A48FFF73CF80346FB714F
:102CA000FB79002B04D14748FFF7DAF90346FB71A3
:102CB000FB79002B04D14448FFF768FF0346FB7102
:102CC000FB79002B04D14148FFF7CAF90346FB7199
:102CD000FB79002B04D13E48FFF700FB0346FB7154
:102CE000FB79002B04D13B48FFF7BAF90346FB718F
:102CF000FB79002B04D13848FFF7B2F90346FB718A
:102D0000FB79002B04D13548FFF7AAF90346FB7184
:102D1000FB79002B04D13248FFF7A2F90346FB717F
:102D2000FB79002B04D12F48FFF79AF90346FB717A
:102D3000FB79002B04D12C48FFF792F90346FB7175
:102D4000FB79002B04D12948FFF78AF90346FB7170
:102D5000FB79002B04D12648FFF782F90346FB716B
:102D6000FB79002B04D12348FFF710FF0346FB71CA
:102D7000FB79002B04D12048FFF708FF0346FB71C5
:102D8000FB79002B04D11D48FFF76AF90346FB715C
:102D9000FB79002B04D11A48FFF762F90346FB7157
:102DA000FB7918460837BD4680BD00BF8C02002065
:102DB0000000002034000020680000206C5900084A
:102DC0009C000020D859000898630008EC590008BE
:102DD00034010020005A0008145A0008285A00083C
:102DE0003C5A0008505A0008645A0008785A0008F3
:102DF0008C5A00083C640008A0640008A05A00082F
:102E0000B45A000880B483B000AF78600B46FB7002
:102E1000FB7801229A407B685A600C37BD465DF80A
:102E2000047B704780B483B000AF78600B46FB70C2
:102E3000FB784FF480329A407B685A600C37BD466D
:102E40005DF8047B704700BF80B582B000AF78604A
:102E50007B681A687B681B7C10461946FFF7D2FF17
:102E60000837BD4680BD00BF80B582B000AF786036
:102E70007B681A687B681B7C10461946FFF7D2FFF7
:102E80000837BD4680BD00BF80B483B000AF786016
:102E900039607B683A68C03253F822309BB21846DA
:102EA0000C37BD465DF8047B704700BF80B584B029
:102EB00000AF78607B681B7A1A460A4B53F82220D1
:102EC0007B681B689B78C3F30303DBB2104619468B
:102ED000FFF7DAFF0346FB81FB8918461037BD4632
:102EE00080BD00BFE062000880B487B000AFF8602A
:102EF000B9607A603B60BB6893ED007AD7ED036AF6
:102F0000D7ED017A66EEA77A77EE277AC7ED057AD4
:102F1000D7ED007AF5EE407AF1EE10FA30D097ED69
:102F2000057AD7ED007AB4EEE77AF1EE10FA10DD0B
:102F300097ED057AD7ED007A37EE677AD7ED056A17
:102F4000D7ED017A66EEA77A77EE277AC7ED057A94
:102F500016E0D7ED057AF5EEC07AF1EE10FA0FD54E
:102F600097ED057AD7ED007A37EE277AD7ED056A27
:102F7000D7ED017A66EEA77A77EE677AC7ED057A24
:102F8000BB687A691A607B6918461C37BD465DF8D4
:102F9000047B704790B52DED028B85B000AFF860D3
:102FA000B9607A60FB6893ED008A7868FFF744FAAD
:102FB00007EE900A28EE278AFB680433D3ED008AD7
:102FC0007868FFF7B1FA07EE900A68EEA77A78EE14
:102FD000277ABB68C3ED007ABB681C1DFB68D3ED84
:102FE000007AB1EE678A7868FFF79EFA07EE900ADA
:102FF00028EE278AFB680433D3ED008A7868FFF750
:103000001BFA07EE900A68EEA77A78EE277AC4EDED
:10301000007A1437BD46BDEC028B90BD80B586B0FA
:1030200000AFF860B9607A607868FFF705FA7861F8
:103030007868FFF779FA3861FB6893ED007AD7ED8D
:10304000057A27EE277AFB680433D3ED006AD7EDC3
:10305000047A66EEA77A77EE677ABB68C3ED007AEA
:10306000BB680433FA6892ED007AD7ED047A27EE54
:10307000277AFA680432D2ED006AD7ED057A66EE57
:10308000A77A77EE277AC3ED007A1837BD4680BD60
:1030900080B487B000AFF860B9607A607B680833AD
:1030A00093ED007ABB680433D3ED007A27EE277ADC
:1030B0007B68D3ED006A7B680433D3ED007A66EE5B
:1030C000A76ABB6893ED006AD7ED037A76EE277A9C
:1030D00066EEA77A77EE277AC7ED057ABB68FA68BD
:1030E0001A60BB6804337A691A607B6918461C371A
:1030F000BD465DF8047B704780B487B000AFF860D0
:10310000B9607A604FF000037B617B681B7E002B07
:1031100016D17B6893ED057A7B68D3ED046AD7ED11
:10312000037A76EEA77AF6EE006A67EEA66AD7ED26
:10313000027A66EEA77A77EE277A7B68C3ED057A86
:103140007B6893ED007AD7ED037A27EE277A7B68C8
:10315000D3ED016A7B68D3ED057A66EEA77A77EE48
:10316000277AC7ED057A7B6893ED027AD7ED057A69
:10317000B4EEE77AF1EE10FA0AD57B689B687B61C2
:103180007B681B7E43F00103DAB27B681A761BE092
:103190007B6893ED037AD7ED057AB4EEE77AF1EE2A
:1031A00010FA0ADD7B68DB687B617B681B7E43F07D
:1031B0000103DAB27B681A7606E07B681B7E03F0B7
:1031C0007E03DAB27B681A767B68FA681A617B69DB
:1031D00018461C37BD465DF8047B704780B584B047
:1031E00000AFF860B9607A607B68D3ED007A97ED44
:1031F000037A37EE677A7B68D3ED027A27EE277A77
:103200007B68D3ED017A37EE677AD7ED027A67EE05
:10321000277A7B6803F10C027B685B6917EE900AE2
:1032200011461A464FF00003FFF75EFE02467B6828
:103230001A607B6819687B6803F110027B685B6920
:10324000084611461A464FF00003FFF74DFE07EE01
:10325000100AD7ED027A67EE277A7B68C3ED017A10
:103260001037BD4680BD00BF80B485B000AFF860A8
:10327000B9607A603B60FB68BA681A60FB687A687C
:103280005A60FB683A689A60FB684FF000025A6126
:10329000FB684FF000021A61FB684FF000029A6170
:1032A000FB684FF00002DA601437BD465DF8047B1E
:1032B000704700BF80B483B000AF786039607B682E
:1032C0003A68DA600C37BD465DF8047B704700BF92
:1032D0002DE9B04386B000AFF860B9607A60FB6852
:1032E00093ED037AD7ED027A77EE677AC7ED057A28
:1032F000FB68D3ED027A37EEA77AFB68D3ED017A4B
:1033000027EE277AD7ED057A27EE277AFB68D3EDEB
:10331000057A77EE677AC7ED047AFB689B691846F1
:1033200002F008F804460D46386902F003F8024638
:103330000B46104619463CA3D3E9002302F04EF891
:1033400002460B462046294601F096FE02460B46F1
:103350001046194602F054FA0246FB689A61FB686F
:103360001B69184601F0E6FF04460D46FB689B69A1
:10337000184601F0DFFF02460B46104619462AA305
:10338000D3E9002302F02AF802460B4690469946FC
:10339000786801F0CFFF02460B464046494602F0EE
:1033A0001DF802460B4690469946786801F0C2FF28
:1033B00002460B464046494602F010F802460B46CC
:1033C0002046294601F058FE02460B461046194693
:1033D00002F016FA0246FB681A61FB6893ED047A64
:1033E000FB68D3ED027A77EEA76AFB68D3ED067A25
:1033F00066EEA77A77EE277AFB68C3ED057AFB685D
:1034000093ED067AFB68D3ED006AD7ED057A66EE98
:10341000A77A77EE277A17EE903A18461837BD4606
:10342000BDE8B083AFF300802D431CEBE2361A3FBA
:1034300080B400AF384B93ED007A384BD3ED007A6F
:10344000B4EEE77AF1EE10FA5DDC334B93ED007ADF
:10345000324BD3ED007AF1EE677AB4EEE77AF1EE13
:1034600010FA50D42C4B93ED017A2C4BD3ED007A0B
:10347000B4EEE77AF1EE10FA45DC274B93ED017AD2
:10348000264BD3ED007AF1EE677AB4EEE77AF1EEEF
:1034900010FA38D4204B93ED027A204BD3ED007A0A
:1034A000B4EEE77AF1EE10FA2DDC1B4B93ED027AC5
:1034B0001A4BD3ED007AF1EE677AB4EEE77AF1EECB
:1034C00010FA20D4164B93ED047A164BD3ED007A04
:1034D000B4EEE77AF1EE10FA15DC114B93ED047AB5
:1034E000114BD3ED007AB4EEE77AF1EE10FA0AD47C
:1034F0000B4B93ED097A0D4BD3ED007AB4EEE77ADE
:10350000F1EE10FA01DD012300E000231846BD466C
:103510005DF8047B704700BFF802002070020020B5
:103520009002002074020020780200207C0200201B
:1035300080B500AFA94B1B680133A84A1360A84BA4
:103540001B889BB2042B00F2198101A252F823F0D0
:103550006535000889350008CD350008FD350008BF
:10356000513600089F4B1B68012B0CD19B4B1B68ED
:1035700041F28832934206DD994B01221A80974B23
:1035800000221A60FAE0F9E0944B1B6841F288329D
:1035900093420FDD944BD3ED047A9FED947AF4EED1
:1035A000C77AF1EE10FA05DD8D4B02221A808B4BA3
:1035B00000221A608E4B1B68012B06D1884B00221B
:1035C0001A80864B00221A60D8E0D7E0834B1B6834
:1035D00041F28832934205DD814B03221A807F4BF2
:1035E00000221A60824B1B68012B06D17C4B002203
:1035F0001A807A4B00221A60C0E0BFE0794B1B684A
:10360000012B19D1FFF714FF0346002B14D1794B7E
:1036100000221A60784B00221A60784B00221A6050
:10362000774B00221A60774B00221A60764B0022FB
:103630001A606B4B04221A806D4B1B68012B06D15C
:10364000674B00221A80654B00221A6096E095E0D5
:10365000674B1B68012B02D1614B00221A806B4B18
:1036600093ED007A6A4BD3ED007AB4EEE77AF1EE8F
:1036700010FA0CDC654B93ED007A654BD3ED007AC4
:10368000F1EE677AB4EEE77AF1EE10FA05D5544B15
:1036900000221A80574B01221A605C4B93ED017A8D
:1036A0005B4BD3ED007AB4EEE77AF1EE10FA0CDC66
:1036B000564B93ED017A564BD3ED007AF1EE677AD3
:1036C000B4EEE77AF1EE10FA05D5454B00221A80E8
:1036D000494B01221A604D4B93ED027A4C4BD3EDCE
:1036E000007AB4EEE77AF1EE10FA0CDC474B93ED7A
:1036F000027A474BD3ED007AF1EE677AB4EEE77ABF
:10370000F1EE10FA05D5364B00221A803B4B012210
:103710001A60354B93ED047A3E4BD3ED007AB4EE4C
:10372000E77AF1EE10FA05DD2D4B00221A80344BBA
:1037300001221A602C4B93ED047A374BD3ED007ABB
:10374000B4EEE77AF1EE10FA05D5254B00221A8087
:103750002C4B01221A60244B93ED097A2F4BD3EDA9
:10376000007AB4EEE77AF1EE10FA00DC05E01C4BCB
:1037700000221A80244B01221A6000BF184B1B88BC
:103780009BB2002B12D12648FFF76EFB2548FFF7AE
:103790006BFB2548FFF768FB2448FFF765FB2448CF
:1037A000FFF762FB234B00221A608CE00C4B1B8856
:1037B0009BB2012B40D11A48FFF756FB1948FFF77F
:1037C00053FB1948FFF750FB1848FFF74DFB18480B
:1037D000FFF73AFB174B00221A6074E0D403002075
:1037E000C0020020B0030020900200200000F04240
:1037F000B4030020BC030020C0030020C403002049
:10380000C8030020CC030020D0030020F8020020D1
:103810007002002074020020780200207C02002048
:103820003C5A0008505A0008645A0008A05A000880
:10383000B45A0008B8030020234B1B889BB2022B0C
:1038400012D12248FFF710FB2148FFF70DFB21485A
:10385000FFF70AFB2048FFF7F7FA2048FFF7F4FAD2
:103860001F4B00221A602EE0174B1B889BB2032BC4
:1038700012D11648FFF7F8FA1548FFF7F5FA154880
:10388000FFF7F2FA1448FFF7DFFA1448FFF7DCFA03
:10389000134B00221A6016E00B4B1B889BB2042BC3
:1038A00011D10A48FFF7D0FA0948FFF7CDFA0948C5
:1038B000FFF7CAFA0848FFF7C7FA0848FFF7C4FA43
:1038C000074B01221A6080BDC00200203C5A00084C
:1038D000505A0008645A0008A05A0008B45A000858
:1038E000B803002000000000B0B582B000AFB848B7
:1038F000FFF7AAFAB748FFF7D9FA03461A46B64BBC
:103900001A80B648FFF7D2FA03461A46B24B5A80DD
:10391000B348FFF7CBFA03461A46AF4B9A80AE4B3B
:103920001B8807EE903AF8EEE77A9FEDAE7A77EED5
:10393000C77A9FEDAD7A67EE877AAC4BC3ED007A1C
:10394000A54B5B8807EE903AF8EEE77A9FEDA87AF0
:1039500077EEC77A9FEDA47A67EE877AA34BC3ED23
:10396000017A9D4B9B8807EE903AF8EEE77A9FED3F
:10397000A17A77EEC77A9FED9C7A67EE877A9B4BA8
:10398000C3ED027A994B1B6818469B499B4AFFF787
:103990007FFB0246954B1A60944B5B68184698492A
:1039A000964AFFF775FB0246904B5A608F4B9B6817
:1039B00018469449914AFFF76BFB02468B4B9A607D
:1039C0009148FFF773FA03461A46904B1A809048C5
:1039D000FFF76CFA03461A468C4B5A808D48FFF766
:1039E00065FA03461A46894B9A80884B1B8807EE76
:1039F000903AF8EEE77A9FED887A77EEC77A9FEDF6
:103A0000877A67EE877A864BC3ED007A7F4B5B88B7
:103A100007EE903AF8EEE77A9FED827A77EEC77A72
:103A20009FED7E7A67EE877A7D4BC3ED017A774B07
:103A30009B8807EE903AF8EEE77A9FED7B7A77EE77
:103A4000C77A9FED767A67EE877A754BC3ED027A77
:103A5000734B1B6818467549684AFFF719FB024605
:103A60006F4B1A606E4B5B6818467149634AFFF7EB
:103A70000FFB02466A4B5A60694B9B6818466D49BA
:103A80005E4AFFF705FB0246654B9A606A48FFF7FE
:103A90000DFA03461A46694B1A80684B1B8807EEDD
:103AA000903AF8EEE77A9FED667A77EEC77A9FED67
:103AB000657A67EE877A644BC3ED007A624B1B68C8
:103AC00018466249624AFFF7E3FA0246614B1A61FF
:103AD0006148FFF7EBF903461A46604B1A805F4BCB
:103AE0001B8807EE903AF8EE677AC7ED007A97EDFB
:103AF000007AD7ED007A67EE277A17EE900A01F088
:103B000019FC02460B46104619462BA3D3E90023A5
:103B100001F064FC02460B4614461D46386801F06D
:103B200009FC02460B461046194625A3D3E900239B
:103B300001F054FC02460B462046294601F09CFA4F
:103B400002460B46104619461FA3D3E9002301F095
:103B500091FA02460B461046194601F051FE024604
:103B60003F4B1A603E4BD3ED007AB1EE0C7A77EE04
:103B7000877A3B4BC3ED007A394B1B6818463949AD
:103B8000394AFFF785FA0246324B5A622E4B1B68C0
:103B9000364A1360224B1B68354A1360204B5B6822
:103BA000344A13601E4B9B68334A13600F4B1B68EB
:103BB00064E000BFAFF3008004332A99313F26BF91
:103BC00059D47146DE63E63F31A880C5DB68844086
:103BD000D859000800630008D4020020C46300081C
:103BE000FC6300085C9FE244EC51383FEC0200208B
:103BF0001456E1441416E34480030020EC640008EA
:103C00008803002090030020E0630008DC0200200D
:103C100054630008386300083DBADE445839B43CA8
:103C2000F8020020E102DF44668EDE4498030020A3
:103C3000A0030020A80300201C630008C402002089
:103C40006636E244E17A14BFE802002070030020E7
:103C5000D46400089002002068640008C2020020BA
:103C6000E402002078030020BC640008D881002012
:103C700004820020D481002050820020854A1360F5
:103C8000854B5B68854A1360834B9B68844A13604D
:103C9000814B9A68834B1B6810461946824AFFF78E
:103CA0009DFA804B5B68814A13607E4B9B687F4A1C
:103CB00053607E4B93ED017A7D4BD3ED006A7D4BD3
:103CC000D3ED007AC6EEA77A67EE277A774BC3ED7D
:103CD000017A794B1B68754878491A46FFF75AF9FB
:103CE000764B1B6818467649764AFFF7D1F90246AB
:103CF000724B1A60714B5B6818467349714AFFF743
:103D0000C7F902466D4B5A606C4B1B686F4A536192
:103D10006A4B5B686D4A9361684B5B6818466C49F7
:103D20006C4AFFF7E9F907EE100A624BD3ED007A0F
:103D300077EE277A5E4BC3ED007A5D4B1B68184621
:103D40006549634A654BFFF7CFF802465A4B1A6044
:103D5000574B1B6818466249624AFFF799F90246B9
:103D6000534B1A60524B93ED007A514BD3ED007ACE
:103D700027EE277A4F4BD3ED006A4E4BD3ED007AF6
:103D800066EEA77A37EE677A4A4BD3ED007ADFED1D
:103D9000566A67EEA66A464BD3ED007A66EEA77ABE
:103DA00087EE277A444BD3ED007A77EE277A474B9C
:103DB000C3ED087A3B4B1B684C4A13604C4B1A68A6
:103DC0004A4B1B68104619464A4AFFF707FA474B09
:103DD0005B68494A1360454B9B68474A5360364BC2
:103DE0001B68454845491A46FFF7D4F8444B1B88E1
:103DF0009BB2042B02D1434B1B6801E04FF0000340
:103E0000414A1360404BD3ED007AF5EEC07AF1EEF3
:103E100010FA02D54FF0000301E03B4B1B683A4A11
:103E20001360394BD3ED007AB1EE047AF4EEC77A21
:103E3000F1EE10FA01DD354B01E0334B1B68324ADD
:103E400013602F4B1B889BB2042B02D1304B1B6895
:103E500001E04FF000032C4A53602B4BD3ED017A65
:103E6000B9EE047AF4EEC77AF1EE10FA01D5294BD7
:103E700001E0254B5B68244A5360234BD3ED017A64
:103E8000B1EE047AF4EEC77AF1EE10FA44DD1F4B7E
:103E900044E000BFF8810020EC02002044820020B2
:103EA0000C820020000200200402002010030020E9
:103EB000680200206C020020180300201C03002070
:103EC00024030020E06400082C030020900200205E
:103ED00017B7D138AC01002034030020DB0FC940F4
:103EE00038030020C8640008F404B53F3402002001
:103EF000F8020020380200204C0300205403002068
:103F0000C0020020D80300205C0300200000A04075
:103F1000DC0300200000A0C08C4B5B688B4A536020
:103F20008A4B93ED007A8A4BD3ED007A77EE677A6D
:103F300017EE900A8749884AFFF7DEF80246874B5A
:103F40001A60824B93ED017A814BD3ED017A77EEC3
:103F5000677A17EE900A7F49814AFFF7CDF802464B
:103F60007E4B5A607F4B1B6A7C487F491A46FFF79D
:103F700055F87E4B1B889BB2042B02D17A4B1B68F1
:103F800001E04FF00003784A1360774B1B687848D4
:103F90001946FFF78FF9774B1B6818467649774A21
:103FA000FFF776F80246764B1A60754B1B6870482F
:103FB0001946744AFFF78CF90246734B1A606B4B33
:103FC0001B889BB2042B02D16F4B1B6801E04FF0A2
:103FD00000036D4A13606C4BD3ED007AB2EE0E7A9B
:103FE000F4EEC77AF1EE10FA01DD684B01E0664BA2
:103FF0001B68654A1360644BD3ED007ABAEE0E7A03
:10400000F4EEC77AF1EE10FA01D5614B01E05E4B98
:104010001B685D4A1360534BD3ED047AB2EE047A09
:10402000F4EEC77AF1EE10FA01D55A4B01E04D4B90
:104030001B69594A1360584BD3ED007A77EEA77A83
:10404000554BC3ED007A554B93ED007A4E4BD3EDB3
:10405000007A37EE277A504BD3ED007AC7EE277AF5
:104060004F4BC3ED007A4E4BD3ED007AF1EE677AF9
:104070004C4BC3ED007A4A4B1B684B4A1360494BCB
:104080001B68494A536000237B6036E0464A7B68E0
:104090009B0013441B681846444900F0A7FF0146E3
:1040A000414A7B689B00134419603F4A7B689B0030
:1040B00013441B6818463E4900F072FF01463A4A15
:1040C0007B689B0013441960374A7B689B0013444C
:1040D000D3ED007A9FED377A67EE877AFDEEE77AC7
:1040E00017EE903A5B1003F59C53083332497A6817
:1040F00041F822307B6801337B607B68022BC5DD91
:104100002D4B1B682D4A13602B4B5B682C4A1360A8
:10411000294B9B682B4A1360274B1B682A4819467A
:10412000FDF72EFE244B5B6828481946FDF728FE54
:10413000214B9B6826481946FDF722FEFFF7F8F948
:104140002448FEF791FE0837BD46B0BD5C03002051
:104150005403002017B7D138C8010020B80200204E
:10416000E40100209002002004030020C00200208F
:1041700014820020F802002040030020E0640008C0
:104180004803002063149D430C030020000070418D
:10419000000070C100002041F081002010030020C9
:1041A000D0810020F481002064030020EC51783F8E
:1041B000EC5178BF00401C46C8020020108200204D
:1041C00040820020E48100200000002068000020E0
:1041D00034000020D859000880B582B000AFFEF747
:1041E0002DFD0346FB71FB79002B00D0FEE71B4B36
:1041F0001B681B4AA2FB03235B0B184600F04AF81E
:104200001848FEF731FE1848FEF72EFE1748FEF755
:104210002BFE1748FEF728FE1648FEF725FE164827
:10422000FDF79EFD1548FDF79BFD1548FDF798FD30
:104230001448FDF785FD1048FDF782FD0F48FDF796
:104240007FFD0F48FDF77CFD0F484FF07F510F4A6F
:104250000F4BFFF709F800F0CDF8FCE7C0FF002096
:104260005917B7D1005A00088C5A00083C5A000868
:10427000505A0008645A000800000020680000201E
:10428000340000209C000020148200200000C04068
:10429000DD7E3C4280B483B000AF7860374B0022B3
:1042A0001A60374B00221A60364B00221A60364BD8
:1042B00000221A60354B00221A60354B00221A602A
:1042C000344B00221A60344B00221A60334B002218
:1042D0001A70334B00221A70324B01221A70324B83
:1042E00000221A60314B00221A60314B00221A6002
:1042F000304B00221A60304B00221A602F4B0022F4
:104300001A602F4B00221A602A4B1B682D4A13603B
:104310002D4B4FF47A721A602C4B01221A602C4BF1
:104320001B889BB21A462B4B1A602B4B1B78DBB2B7
:104330001A46284B1B681344264A1360274B1A68F9
:10434000244B1B681344234A1360254B1A68214BE6
:104350001B6813441F4A1360224B01221A80224B10
:1043600000221A80214A7B681360214B01221A60C7
:104370000C37BD465DF8047B704700BFE0030020AA
:10438000981300205023002008330020C042002052
:104390007852002030620020E8710020A0810020C7
:1043A000C0810020A1810020AC810020B0810020CC
:1043B000548200206082002064820020A4810020BA
:1043C0006C820020B4810020B8810020A8810020E8
:1043D00080020020C481002082020020840200208C
:1043E00088020020BC810020BE810020588200206D
:1043F0006882002080B500AF0E4B1B78032B17D8C6
:1044000001A252F823F000BF194400081F4400081D
:10441000254400082B44000800F00EF808E000F0E6
:104420005DF805E000F01CF802E000F057F800BF6E
:1044300080BD00BFA081002080B400AF064B0022E9
:104440001A70064B1B88002B02D1044B01221A80E4
:10445000BD465DF8047B7047C0810020BC81002010
:1044600080B500AF174B1B68002B26D1164B0022DE
:104470001A60164B1B88012B06D9144B1B88013B75
:104480009AB2124B1A8018E0114B1B88002B02D1F4
:104490000F4B01221A800E4B1A880C4B1A8000F029
:1044A000E5F800F00BFA0B4B1B68002B05D1054B10
:1044B00001221A60044B01221A60074B00221A7075
:1044C00080BD00BF6C82002054820020BE8100208D
:1044D000BC810020B0810020C081002080B500AFE9
:1044E000554B1B88012B06D9534B1B88013B9AB2B5
:1044F000514B1A809EE0514B1B88002B02D14F4B31
:1045000001221A804D4B1A884B4B1A804C4B1B785A
:10451000032B00F28B8001A252F823F02D450008F6
:1045200069450008A9450008F1450008454B0022EF
:104530001A60454B00221A60444B00221A60444B1B
:1045400000221A60434B00221A60434B00221A607B
:10455000424B1B68424A136000F088F800F0AEF945
:10456000374B01221A7065E000F080F83C4B1B6865
:10457000002B05D03A4B1B68013B394A136001E020
:1045800000F0B8F900F09AF92F4B1B68012B0AD103
:10459000324B1B68C3F5797302332F4A1360284BE3
:1045A00002221A7046E045E000F060F800F086F95B
:1045B000294B1B68002B05D0274B1B68013B264A63
:1045C000136037E0274B1B78012B06D1254B0022C7
:1045D0001A701B4B00221A7006E0234B1B681D4A01
:1045E0001360174B03221A70164B01221A6021E048
:1045F000184B1B68002B05D0164B1B68013B154A56
:10460000136012E00F4B1B68002B0ED10E4B0022E3
:104610001A60124B1B68124A1360094B01221A7070
:1046200000F024F800F04AF904E003E0044B002213
:104630001A7000BF80BD00BFBE810020BC81002079
:10464000C08100206C82002054820020AC810020B8
:10465000B0810020A4810020B88100206082002069
:10466000B4810020A08100206482002080B500AFCA
:104670000C4800F027F80C4800F024F80B4800F034
:1046800021F80B4800F01EF80A4800F01BF80A4811
:1046900000F018F8094800F015F8094800F012F881
:1046A00080BD00BFE00300209813002050230020AD
:1046B00008330020C04200207852002030620020E1
:1046C000E871002080B485B000AF78607B681B681B
:1046D000012B40F0EB80784B1B6806339B007A6817
:1046E0001344FB607B681B79062B00F2DF8001A27C
:1046F00052F823F011470008554700089947000871
:10470000DD4700082148000861480008A14800086A
:104710007B689B68002B05D17B681B691A78FB6856
:104720001A7016E07B681B7B1A4601239340DBB2AC
:104730003B727B681B691A783B7A1340DBB2002B13
:1047400003D0FB6801221A7003E0FB6800221A7094
:10475000ACE0ABE07B689B68002B05D17B681B69F4
:104760001A78FB681A7016E07B681B7B1A460123D7
:104770009340DBB23B727B681B691A783B7A13402B
:10478000DBB2002B03D0FB6801221A7003E0FB6848
:1047900000221A708AE089E07B689B68002B05D1B3
:1047A0007B681B691A88FB681A8016E07B681B7B94
:1047B0001A46012393409BB23B817B681B691A8890
:1047C0003B8913409BB2002B03D0FB6801221A8067
:1047D00003E0FB6800221A8068E067E07B689B6862
:1047E000002B05D17B681B691A88FB681A8016E0CC
:1047F0007B681B7B1A46012393409BB23B817B68FD
:104800001B691A883B8913409BB2002B03D0FB68BD
:1048100001221A8003E0FB6800221A8046E045E08E
:104820007B689B68002B05D17B681B691A68FB6855
:104830001A6014E07B681B7B1A4601239340BB601F
:104840007B681B691A68BB681340002B03D0FB68A8
:1048500001221A6003E0FB6800221A6026E025E0CE
:104860007B689B68002B05D17B681B691A68FB6815
:104870001A6014E07B681B7B1A4601239340BB60DF
:104880007B681B691A68BB681340002B03D0FB6868
:1048900001221A6003E0FB6800221A6006E005E0CE
:1048A0007B681B691A68FB681A6000BF1437BD4635
:1048B0005DF8047B704700BFB081002080B400AF7A
:1048C0000A4B1B680A4A1360084B1B680133074AEE
:1048D0001360064B1B68B3F57A7F02D3034B0022AB
:1048E0001A60BD465DF8047B704700BFB0810020B0
:1048F000AC81002080B485B000AF904B1B78013BA9
:10490000072B2BD801A252F823F000BF2D49000835
:1049100033490008394900083F4900084549000863
:104920004B4900085149000857490008844BFB6077
:104930001AE0844BFB6017E0834BFB6014E0834B71
:10494000FB6011E0824BFB600EE0824BFB600BE0F2
:10495000814BFB6008E0814BFB6005E0784BFB601E
:10496000764B01221A7000BF7D4B00221A60FB6853
:104970001B68012B40F008837A4B1B6806339B00B1
:10498000FA681344BB60784B1B6806339B00FA68D7
:1049900013447B60754B1B68012B40F08781FB68DB
:1049A0001B79062B00F2F08201A252F823F000BF1F
:1049B000CD4900082B4A0008954A0008F34A000830
:1049C000974B0008F54B0008534C0008FB689B68A8
:1049D000002B19D1BB681A787B681B789A4223D2C6
:1049E000BB681A78FB681B7D9A421DD87B681A78D1
:1049F000FB681B7D9A4217D3594B01221A605A4B10
:104A00001B685B4A136050E1BB681B78002B0BD11D
:104A10007B681B78002B07D0514B01221A60524B48
:104A20001B68534A136040E13FE1FB689B68002B21
:104A30001FD1BB681A787B681B7852B25BB29A426E
:104A400027DABB681A78FB681B7D52B25BB29A42C8
:104A50001FDC7B681A78FB681B7D52B25BB29A42FE
:104A600017DB3F4B01221A603F4B1B68404A136023
:104A70001BE1BB681B78002B0BD17B681B78002BDC
:104A800007D0374B01221A60374B1B68384A136036
:104A90000BE10AE1FB689B68002B19D1BB681A88FF
:104AA0007B681B889A4223D2BB681A88FB689B8A62
:104AB0009A421DD87B681A88FB689B8A9A4217D352
:104AC000274B01221A60284B1B68294A1360ECE02F
:104AD000BB681B88002B0BD17B681B88002B07D081
:104AE0001F4B01221A60204B1B68214A1360DCE037
:104AF000DBE0FB689B68002B3CD1BB681A887B68B5
:104B00001B8812B21BB29A4244DABB681A88FB684F
:104B10009B8A12B21BB29A423CDC7B681A88FB6803
:104B20009B8A12B21BB29A4234DB0D4B01221A60EF
:104B30000D4B1B680E4A1360B7E000BFA181002037
:104B4000E0030020981300205023002008330020A9
:104B5000C04200207852002030620020E87100201E
:104B600054820020AC810020B0810020A881002068
:104B70005C820020BB681B88002B0BD17B681B88E4
:104B8000002B07D0864B01221A60864B1B68864A91
:104B900013608AE089E0FB689B68002B19D1BB6831
:104BA0001A687B681B689A4223D2BB681A68FB6844
:104BB0005B699A421DD87B681A68FB685B699A42F8
:104BC00017D3774B01221A60764B1B68764A136025
:104BD0006BE0BB681B68002B0BD17B681B68002B4C
:104BE00007D06F4B01221A606E4B1B686E4A136030
:104BF0005BE05AE0FB689B68002B19D1BB681A6820
:104C00007B681B689A4223DABB681A68FB685B6999
:104C10009A421DDC7B681A68FB685B699A4217DB65
:104C20005F4B01221A605F4B1B685F4A13603CE0D8
:104C3000BB681B68002B0BD17B681B68002B07D05F
:104C4000574B01221A60574B1B68574A13602CE0E0
:104C50002BE0BB6893ED007A7B68D3ED007AB4EE6D
:104C6000E77AF1EE10FA00D41EE0BB6893ED007A0B
:104C7000FB68D3ED057AB4EEE77AF1EE10FA00D9CD
:104C800012E07B6893ED007AFB68D3ED057AB4EE11
:104C9000E77AF1EE10FA00DA06E0414B01221A60E1
:104CA000404B1B68404A136000BF6DE1FB681B79F5
:104CB000062B00F2698101A252F823F0D94C0008BA
:104CC000374D0008AD4D00080B4E0008754E00082A
:104CD000D34E0008314F0008FB689B68002B19D1A8
:104CE000BB681A787B681B789A4223D9BB681A780C
:104CF000FB681B7D9A421DD37B681A78FB681B7D7D
:104D00009A4217D8264B01221A60264B1B68264A66
:104D1000136039E1BB681B78002B0BD07B681B78D4
:104D2000002B07D11E4B01221A601E4B1B681E4A26
:104D3000136029E128E1FB689B68002B1FD1BB6849
:104D40001A787B681B7852B25BB29A4227DDBB6847
:104D50001A78FB681B7D52B25BB29A421FDB7B68FC
:104D60001A78FB681B7D52B25BB29A4217DC0C4B7F
:104D700001221A600B4B1B680B4A136004E1BB68ED
:104D80001B78002B0BD07B681B78002B07D1044BC2
:104D900001221A60034B1B68034A1360F4E0F3E03E
:104DA00054820020B08100205C820020FB689B6858
:104DB000002B19D1BB681A887B681B889A4223D9BB
:104DC000BB681A88FB689B8A9A421DD37B681A8845
:104DD000FB689B8A9A4217D86E4B01221A606E4B71
:104DE0001B686E4A1360CFE0BB681B88002B0BD09A
:104DF0007B681B88002B07D1664B01221A60664B2B
:104E00001B68664A1360BFE0BEE0FB689B68002B2E
:104E10001FD1BB681A887B681B8812B21BB29A42EA
:104E200027DDBB681A88FB689B8A12B21BB29A42C4
:104E30001FDB7B681A88FB689B8A12B21BB29A42FE
:104E400017DC544B01221A60534B1B68534A136002
:104E50009AE0BB681B88002B0BD07B681B88002B5B
:104E600007D14C4B01221A604B4B1B684B4A136015
:104E70008AE089E0FB689B68002B19D1BB681A683F
:104E80007B681B689A4223D9BB681A68FB685B6918
:104E90009A421DD37B681A68FB685B699A4217D8EF
:104EA0003C4B01221A603C4B1B683C4A13606BE090
:104EB000BB681B68002B0BD07B681B68002B07D1DD
:104EC000344B01221A60344B1B68344A13605BE098
:104ED0005AE0FB689B68002B19D1BB681A687B6895
:104EE0001B689A4223DDBB681A68FB685B699A42BB
:104EF0001DDB7B681A68FB685B699A4217DC254BEF
:104F000001221A60244B1B68244A13603CE0BB68F2
:104F10001B68002B0BD07B681B68002B07D11D4B37
:104F200001221A601C4B1B681C4A13602CE02BE00A
:104F3000BB6893ED007A7B68D3ED007AB4EEE77A34
:104F4000F1EE10FA00DC1FE0BB6893ED007AFB681D
:104F5000D3ED057AB4EEE77AF1EE10FA00DA13E059
:104F60007B6893ED007AFB68D3ED057AB4EEE77ABF
:104F7000F1EE10FA00D907E0064B01221A60064B49
:104F80001B68064A136000BF1437BD465DF8047BFA
:104F9000704700BF54820020B08100205C82002056
:104FA00008B52DED028B08EE900A08EE101A00F0FD
:104FB00043F820B918EE100ABDEC028B08BD18EEBC
:104FC000100A00F039F858B1F4EEC88AF1EE10FA80
:104FD000D4BF18EE100A18EE900ABDEC028B08BD83
:104FE00018EE900ABDEC028B08BD00BF08B52DED90
:104FF000028B08EE900A08EE101A00F01DF820B996
:1050000018EE100ABDEC028B08BD18EE100A00F075
:1050100013F858B1F4EEC88AF1EE10FA54BF18EE46
:10502000100A18EE900ABDEC028B08BD18EE900A2B
:10503000BDEC028B08BD00BF30F0004001D1022062
:105040007047A0F50003B3F1FE4F01D20420704772
:10505000054B421E9A4201D803207047A0F1FF4041
:10506000B0FA80F040097047FEFF7F0081F00041F8
:1050700002E000BF83F0004330B54FEA41044FEA3D
:10508000430594EA050F08BF90EA020F1FBF54EAD8
:10509000000C55EA020C7FEA645C7FEA655C00F074
:1050A000E2804FEA5454D4EB5555B8BF6D420CDD45
:1050B0002C4480EA020281EA030382EA000083EAC8
:1050C000010180EA020281EA0303362D88BF30BD68
:1050D00011F0004F4FEA01314FF4801C4CEA1131BE
:1050E00002D0404261EB410113F0004F4FEA03331D
:1050F0004CEA133302D0524263EB430394EA050FA8
:1051000000F0A780A4F10104D5F1200E0DDB02FA16
:105110000EFC22FA05F2801841F1000103FA0EF2AA
:10512000801843FA05F359410EE0A5F120050EF170
:10513000200E012A03FA0EFC28BF4CF0020C43FAA1
:1051400005F3C01851EBE37101F0004507D54FF0AE
:10515000000EDCF1000C7EEB00006EEB0101B1F5FE
:10516000801F1BD3B1F5001F0CD349085FEA300044
:105170004FEA3C0C04F101044FEA445212F5800F4F
:1051800080F09A80BCF1004F08BF5FEA500C50F1EC
:10519000000041EB045141EA050130BD5FEA4C0CCF
:1051A000404141EB010111F4801FA4F10104E9D158
:1051B00091F0000F04BF01460020B1FA81F308BF4F
:1051C0002033A3F10B03B3F120020CDA0C3208DD1B
:1051D00002F1140CC2F10C0201FA0CF021FA02F1F6
:1051E0000CE002F11402D8BFC2F1200C01FA02F166
:1051F00020FA0CFCDCBF41EA0C019040E41AA2BF8B
:1052000001EB0451294330BD6FEA04041F3C1CDA52
:105210000C340EDC04F11404C4F1200220FA04F072
:1052200001FA02F340EA030021FA04F345EA03011C
:1052300030BDC4F10C04C4F1200220FA02F001FADE
:1052400004F340EA0300294630BD21FA04F0294660
:1052500030BD94F0000F83F4801306BF81F48011F9
:105260000134013D4EE77FEA645C18BF7FEA655C6C
:1052700029D094EA050F08BF90EA020F05D054EA3E
:10528000000C04BF1946104630BD91EA030F1EBF43
:105290000021002030BD5FEA545C05D14000494147
:1052A00028BF41F0004130BD14F580043CBF01F53A
:1052B000801130BD01F0004545F0FE4141F4700120
:1052C0004FF0000030BD7FEA645C1ABF19461046FB
:1052D0007FEA655C1CBF0B46024650EA013406BFFC
:1052E00052EA033591EA030F41F4002130BD00BFBB
:1052F00090F0000F04BF0021704730B54FF4806478
:1053000004F132044FF000054FF0000150E700BFF8
:1053100090F0000F04BF0021704730B54FF4806457
:1053200004F1320410F0004548BF40424FF0000144
:105330003EE700BF42004FEAE2014FEA31014FEA87
:1053400002701FBF12F07F4393F07F4F81F06051D6
:10535000704792F0000F14BF93F07F4F704730B545
:105360004FF4607401F0004521F0004120E700BFD8
:1053700050EA010208BF704730B54FF000050AE05F
:1053800050EA010208BF704730B511F0004502D560
:10539000404261EB41014FF4806404F132045FEA62
:1053A000915C3FF4DCAE4FF003025FEADC0C18BF07
:1053B00003325FEADC0C18BF033202EBDC02C2F1FD
:1053C000200300FA03FC20FA02F001FA03FE40EA8F
:1053D0000E0021FA02F11444C1E600BF70B54FF08F
:1053E000FF0C4CF4E06C1CEA11541DBF1CEA135571
:1053F00094EA0C0F95EA0C0F00F0DEF82C4481EAD9
:10540000030621EA4C5123EA4C5350EA013518BFF8
:1054100052EA033541F4801143F4801338D0A0FBE5
:1054200002CE4FF00005E1FB02E506F00042E0FB92
:1054300003E54FF00006E1FB03569CF0000F18BF98
:105440004EF0010EA4F1FF04B6F5007F64F5407440
:1054500004D25FEA4E0E6D4146EB060642EAC621D3
:1054600041EA55514FEAC52040EA5E504FEACE2E40
:10547000B4F1FD0C88BFBCF5E06F1ED8BEF1004F43
:1054800008BF5FEA500E50F1000041EB045170BDBF
:1054900006F0004646EA010140EA020081EA030103
:1054A000B4EB5C04C2BFD4EB0C0541EA045170BDFF
:1054B00041F480114FF0000E013C00F3AB8014F179
:1054C000360FDEBF002001F0004170BDC4F10004C2
:1054D000203C35DA0C341BDC04F11404C4F1200543
:1054E00000FA05F320FA04F001FA05F240EA02009E
:1054F00001F0004221F0004110EBD37021FA04F6D4
:1055000042EB06015EEA430E08BF20EAD37070BD8D
:10551000C4F10C04C4F1200500FA04F320FA05F0EC
:1055200001FA04F240EA020001F0004110EBD370EE
:1055300041F100015EEA430E08BF20EAD37070BD5E
:10554000C4F1200500FA05F24EEA020E20FA04F337
:1055500001FA05F243EA020321FA04F001F00041E6
:1055600021FA04F220EA020000EBD3705EEA430E57
:1055700008BF20EAD37070BD94F0000F0FD101F086
:105580000046400041EB010111F4801F08BF013CBF
:10559000F7D041EA060195F0000F18BF704703F0FD
:1055A0000046520043EB030313F4801F08BF013D84
:1055B000F7D043EA0603704794EA0C0F0CEA135540
:1055C00018BF95EA0C0F0CD050EA410618BF52EAFA
:1055D0004306D1D181EA030101F000414FF0000000
:1055E00070BD50EA410606BF1046194652EA43060E
:1055F00019D094EA0C0F02D150EA013613D195EA82
:105600000C0F05D152EA03361CBF104619460AD1C9
:1056100081EA030101F0004141F0FE4141F47001D3
:105620004FF0000070BD41F0FE4141F4780170BDC3
:1056300070B54FF0FF0C4CF4E06C1CEA11541DBF28
:105640001CEA135594EA0C0F95EA0C0F00F0A7F82A
:10565000A4EB050481EA030E52EA03354FEA013157
:1056600000F088804FEA03334FF0805545EA13136A
:1056700043EA12634FEA022245EA111545EA106532
:105680004FEA00260EF000419D4208BF964244F1C9
:10569000FD0404F5407402D25B084FEA3202B61AE8
:1056A00065EB03055B084FEA32024FF480104FF4BC
:1056B000002CB6EB020E75EB030E22BFB61A754630
:1056C00040EA0C005B084FEA3202B6EB020E75EBC3
:1056D000030E22BFB61A754640EA5C005B084FEA2B
:1056E0003202B6EB020E75EB030E22BFB61A7546F8
:1056F00040EA9C005B084FEA3202B6EB020E75EB03
:10570000030E22BFB61A754640EADC0055EA060EC3
:1057100018D04FEA051545EA16754FEA06164FEA06
:10572000C30343EA52734FEAC2025FEA1C1CC0D1B2
:1057300011F4801F0BD141EA00014FF000004FF03F
:10574000004CB6E711F4801F04BF01430020B4F100
:10575000FD0C88BFBCF5E06F3FF6AFAEB5EB030CB8
:1057600004BFB6EB020C5FEA500C50F1000041EBB5
:10577000045170BD0EF0004E4EEA113114EB5C0482
:10578000C2BFD4EB0C0541EA045170BD41F4801155
:105790004FF0000E013C90E645EA060E8DE60CEA5D
:1057A000135594EA0C0F08BF95EA0C0F3FF43BAF7A
:1057B00094EA0C0F0AD150EA01347FF434AF95EA31
:1057C0000C0F7FF425AF104619462CE795EA0C0F15
:1057D00006D152EA03353FF4FDAE1046194622E7E2
:1057E00050EA410618BF52EA43067FF4C5AE50EABC
:1057F00041047FF40DAF52EA43057FF4EBAE12E7AC
:105800004FEA4102B2F1E04324BFB3F5001CDCF1E2
:10581000FE5C0DD901F0004C4FEAC0024CEA50701A
:10582000B2F1004F40EB830008BF20F00100704749
:1058300011F0804F21D113F13872BCBF01F000404C
:10584000704741F480114FEA5252C2F11802C2F17E
:10585000200C10FA0CF320FA02F018BF40F00100FF
:105860004FEAC1234FEAD32303FA0CFC40EA0C00B1
:1058700023FA02F34FEA4303CCE77FEA625307D1EE
:1058800050EA01331EBF4FF0FE4040F44000704725
:1058900001F0004040F0FE4040F40000704700BFBF
:1058A00070B50E4B0E4CE41AA41000251E46A542FE
:1058B00004D056F8253098470135F8E7FCF798F8FA
:1058C000084C094BE41AA41000251E46A54204D03A
:1058D00056F8253098470135F8E770BD8C02002056
:1058E0008C0200208C0200208C020020004400402A
:1058F00000480040004C0040005000400000000004
:1059000000000000000000000000000098000000FF
:105910000000010004000000000000000000000082
:1059200000000000000000009800000000000100DE
:105930000400000000000000000000000000000063
:1059400000000000980000000000010004000000BA
:105950000000000000000000000000000000000047
:105960009800000000000100040000003F3F00011B
:105970000000000000000000000000000000000027
:105980000000000000000000000000000000000017
:105990000000000000000000000000000000000007
:1059A00000000000000000000000000000000000F7
:1059B00000000000000000000000000000000000E7
:1059C00000000000030000000000000000000000D4
:1059D000000000000000000000810248800000007C
:1059E00000000100000000000000000000810248EB
:1059F0008000000000000100000000000100000025
:105A00000085024880000000000001000000000046
:105A100007000000008102480800000000000000AC
:105A2000000000000F00000000800248800000001D
:105A30000000010000000000090000000080024892
:105A400080000000000001000000000008000000CD
:105A500000800248800000000000010000000000FB
:105A60000C000000008002488000000000000100DF
:105A7000000000000200000000830248080000004F
:105A80000000000000000000030000000083024846
:105A90008000000000000100000000000200000083
:105AA00000820248800000000000010000000000A9
:105AB0000600000000850248800000000000010090
:105AC000000000000200000000000000920E493CAF
:105AD000B10AC93C2BC3163D2EFB483D752B7B3DBF
